{
  "abi": [
    {
      "inputs": [],
      "name": "NotSupportedPool",
      "type": "error"
    },
    {
      "inputs": [
        {
          "internalType": "contract IUniswapV3Pool",
          "name": "pool",
          "type": "address"
        },
        {
          "internalType": "address",
          "name": "owner",
          "type": "address"
        },
        {
          "internalType": "uint24",
          "name": "contractId",
          "type": "uint24"
        }
      ],
      "name": "positionHealthFactorFutures",
      "outputs": [
        {
          "internalType": "bool",
          "name": "isLiquidable",
          "type": "bool"
        },
        {
          "internalType": "int256",
          "name": "actualMarginPercentage",
          "type": "int256"
        },
        {
          "internalType": "int256",
          "name": "actualMarginAmount",
          "type": "int256"
        }
      ],
      "stateMutability": "view",
      "type": "function"
    }
  ],
  "bytecode": {
    "object": "0x6080806040523461002857600d80546001600160a01b03191630179055610637908161002e8239f35b600080fdfe608060048036101561001057600080fd5b6000803560e01c63d28119811461002657600080fd5b34610373576060366003190112610373576001600160a01b039282358481169081900361037a57602493843592868416809403610376576044359162ffffff95868416809403610373578097858252602094600c86526040978884209084528652878320908352855286822097610140850185811067ffffffffffffffff821117610361578852885460ff8116600281101561034f57908c91875260081c168686015260018901549088860191825260028a0154976060870198895260038b01549c608088019d8e52868c015460a089015260058c01541660c088015260068b015460e088015260ff600860078d01549c6101008a019d8e52015416600581101561033d576101208801528951630dfe168160e01b81529188838881855afa928315610333578693610314575b508a5163d21220a760e01b81529189838981845afa9283156102db57889392918b9189946102e5575b508d5163ddca3f4360e01b815294859182905afa9283156102db57908f91889461028f575b5050916101c593916001600160801b036101bd94511692610444565b8c51906103da565b9080519182810292818404149015171561027d57516101e3916103da565b935192600284101561026c57505060609861022261271061023295819561022a95501560001461025157885161021891610421565b05965b5187610421565b905190610421565b0594516103fa565b8212610248575b82519415158552840152820152f35b60019450610239565b61025d610265916103fa565b895190610421565b059661021b565b634e487b7160e01b83526021905281fd5b634e487b7160e01b8452601185528284fd5b8b80929495508193503d83116102d4575b6102aa818361037e565b810103126102d0575190811681036102cc57908d816001600160801b036101a1565b8580fd5b8680fd5b503d6102a0565b8c513d89823e3d90fd5b610306919450823d841161030d575b6102fe818361037e565b8101906103b6565b923861017c565b503d6102f4565b61032c919350893d8b1161030d576102fe818361037e565b9138610153565b8b513d88823e3d90fd5b634e487b7160e01b8652602187528486fd5b634e487b7160e01b8552602186528385fd5b634e487b7160e01b8452604185528284fd5b80fd5b8480fd5b8280fd5b90601f8019910116810190811067ffffffffffffffff8211176103a057604052565b634e487b7160e01b600052604160045260246000fd5b908160209103126103d557516001600160a01b03811681036103d55790565b600080fd5b81156103e4570490565b634e487b7160e01b600052601260045260246000fd5b600160ff1b811461040b5760000390565b634e487b7160e01b600052601160045260246000fd5b818102929160008212600160ff1b82141661040b57818405149015171561040b57565b6000926001600160a01b039291839081841682821610156105fc57925b16926001600160801b03604051966372a03a0760e01b88521690816004880152618ca0928360248901526020958689604481305afa9889156105f15788996105be575b5073951857744785e80e2de051c32ee7b25f9c458c4281036104f6575050505050505081156104e257506ec097ce7bc90715b34b9f10000000000490565b634e487b7160e01b81526012600452602490fd5b90919293949695975073d4b5f10d61916bd6e0860144a91ac658de8a143781146000146105ac5762ffffff926040519763e9d7643d60e01b8952166004880152602487015216604485015260648401526084830152600160a4830152828260c481305afa92831561059f57819361056e575b50505090565b9091809350813d8311610598575b610586818361037e565b81010312610373575051388080610568565b503d61057c565b50604051903d90823e3d90fd5b604051633548de8d60e21b8152600490fd5b9098508681813d83116105ea575b6105d6818361037e565b810103126105e6575197386104a4565b8780fd5b503d6105cc565b6040513d8a823e3d90fd5b61046156fea26469706673582212202ae87284d47f88f375553902d80e05adaff083042c4c587c3de30a324da5849b64736f6c63430008130033",
    "linkReferences": {}
  },
  "methodIdentifiers": {
    "positionHealthFactorFutures(address,address,uint24)": "d2811981"
  },
  "id": 9
}