{
  "abi": [
    {
      "inputs": [],
      "name": "NotSupportedPool",
      "type": "error"
    },
    {
      "inputs": [
        {
          "internalType": "contract IUniswapV3Pool",
          "name": "pool",
          "type": "address"
        },
        {
          "internalType": "address",
          "name": "owner",
          "type": "address"
        },
        {
          "internalType": "uint24",
          "name": "contractId",
          "type": "uint24"
        }
      ],
      "name": "positionHealthFactorFutures",
      "outputs": [
        {
          "internalType": "bool",
          "name": "isLiquidable",
          "type": "bool"
        },
        {
          "internalType": "int256",
          "name": "actualMarginPercentage",
          "type": "int256"
        },
        {
          "internalType": "int256",
          "name": "actualMarginAmount",
          "type": "int256"
        }
      ],
      "stateMutability": "view",
      "type": "function"
    }
  ],
  "bytecode": {
    "object": "0x608060405234801561001057600080fd5b50600d80546001600160a01b0319163017905561074a806100326000396000f3fe608060405234801561001057600080fd5b506004361061002b5760003560e01c8063d281198114610030575b600080fd5b61004361003e366004610582565b610064565b60408051931515845260208401929092529082015260600160405180910390f35b6001600160a01b038084166000908152600c60209081526040808320938616835292815282822062ffffff851683529052818120825161014081019093528054919283928392839291829060ff1660018111156100c3576100c36105cd565b60018111156100d4576100d46105cd565b815281546001600160a01b03610100918290048116602084015260018401546040840152600284015460608401526003840154608084015260048085015460a0850152600585015490911660c0840152600684015460e084015260078401549183019190915260088301546101209092019160ff1690811115610159576101596105cd565b600481111561016a5761016a6105cd565b81525050905060008160400151826040015183608001516102b68b6001600160a01b0316630dfe16816040518163ffffffff1660e01b8152600401602060405180830381865afa1580156101c2573d6000803e3d6000fd5b505050506040513d601f19601f820116820180604052508101906101e691906105e3565b8c6001600160a01b031663d21220a76040518163ffffffff1660e01b8152600401602060405180830381865afa158015610224573d6000803e3d6000fd5b505050506040513d601f19601f8201168201806040525081019061024891906105e3565b8d6001600160a01b031663ddca3f436040518163ffffffff1660e01b8152600401602060405180830381865afa158015610286573d6000803e3d6000fd5b505050506040513d601f19601f820116820180604052508101906102aa9190610607565b8860800151600161038f565b6102c09190610650565b6102ca9190610664565b6102d49190610650565b90506000825160018111156102eb576102eb6105cd565b1461031b5760608201516127109061030283610681565b61030c919061069d565b61031691906106cd565b610338565b60608201516127109061032e908361069d565b61033891906106cd565b6080830151606084015191955061271091610353908761069d565b61035d919061069d565b61036791906106cd565b925081610100015161037890610681565b84121561038457600194505b505093509350939050565b6000806000866001600160a01b0316886001600160a01b0316106103b45786886103b7565b87875b6040516372a03a0760e01b81526001600160801b0388166004820152618ca0602482015291935091506001600160a01b03821673951857744785e80e2de051c32ee7b25f9c458c4281149173d4b5f10d61916bd6e0860144a91ac658de8a14379091149060009030906372a03a0790604401602060405180830381865afa158015610446573d6000803e3d6000fd5b505050506040513d601f19601f8201168201806040525081019061046a91906106fb565b905082156104975761048b816ec097ce7bc90715b34b9f1000000000610650565b95505050505050610550565b81156105375760405163e9d7643d60e01b81526001600160a01b0380871660048301528516602482015262ffffff8a1660448201526001600160801b0389166064820152618ca0608482015287151560a4820152309063e9d7643d9060c401602060405180830381865afa158015610513573d6000803e3d6000fd5b505050506040513d601f19601f8201168201806040525081019061048b91906106fb565b604051633548de8d60e21b815260040160405180910390fd5b95945050505050565b6001600160a01b038116811461056e57600080fd5b50565b62ffffff8116811461056e57600080fd5b60008060006060848603121561059757600080fd5b83356105a281610559565b925060208401356105b281610559565b915060408401356105c281610571565b809150509250925092565b634e487b7160e01b600052602160045260246000fd5b6000602082840312156105f557600080fd5b815161060081610559565b9392505050565b60006020828403121561061957600080fd5b815161060081610571565b634e487b7160e01b600052601260045260246000fd5b634e487b7160e01b600052601160045260246000fd5b60008261065f5761065f610624565b500490565b808202811582820484141761067b5761067b61063a565b92915050565b6000600160ff1b82016106965761069661063a565b5060000390565b80820260008212600160ff1b841416156106b9576106b961063a565b818105831482151761067b5761067b61063a565b6000826106dc576106dc610624565b600160ff1b8214600019841416156106f6576106f661063a565b500590565b60006020828403121561070d57600080fd5b505191905056fea26469706673582212208e65182ae90e7a4d26804c4aecd7b3492376adc204e985550c49b3fa6b3b287764736f6c63430008130033",
    "linkReferences": {}
  },
  "methodIdentifiers": {
    "positionHealthFactorFutures(address,address,uint24)": "d2811981"
  },
  "id": 9
}