{
  "abi": [
    {
      "inputs": [
        {
          "internalType": "uint256",
          "name": "tokenId",
          "type": "uint256"
        }
      ],
      "name": "collectAllFeesXinfin",
      "outputs": [
        {
          "internalType": "uint256",
          "name": "amount0",
          "type": "uint256"
        },
        {
          "internalType": "uint256",
          "name": "amount1",
          "type": "uint256"
        }
      ],
      "stateMutability": "nonpayable",
      "type": "function"
    },
    {
      "inputs": [
        {
          "internalType": "uint256",
          "name": "tokenId",
          "type": "uint256"
        }
      ],
      "name": "decreaseAllLiquidity",
      "outputs": [
        {
          "internalType": "uint256",
          "name": "amount0",
          "type": "uint256"
        },
        {
          "internalType": "uint256",
          "name": "amount1",
          "type": "uint256"
        }
      ],
      "stateMutability": "nonpayable",
      "type": "function"
    },
    {
      "inputs": [
        {
          "internalType": "uint256",
          "name": "tokenId",
          "type": "uint256"
        },
        {
          "internalType": "uint256",
          "name": "amountAdd0",
          "type": "uint256"
        },
        {
          "internalType": "uint256",
          "name": "amountAdd1",
          "type": "uint256"
        }
      ],
      "name": "increaseLiquidityCurrentRangeXinfin",
      "outputs": [
        {
          "internalType": "uint128",
          "name": "liquidity",
          "type": "uint128"
        },
        {
          "internalType": "uint256",
          "name": "amount0",
          "type": "uint256"
        },
        {
          "internalType": "uint256",
          "name": "amount1",
          "type": "uint256"
        }
      ],
      "stateMutability": "nonpayable",
      "type": "function"
    },
    {
      "inputs": [
        {
          "internalType": "uint256",
          "name": "tokenId",
          "type": "uint256"
        }
      ],
      "name": "retrieveNFTXinfin",
      "outputs": [],
      "stateMutability": "nonpayable",
      "type": "function"
    }
  ],
  "bytecode": {
    "object": "0x608060405234801561001057600080fd5b50600d80546001600160a01b03191630179055610ac2806100326000396000f3fe608060405234801561001057600080fd5b506004361061004c5760003560e01c806303c97fbf1461005157806373673d1d146100665780638002449314610093578063afe3abf5146100a6575b600080fd5b61006461005f366004610988565b6100de565b005b610079610074366004610988565b6101f5565b604080519283526020830191909152015b60405180910390f35b6100796100a1366004610988565b610342565b6100b96100b43660046109a1565b6104a4565b604080516001600160801b03909416845260208401929092529082015260600161008a565b6000818152600660205260409020546001600160a01b031633146101395760405162461bcd60e51b815260206004820152600d60248201526c2737ba103a34329037bbb732b960991b60448201526064015b60405180910390fd5b60048054604051632142170760e11b81523092810192909252336024830152604482018390526001600160a01b0316906342842e0e90606401600060405180830381600087803b15801561018c57600080fd5b505af11580156101a0573d6000803e3d6000fd5b50505060009182525060066020526040902080546001600160a01b031990811682556001820180546fffffffffffffffffffffffffffffffff1916905560028201805482169055600390910180549091169055565b604051632142170760e11b815233600482015230602482015260448101829052600090819073c36442b4a4522e871399cd717abdd847ab11fe88906342842e0e90606401600060405180830381600087803b15801561025357600080fd5b505af1158015610267573d6000803e3d6000fd5b50506040805160808101825286815230602082019081526001600160801b0382840181815260608401828152945163fc6f786560e01b81528451600482015292516001600160a01b03166024840152518116604483015292519092166064830152925073c36442b4a4522e871399cd717abdd847ab11fe88915063fc6f78659060840160408051808303816000875af1158015610308573d6000803e3d6000fd5b505050506040513d601f19601f8201168201806040525081019061032c91906109cd565b909350915061033c848484610644565b50915091565b60008181526006602052604081205481906001600160a01b031633148061037357506000546001600160a01b031633145b6103af5760405162461bcd60e51b815260206004820152600d60248201526c2737ba103a34329037bbb732b960991b6044820152606401610130565b600083815260066020908152604080832060010154815160a0810183528781526001600160801b039182169381018481528184018681526060830196875242608084019081529451630624e65f60e11b815283516004820152915190931660248201529151604483015293516064820152905160848201529091829173c36442b4a4522e871399cd717abdd847ab11fe8890630c49ccbe9060a40160408051808303816000875af1158015610468573d6000803e3d6000fd5b505050506040513d601f19601f8201168201806040525081019061048c91906109cd565b909550935061049c868686610644565b505050915091565b600083815260066020526040812060020154819081906104cf906001600160a01b031633308861068d565b6000868152600660205260409020600301546104f6906001600160a01b031633308761068d565b600086815260066020526040902060020154610530906001600160a01b031673c36442b4a4522e871399cd717abdd847ab11fe888761078f565b60008681526006602052604090206003015461056a906001600160a01b031673c36442b4a4522e871399cd717abdd847ab11fe888661078f565b6040805160c08101825287815260208101878152818301878152600060608401818152608085019182524260a08601908152955163219f5d1760e01b815285516004820152935160248501529151604484015290516064830152516084820152915160a48301529073c36442b4a4522e871399cd717abdd847ab11fe889063219f5d179060c4016060604051808303816000875af1158015610610573d6000803e3d6000fd5b505050506040513d601f19601f8201168201806040525081019061063491906109f1565b9199909850909650945050505050565b6000838152600660205260409020805460028201546003909201546001600160a01b03918216928216911661067a82848761088f565b61068581848661088f565b505050505050565b604080516001600160a01b0385811660248301528481166044830152606480830185905283518084039091018152608490920183526020820180516001600160e01b03166323b872dd60e01b17905291516000928392908816916106f19190610a34565b6000604051808303816000865af19150503d806000811461072e576040519150601f19603f3d011682016040523d82523d6000602084013e610733565b606091505b509150915081801561075d57508051158061075d57508080602001905181019061075d9190610a63565b6106855760405162461bcd60e51b815260206004820152600360248201526229aa2360e91b6044820152606401610130565b604080516001600160a01b038481166024830152604480830185905283518084039091018152606490920183526020820180516001600160e01b031663095ea7b360e01b17905291516000928392908716916107eb9190610a34565b6000604051808303816000865af19150503d8060008114610828576040519150601f19603f3d011682016040523d82523d6000602084013e61082d565b606091505b50915091508180156108575750805115806108575750808060200190518101906108579190610a63565b6108885760405162461bcd60e51b8152602060048201526002602482015261534160f01b6044820152606401610130565b5050505050565b604080516001600160a01b038481166024830152604480830185905283518084039091018152606490920183526020820180516001600160e01b031663a9059cbb60e01b17905291516000928392908716916108eb9190610a34565b6000604051808303816000865af19150503d8060008114610928576040519150601f19603f3d011682016040523d82523d6000602084013e61092d565b606091505b50915091508180156109575750805115806109575750808060200190518101906109579190610a63565b6108885760405162461bcd60e51b815260206004820152600260248201526114d560f21b6044820152606401610130565b60006020828403121561099a57600080fd5b5035919050565b6000806000606084860312156109b657600080fd5b505081359360208301359350604090920135919050565b600080604083850312156109e057600080fd5b505080516020909101519092909150565b600080600060608486031215610a0657600080fd5b83516001600160801b0381168114610a1d57600080fd5b602085015160409095015190969495509392505050565b6000825160005b81811015610a555760208186018101518583015201610a3b565b506000920191825250919050565b600060208284031215610a7557600080fd5b81518015158114610a8557600080fd5b939250505056fea26469706673582212201ffac6badf0c04b645b5cbfac370036a613ad666da80c19eda6cde24d08f3e0264736f6c63430008130033",
    "linkReferences": {}
  },
  "methodIdentifiers": {
    "collectAllFeesXinfin(uint256)": "73673d1d",
    "decreaseAllLiquidity(uint256)": "80024493",
    "increaseLiquidityCurrentRangeXinfin(uint256,uint256,uint256)": "afe3abf5",
    "retrieveNFTXinfin(uint256)": "03c97fbf"
  },
  "id": 7
}