{
  "abi": [
    {
      "inputs": [
        {
          "internalType": "uint256",
          "name": "tokenId",
          "type": "uint256"
        }
      ],
      "name": "collectAllFeesXinfin",
      "outputs": [
        {
          "internalType": "uint256",
          "name": "amount0",
          "type": "uint256"
        },
        {
          "internalType": "uint256",
          "name": "amount1",
          "type": "uint256"
        }
      ],
      "stateMutability": "nonpayable",
      "type": "function"
    },
    {
      "inputs": [
        {
          "internalType": "uint256",
          "name": "tokenId",
          "type": "uint256"
        }
      ],
      "name": "decreaseAllLiquidity",
      "outputs": [
        {
          "internalType": "uint256",
          "name": "amount0",
          "type": "uint256"
        },
        {
          "internalType": "uint256",
          "name": "amount1",
          "type": "uint256"
        }
      ],
      "stateMutability": "nonpayable",
      "type": "function"
    },
    {
      "inputs": [
        {
          "internalType": "uint256",
          "name": "tokenId",
          "type": "uint256"
        },
        {
          "internalType": "uint256",
          "name": "amountAdd0",
          "type": "uint256"
        },
        {
          "internalType": "uint256",
          "name": "amountAdd1",
          "type": "uint256"
        }
      ],
      "name": "increaseLiquidityCurrentRangeXinfin",
      "outputs": [
        {
          "internalType": "uint128",
          "name": "liquidity",
          "type": "uint128"
        },
        {
          "internalType": "uint256",
          "name": "amount0",
          "type": "uint256"
        },
        {
          "internalType": "uint256",
          "name": "amount1",
          "type": "uint256"
        }
      ],
      "stateMutability": "nonpayable",
      "type": "function"
    },
    {
      "inputs": [
        {
          "internalType": "uint256",
          "name": "amount0ToMint",
          "type": "uint256"
        },
        {
          "internalType": "uint256",
          "name": "amount1ToMint",
          "type": "uint256"
        },
        {
          "internalType": "int24",
          "name": "tickDesired",
          "type": "int24"
        },
        {
          "internalType": "uint24",
          "name": "poolFee",
          "type": "uint24"
        },
        {
          "internalType": "address",
          "name": "token0",
          "type": "address"
        },
        {
          "internalType": "address",
          "name": "token1",
          "type": "address"
        }
      ],
      "name": "mintNewPosXinfin",
      "outputs": [
        {
          "internalType": "uint256",
          "name": "tokenId",
          "type": "uint256"
        },
        {
          "internalType": "uint128",
          "name": "liquidity",
          "type": "uint128"
        },
        {
          "internalType": "uint256",
          "name": "amount0",
          "type": "uint256"
        },
        {
          "internalType": "uint256",
          "name": "amount1",
          "type": "uint256"
        }
      ],
      "stateMutability": "nonpayable",
      "type": "function"
    },
    {
      "inputs": [
        {
          "internalType": "address",
          "name": "operator",
          "type": "address"
        },
        {
          "internalType": "address",
          "name": "",
          "type": "address"
        },
        {
          "internalType": "uint256",
          "name": "tokenId",
          "type": "uint256"
        },
        {
          "internalType": "bytes",
          "name": "",
          "type": "bytes"
        }
      ],
      "name": "onERC721Received",
      "outputs": [
        {
          "internalType": "bytes4",
          "name": "",
          "type": "bytes4"
        }
      ],
      "stateMutability": "nonpayable",
      "type": "function"
    },
    {
      "inputs": [
        {
          "internalType": "uint256",
          "name": "tokenId",
          "type": "uint256"
        }
      ],
      "name": "retrieveNFTXinfin",
      "outputs": [],
      "stateMutability": "nonpayable",
      "type": "function"
    }
  ],
  "bytecode": {
    "object": "0x6080806040523461002857600d80546001600160a01b03191630179055610fbf908161002e8239f35b600080fdfe6080604052600436101561001257600080fd5b6000803560e01c806303c97fbf14610915578063150b7a021461089057806373673d1d1461077e578063800244931461062e57806387f77130146102225763afe3abf51461005f57600080fd5b346101f557606090816003193601126101f557600435906024359060443591838252602092600684526100f58160018060a01b036100aa8582600260408a2001541630903390610d22565b878652600687526100c682303384600360408c20015416610d22565b878652600687526100e08582600260408a20015416610e8d565b87865260068752600360408720015416610e8d565b6040519460c0860186811067ffffffffffffffff82111761020c57604052855283850191825260408501908152858501838152608086019184835260a08701934285526040519763219f5d1760e01b89525160048901525160248801525160448701525160648601525160848501525160a4840152838360c4818473c36442b4a4522e871399cd717abdd847ab11fe885af19182156101ff5781938280946101b3575b50506001600160801b03604051941684528301526040820152f35b925080945085809294503d83116101f8575b6101cf81836109f2565b810103126101f557506101e182610a36565b604082840151930151909290913880610198565b80fd5b503d6101c5565b50604051903d90823e3d90fd5b634e487b7160e01b600052604160045260246000fd5b50346101f55760c03660031901126101f5576044358060020b9081810361062a576064359162ffffff8316809303610626576084356001600160a01b03811693908490036106215760a4356001600160a01b038116908190036106215784865260086020526040862081600052602052604060002082875260205260018060a01b03604087205416156105d057620d89e7198313806105c4575b1561057f576102cf600435608435610e8d565b6102dd60243560a435610e8d565b6103e8806102ea86610c03565b60020b0560020b840393627fffff91627fffff19968387138888121761056b5761031390610c03565b60020b0560020b01948512908513176105575760405194610160860186811067ffffffffffffffff82111761020c5760405285526020850152604084015260020b606083015260020b608082015260043560a082015260243560c08201528160e082015281610100820152306101208201524261014082015261014060405191634418b22b60e11b835260018060a01b03815116600484015260018060a01b03602082015116602484015262ffffff6040820151166044840152606081015160020b6064840152608081015160020b608484015260a081015160a484015260c081015160c484015260e081015160e484015261010081015161010484015260018060a01b03610120820151166101248401520151610144820152608081610164818573c36442b4a4522e871399cd717abdd847ab11fe885af1801561054c57829183809181936104e8575b50506001600160801b036080946104758533610a4a565b60043583106104c9575b60243584106104a1575b60405194855216602084015260408301526060820152f35b6104ac608435610f45565b6104c46104bb85602435610c2d565b3360a435610de1565b610489565b6104d4608435610f45565b6104e36104bb84600435610c2d565b61047f565b9350935050506080813d608011610544575b81610507608093836109f2565b81010312610540576080915080519061052260208201610a36565b916001600160801b036060604084015193015191939291929461045e565b5080fd5b3d91506104fa565b6040513d84823e3d90fd5b634e487b7160e01b86526011600452602486fd5b634e487b7160e01b8a52601160045260248afd5b60405162461bcd60e51b815260206004820152601c60248201527f506f6f6c436f6e74726f6c6c65723a20496e76616c6964207469636b000000006044820152606490fd5b50620d89e883126102bc565b60405162461bcd60e51b815260206004820152602360248201527f506f6f6c436f6e74726f6c6c65723a20506f6f6c20646f6573206e6f742065786044820152621a5cdd60ea1b6064820152608490fd5b600080fd5b8380fd5b8280fd5b50346101f55760203660031901126101f55760043590818152600660205261066d60018060a01b03806040842054163314908115610771575b50610c8e565b81815260066020526001600160801b0391826001604084200154166040519360a0850185811067ffffffffffffffff82111761020c5760405282855260208501918252604085018481526060860191858352608087019342855260405197630624e65f60e11b89525160048901525116602487015251604486015251606485015251608484015260408360a4818573c36442b4a4522e871399cd717abdd847ab11fe885af190811561054c57604093839261073b575b50818361072f92610c50565b82519182526020820152f35b61076191935061072f9250843d861161076a575b61075981836109f2565b810190610c3a565b91909290610723565b503d61074f565b9050825416331438610667565b50346101f55760203660031901126101f55773c36442b4a4522e871399cd717abdd847ab11fe8890600435823b1561054057604051632142170760e11b815233600482015230602482015260448101829052828160648183885af1801561088557908391610871575b5050604080516107f6816109d6565b82815230602082019081526001600160801b0383830181815260608401828152855163fc6f786560e01b81529451600486015292516001600160a01b0316602485015251811660448401529051166064820152938490608490829086905af190811561054c57604093839261073b5750818361072f92610c50565b61087a906109c2565b6105405781386107e7565b6040513d85823e3d90fd5b50346101f55760803660031901126101f5576004356001600160a01b03808216820361062157602435908116036106215760643567ffffffffffffffff80821161062657366023830112156106265781600401359081116106265736910160240111610540576109039060443590610a4a565b604051630a85bd0160e11b8152602090f35b50346101f55760203660031901126101f55760043590818152600660205260018060a01b0361094b816040842054163314610c8e565b60045416803b1561054057604051632142170760e11b8152306004820152336024820152604481018490529082908290606490829084905af1801561054c576109b3575b50908152600660205280600360408220828155826001820155826002820155015580f35b6109bc906109c2565b3861098f565b67ffffffffffffffff811161020c57604052565b6080810190811067ffffffffffffffff82111761020c57604052565b90601f8019910116810190811067ffffffffffffffff82111761020c57604052565b51906001600160a01b038216820361062157565b51908160020b820361062157565b51906001600160801b038216820361062157565b6040805163133f757160e31b815260048101849052610180939290848160248173c36442b4a4522e871399cd717abdd847ab11fe885afa938415610bf85760009182968396610b31575b50509060039291845192610aa7846109d6565b60018060a01b039586809216855260208501926001600160801b038099168452828287019516855282606087019a168a526000526006602052600020935116956bffffffffffffffffffffffff60a01b9687855416178455600184019151166001600160801b03198254161790558360028301915116858254161790550192511690825416179055565b819750809296503d8311610bf1575b610b4a81836109f2565b810103126101f55784516bffffffffffffffffffffffff8116036101f557610b7460208601610a14565b50610b80838601610a14565b610b8c60608701610a14565b91608087015162ffffff8116036101f557509060039291610baf60a08801610a28565b50610bbc60c08801610a28565b50610be4610160610bcf60e08a01610a36565b98610bdd6101408201610a36565b5001610a36565b5090959490919238610a94565b503d610b40565b83513d6000823e3d90fd5b60020b600a02908160020b918203610c1757565b634e487b7160e01b600052601160045260246000fd5b91908203918211610c1757565b9190826040910312610621576020825192015190565b90610c8c929160005260066020526040600020610c8760018060a01b03928383541684600382966002870154169501541693610de1565b610de1565b565b15610c9557565b60405162461bcd60e51b815260206004820152600d60248201526c2737ba103a34329037bbb732b960991b6044820152606490fd5b3d15610d05573d9067ffffffffffffffff821161020c5760405191610cf9601f8201601f1916602001846109f2565b82523d6000602084013e565b606090565b90816020910312610621575180151581036106215790565b6040516323b872dd60e01b602082019081526001600160a01b039384166024830152939092166044830152606480830194909452928152600092839290918390610d6d6084826109f2565b51925af1610d79610cca565b81610db2575b5015610d8757565b60405162461bcd60e51b815260206004820152600360248201526229aa2360e91b6044820152606490fd5b8051801592508215610dc7575b505038610d7f565b610dda9250602080918301019101610d0a565b3880610dbf565b6000929183809360405190602082019363a9059cbb60e01b855260018060a01b03166024830152604482015260448152610e1a816109d6565b51925af1610e26610cca565b81610e5e575b5015610e3457565b60405162461bcd60e51b815260206004820152600260248201526114d560f21b6044820152606490fd5b8051801592508215610e73575b505038610e2c565b610e869250602080918301019101610d0a565b3880610e6b565b60009190829182604051602081019263095ea7b360e01b845273c36442b4a4522e871399cd717abdd847ab11fe886024830152604482015260448152610ed2816109d6565b51925af1610ede610cca565b81610f16575b5015610eec57565b60405162461bcd60e51b8152602060048201526002602482015261534160f01b6044820152606490fd5b8051801592508215610f2b575b505038610ee4565b610f3e9250602080918301019101610d0a565b3880610f23565b6000809160405182602082019163095ea7b360e01b835273c36442b4a4522e871399cd717abdd847ab11fe88602482015281604482015260448152610ed2816109d656fea2646970667358221220002d98d5dab192fdb11219dba6182121db8616d08fcf2f0fe9d6319784ed15d264736f6c63430008130033",
    "linkReferences": {}
  },
  "methodIdentifiers": {
    "collectAllFeesXinfin(uint256)": "73673d1d",
    "decreaseAllLiquidity(uint256)": "80024493",
    "increaseLiquidityCurrentRangeXinfin(uint256,uint256,uint256)": "afe3abf5",
    "mintNewPosXinfin(uint256,uint256,int24,uint24,address,address)": "87f77130",
    "onERC721Received(address,address,uint256,bytes)": "150b7a02",
    "retrieveNFTXinfin(uint256)": "03c97fbf"
  },
  "id": 7
}