{
  "abi": [
    {
      "inputs": [
        {
          "internalType": "uint256",
          "name": "tokenId",
          "type": "uint256"
        }
      ],
      "name": "collectAllFeesXinfin",
      "outputs": [
        {
          "internalType": "uint256",
          "name": "amount0",
          "type": "uint256"
        },
        {
          "internalType": "uint256",
          "name": "amount1",
          "type": "uint256"
        }
      ],
      "stateMutability": "nonpayable",
      "type": "function"
    },
    {
      "inputs": [
        {
          "internalType": "uint256",
          "name": "tokenId",
          "type": "uint256"
        }
      ],
      "name": "decreaseAllLiquidity",
      "outputs": [
        {
          "internalType": "uint256",
          "name": "amount0",
          "type": "uint256"
        },
        {
          "internalType": "uint256",
          "name": "amount1",
          "type": "uint256"
        }
      ],
      "stateMutability": "nonpayable",
      "type": "function"
    },
    {
      "inputs": [
        {
          "internalType": "uint256",
          "name": "tokenId",
          "type": "uint256"
        },
        {
          "internalType": "uint256",
          "name": "amountAdd0",
          "type": "uint256"
        },
        {
          "internalType": "uint256",
          "name": "amountAdd1",
          "type": "uint256"
        }
      ],
      "name": "increaseLiquidityCurrentRangeXinfin",
      "outputs": [
        {
          "internalType": "uint128",
          "name": "liquidity",
          "type": "uint128"
        },
        {
          "internalType": "uint256",
          "name": "amount0",
          "type": "uint256"
        },
        {
          "internalType": "uint256",
          "name": "amount1",
          "type": "uint256"
        }
      ],
      "stateMutability": "nonpayable",
      "type": "function"
    },
    {
      "inputs": [
        {
          "internalType": "address",
          "name": "operator",
          "type": "address"
        },
        {
          "internalType": "address",
          "name": "",
          "type": "address"
        },
        {
          "internalType": "uint256",
          "name": "tokenId",
          "type": "uint256"
        },
        {
          "internalType": "bytes",
          "name": "",
          "type": "bytes"
        }
      ],
      "name": "onERC721Received",
      "outputs": [
        {
          "internalType": "bytes4",
          "name": "",
          "type": "bytes4"
        }
      ],
      "stateMutability": "nonpayable",
      "type": "function"
    },
    {
      "inputs": [
        {
          "internalType": "uint256",
          "name": "tokenId",
          "type": "uint256"
        }
      ],
      "name": "retrieveNFTXinfin",
      "outputs": [],
      "stateMutability": "nonpayable",
      "type": "function"
    }
  ],
  "bytecode": {
    "object": "0x608060405234801561001057600080fd5b50600d80546001600160a01b03191630179055610d42806100326000396000f3fe608060405234801561001057600080fd5b50600436106100575760003560e01c806303c97fbf1461005c578063150b7a021461007157806373673d1d146100a257806380024493146100ca578063afe3abf5146100dd575b600080fd5b61006f61006a366004610afb565b610115565b005b61008461007f366004610b2c565b610223565b6040516001600160e01b031990911681526020015b60405180910390f35b6100b56100b0366004610afb565b610241565b60408051928352602083019190915201610099565b6100b56100d8366004610afb565b61038e565b6100f06100eb366004610bcb565b6104f0565b604080516001600160801b039094168452602084019290925290820152606001610099565b6000818152600660205260409020546001600160a01b031633146101705760405162461bcd60e51b815260206004820152600d60248201526c2737ba103a34329037bbb732b960991b60448201526064015b60405180910390fd5b60048054604051632142170760e11b81523092810192909252336024830152604482018390526001600160a01b0316906342842e0e90606401600060405180830381600087803b1580156101c357600080fd5b505af11580156101d7573d6000803e3d6000fd5b50505060009182525060066020526040902080546001600160a01b031990811682556001820180546001600160801b031916905560028201805482169055600390910180549091169055565b600061022f8685610690565b50630a85bd0160e11b95945050505050565b604051632142170760e11b815233600482015230602482015260448101829052600090819073c36442b4a4522e871399cd717abdd847ab11fe88906342842e0e90606401600060405180830381600087803b15801561029f57600080fd5b505af11580156102b3573d6000803e3d6000fd5b50506040805160808101825286815230602082019081526001600160801b0382840181815260608401828152945163fc6f786560e01b81528451600482015292516001600160a01b03166024840152518116604483015292519092166064830152925073c36442b4a4522e871399cd717abdd847ab11fe88915063fc6f78659060840160408051808303816000875af1158015610354573d6000803e3d6000fd5b505050506040513d601f19601f820116820180604052508101906103789190610bf7565b90935091506103888484846107b7565b50915091565b60008181526006602052604081205481906001600160a01b03163314806103bf57506000546001600160a01b031633145b6103fb5760405162461bcd60e51b815260206004820152600d60248201526c2737ba103a34329037bbb732b960991b6044820152606401610167565b600083815260066020908152604080832060010154815160a0810183528781526001600160801b039182169381018481528184018681526060830196875242608084019081529451630624e65f60e11b815283516004820152915190931660248201529151604483015293516064820152905160848201529091829173c36442b4a4522e871399cd717abdd847ab11fe8890630c49ccbe9060a40160408051808303816000875af11580156104b4573d6000803e3d6000fd5b505050506040513d601f19601f820116820180604052508101906104d89190610bf7565b90955093506104e88686866107b7565b505050915091565b6000838152600660205260408120600201548190819061051b906001600160a01b0316333088610800565b600086815260066020526040902060030154610542906001600160a01b0316333087610800565b60008681526006602052604090206002015461057c906001600160a01b031673c36442b4a4522e871399cd717abdd847ab11fe8887610902565b6000868152600660205260409020600301546105b6906001600160a01b031673c36442b4a4522e871399cd717abdd847ab11fe8886610902565b6040805160c08101825287815260208101878152818301878152600060608401818152608085019182524260a08601908152955163219f5d1760e01b815285516004820152935160248501529151604484015290516064830152516084820152915160a48301529073c36442b4a4522e871399cd717abdd847ab11fe889063219f5d179060c4016060604051808303816000875af115801561065c573d6000803e3d6000fd5b505050506040513d601f19601f820116820180604052508101906106809190610c37565b9199909850909650945050505050565b60405163256b9f3960e01b8152600481018290526000908190819073c36442b4a4522e871399cd717abdd847ab11fe889063256b9f3990602401606060405180830381865afa1580156106e7573d6000803e3d6000fd5b505050506040513d601f19601f8201168201806040525081019061070b9190610c6c565b604080516080810182526001600160a01b03998a1681526001600160801b039283166020808301918252958b16828401908152948b166060830190815260009a8b5260069096529190982097518854908a166001600160a01b03199182161789559051600189018054919093166001600160801b031990911617909155905160028701805491891691831691909117905590516003909501805495909616941693909317909355505050565b6000838152600660205260409020805460028201546003909201546001600160a01b0391821692821691166107ed828487610a02565b6107f8818486610a02565b505050505050565b604080516001600160a01b0385811660248301528481166044830152606480830185905283518084039091018152608490920183526020820180516001600160e01b03166323b872dd60e01b17905291516000928392908816916108649190610cb4565b6000604051808303816000865af19150503d80600081146108a1576040519150601f19603f3d011682016040523d82523d6000602084013e6108a6565b606091505b50915091508180156108d05750805115806108d05750808060200190518101906108d09190610ce3565b6107f85760405162461bcd60e51b815260206004820152600360248201526229aa2360e91b6044820152606401610167565b604080516001600160a01b038481166024830152604480830185905283518084039091018152606490920183526020820180516001600160e01b031663095ea7b360e01b179052915160009283929087169161095e9190610cb4565b6000604051808303816000865af19150503d806000811461099b576040519150601f19603f3d011682016040523d82523d6000602084013e6109a0565b606091505b50915091508180156109ca5750805115806109ca5750808060200190518101906109ca9190610ce3565b6109fb5760405162461bcd60e51b8152602060048201526002602482015261534160f01b6044820152606401610167565b5050505050565b604080516001600160a01b038481166024830152604480830185905283518084039091018152606490920183526020820180516001600160e01b031663a9059cbb60e01b1790529151600092839290871691610a5e9190610cb4565b6000604051808303816000865af19150503d8060008114610a9b576040519150601f19603f3d011682016040523d82523d6000602084013e610aa0565b606091505b5091509150818015610aca575080511580610aca575080806020019051810190610aca9190610ce3565b6109fb5760405162461bcd60e51b815260206004820152600260248201526114d560f21b6044820152606401610167565b600060208284031215610b0d57600080fd5b5035919050565b6001600160a01b0381168114610b2957600080fd5b50565b600080600080600060808688031215610b4457600080fd5b8535610b4f81610b14565b94506020860135610b5f81610b14565b935060408601359250606086013567ffffffffffffffff80821115610b8357600080fd5b818801915088601f830112610b9757600080fd5b813581811115610ba657600080fd5b896020828501011115610bb857600080fd5b9699959850939650602001949392505050565b600080600060608486031215610be057600080fd5b505081359360208301359350604090920135919050565b60008060408385031215610c0a57600080fd5b505080516020909101519092909150565b80516001600160801b0381168114610c3257600080fd5b919050565b600080600060608486031215610c4c57600080fd5b610c5584610c1b565b925060208401519150604084015190509250925092565b600080600060608486031215610c8157600080fd5b8351610c8c81610b14565b6020850151909350610c9d81610b14565b9150610cab60408501610c1b565b90509250925092565b6000825160005b81811015610cd55760208186018101518583015201610cbb565b506000920191825250919050565b600060208284031215610cf557600080fd5b81518015158114610d0557600080fd5b939250505056fea264697066735822122051cffbce92fc4f940bdf56eef9e14aa5db70706ad1a79bb0ac0c28e1e2c513a864736f6c63430008130033",
    "linkReferences": {}
  },
  "methodIdentifiers": {
    "collectAllFeesXinfin(uint256)": "73673d1d",
    "decreaseAllLiquidity(uint256)": "80024493",
    "increaseLiquidityCurrentRangeXinfin(uint256,uint256,uint256)": "afe3abf5",
    "onERC721Received(address,address,uint256,bytes)": "150b7a02",
    "retrieveNFTXinfin(uint256)": "03c97fbf"
  },
  "id": 7
}