{
  "abi": [
    {
      "inputs": [
        {
          "internalType": "bytes4",
          "name": "_functionSelector",
          "type": "bytes4"
        }
      ],
      "name": "facetAddress",
      "outputs": [
        {
          "internalType": "address",
          "name": "facetAddress_",
          "type": "address"
        }
      ],
      "stateMutability": "view",
      "type": "function"
    },
    {
      "inputs": [],
      "name": "facetAddresses",
      "outputs": [
        {
          "internalType": "address[]",
          "name": "facetAddresses_",
          "type": "address[]"
        }
      ],
      "stateMutability": "view",
      "type": "function"
    },
    {
      "inputs": [
        {
          "internalType": "address",
          "name": "_facet",
          "type": "address"
        }
      ],
      "name": "facetFunctionSelectors",
      "outputs": [
        {
          "internalType": "bytes4[]",
          "name": "_facetFunctionSelectors",
          "type": "bytes4[]"
        }
      ],
      "stateMutability": "view",
      "type": "function"
    },
    {
      "inputs": [],
      "name": "facets",
      "outputs": [
        {
          "components": [
            {
              "internalType": "address",
              "name": "facetAddress",
              "type": "address"
            },
            {
              "internalType": "bytes4[]",
              "name": "functionSelectors",
              "type": "bytes4[]"
            }
          ],
          "internalType": "struct IDiamondLoupe.Facet[]",
          "name": "facets_",
          "type": "tuple[]"
        }
      ],
      "stateMutability": "view",
      "type": "function"
    }
  ],
  "bytecode": {
    "object": "0x608060405234801561001057600080fd5b50610af4806100206000396000f3fe608060405234801561001057600080fd5b506004361061004c5760003560e01c806352ef6b2c146100515780637a0ed6271461006f578063adfca15e14610084578063cdffacc6146100a4575b600080fd5b6100596100f6565b60405161006691906108a8565b60405180910390f35b6100776102bb565b604051610066919061093a565b6100976100923660046109b7565b610736565b60405161006691906109e7565b6100de6100b23660046109fa565b6001600160e01b0319166000908152600080516020610a9f833981519152602052604090205460601c90565b6040516001600160a01b039091168152602001610066565b7fc8fcad8db84d3cc18b4c41d551ea0ee66dd599cde068d998e57d5e09332c131f54606090600080516020610a9f8339815191529061ffff1667ffffffffffffffff81111561014757610147610a24565b604051908082528060200260200182016040528015610170578160200160208202803683370190505b50915060008060005b600384015461ffff168210156102b3576000818152600185016020526040812054905b600881101561029e57836101af81610a50565b600388015490955061ffff168511905061029e57600581901b82901b6001600160e01b0319811660009081526020889052604081205460601c90805b88811015610240578a818151811061020557610205610a69565b60200260200101516001600160a01b0316836001600160a01b03160361022e5760019150610240565b8061023881610a50565b9150506101eb565b508015610250575061028c915050565b818a898151811061026357610263610a69565b6001600160a01b03909216602092830291909101909101528761028581610a50565b9850505050505b8061029681610a50565b91505061019c565b505080806102ab90610a50565b915050610179565b505082525090565b7fc8fcad8db84d3cc18b4c41d551ea0ee66dd599cde068d998e57d5e09332c131f54606090600080516020610a9f8339815191529061ffff1667ffffffffffffffff81111561030c5761030c610a24565b60405190808252806020026020018201604052801561035257816020015b60408051808201909152600081526060602082015281526020019060019003908161032a5790505b50600382015490925060009061ffff1667ffffffffffffffff81111561037a5761037a610a24565b6040519080825280602002602001820160405280156103a3578160200160208202803683370190505b50905060008060005b600385015461ffff168210156106c4576000818152600186016020526040812054905b60088110156106af57836103e281610a50565b600389015490955061ffff16851190506106af57600581901b82901b6001600160e01b0319811660009081526020899052604081205460601c90805b8881101561056c57826001600160a01b03168c828151811061044257610442610a69565b6020026020010151600001516001600160a01b03160361055a57838c828151811061046f5761046f610a69565b6020026020010151602001518b838151811061048d5761048d610a69565b602002602001015160ff16815181106104a8576104a8610a69565b60200260200101906001600160e01b03191690816001600160e01b0319168152505060ff8a82815181106104de576104de610a69565b602002602001015160ff16106105245760405162461bcd60e51b81526020600482015260076024820152661f191a9b10333760c91b604482015260640160405180910390fd5b89818151811061053657610536610a69565b60200260200101805180919061054b90610a7f565b60ff169052506001915061056c565b8061056481610a50565b91505061041e565b50801561057c575061069d915050565b818b898151811061058f5761058f610a69565b60209081029190910101516001600160a01b03909116905260038a015461ffff1667ffffffffffffffff8111156105c8576105c8610a24565b6040519080825280602002602001820160405280156105f1578160200160208202803683370190505b508b898151811061060457610604610a69565b602002602001015160200181905250828b898151811061062657610626610a69565b60200260200101516020015160008151811061064457610644610a69565b60200260200101906001600160e01b03191690816001600160e01b03191681525050600189898151811061067a5761067a610a69565b60ff909216602092830291909101909101528761069681610a50565b9850505050505b806106a781610a50565b9150506103cf565b505080806106bc90610a50565b9150506103ac565b5060005b8281101561072b5760008482815181106106e4576106e4610a69565b602002602001015160ff169050600087838151811061070557610705610a69565b60200260200101516020015190508181525050808061072390610a50565b9150506106c8565b508185525050505090565b7fc8fcad8db84d3cc18b4c41d551ea0ee66dd599cde068d998e57d5e09332c131f54606090600080516020610a9f8339815191529060009061ffff1667ffffffffffffffff81111561078a5761078a610a24565b6040519080825280602002602001820160405280156107b3578160200160208202803683370190505b5092506000805b600384015461ffff1682101561089e576000818152600185016020526040812054905b600881101561088957836107f081610a50565b600388015490955061ffff168511905061088957600581901b82901b6001600160e01b0319811660009081526020889052604090205460601c6001600160a01b038a16819003610874578189888151811061084d5761084d610a69565b6001600160e01b0319909216602092830291909101909101528661087081610a50565b9750505b5050808061088190610a50565b9150506107dd565b5050808061089690610a50565b9150506107ba565b5050825250919050565b6020808252825182820181905260009190848201906040850190845b818110156108e95783516001600160a01b0316835292840192918401916001016108c4565b50909695505050505050565b600081518084526020808501945080840160005b8381101561092f5781516001600160e01b03191687529582019590820190600101610909565b509495945050505050565b60006020808301818452808551808352604092508286019150828160051b87010184880160005b838110156109a957888303603f19018552815180516001600160a01b03168452870151878401879052610996878501826108f5565b9588019593505090860190600101610961565b509098975050505050505050565b6000602082840312156109c957600080fd5b81356001600160a01b03811681146109e057600080fd5b9392505050565b6020815260006109e060208301846108f5565b600060208284031215610a0c57600080fd5b81356001600160e01b0319811681146109e057600080fd5b634e487b7160e01b600052604160045260246000fd5b634e487b7160e01b600052601160045260246000fd5b600060018201610a6257610a62610a3a565b5060010190565b634e487b7160e01b600052603260045260246000fd5b600060ff821660ff8103610a9557610a95610a3a565b6001019291505056fec8fcad8db84d3cc18b4c41d551ea0ee66dd599cde068d998e57d5e09332c131ca26469706673582212202f5da0ab161f8bc01b7884e8deb5d15154ae73a7c082cdf241d5a92e106ca6c464736f6c63430008130033",
    "linkReferences": {}
  },
  "methodIdentifiers": {
    "facetAddress(bytes4)": "cdffacc6",
    "facetAddresses()": "52ef6b2c",
    "facetFunctionSelectors(address)": "adfca15e",
    "facets()": "7a0ed627"
  },
  "id": 2
}