{
  "abi": [
    {
      "inputs": [
        {
          "internalType": "bytes4",
          "name": "_functionSelector",
          "type": "bytes4"
        }
      ],
      "name": "facetAddress",
      "outputs": [
        {
          "internalType": "address",
          "name": "facetAddress_",
          "type": "address"
        }
      ],
      "stateMutability": "view",
      "type": "function"
    },
    {
      "inputs": [],
      "name": "facetAddresses",
      "outputs": [
        {
          "internalType": "address[]",
          "name": "facetAddresses_",
          "type": "address[]"
        }
      ],
      "stateMutability": "view",
      "type": "function"
    },
    {
      "inputs": [
        {
          "internalType": "address",
          "name": "_facet",
          "type": "address"
        }
      ],
      "name": "facetFunctionSelectors",
      "outputs": [
        {
          "internalType": "bytes4[]",
          "name": "_facetFunctionSelectors",
          "type": "bytes4[]"
        }
      ],
      "stateMutability": "view",
      "type": "function"
    },
    {
      "inputs": [],
      "name": "facets",
      "outputs": [
        {
          "components": [
            {
              "internalType": "address",
              "name": "facetAddress",
              "type": "address"
            },
            {
              "internalType": "bytes4[]",
              "name": "functionSelectors",
              "type": "bytes4[]"
            }
          ],
          "internalType": "struct IDiamondLoupe.Facet[]",
          "name": "facets_",
          "type": "tuple[]"
        }
      ],
      "stateMutability": "view",
      "type": "function"
    }
  ],
  "bytecode": {
    "object": "0x6080806040523461001657610986908161001c8239f35b600080fdfe6080604052600436101561001257600080fd5b6000803560e01c90816352ef6b2c1461005a575080637a0ed62714610055578063adfca15e146100505763cdffacc61461004b57600080fd5b610745565b6105f3565b610321565b346102205780600319360112610220576100a06100997fc8fcad8db84d3cc18b4c41d551ea0ee66dd599cde068d998e57d5e09332c131f5461ffff1690565b61ffff1690565b906100aa82610843565b908080815b8582106100cb57838552604051806100c78782610223565b0390f35b6100fe816000527fc8fcad8db84d3cc18b4c41d551ea0ee66dd599cde068d998e57d5e09332c131d602052604060002090565b5483905b6008821061011b575b505061011690610881565b6100af565b91959396909261012a90610881565b948186116102135761016861016261014f63ffffffff60e01b868860051b1b16610895565b546bffffffffffffffffffffffff191690565b60601c90565b886001600160a01b038216815b8481106101ca575b50506101bf57816101a76101ac926101986101b2958a6108f5565b6001600160a01b039091169052565b610881565b93610881565b9096939591949294610102565b50926101b290610881565b6101f36101e76101da838c6108f5565b516001600160a01b031690565b6001600160a01b031690565b82146102075761020290610881565b610175565b50505060018a8061017d565b949281979496925061010b565b80fd5b6020908160408183019282815285518094520193019160005b82811061024a575050505090565b83516001600160a01b03168552938101939281019260010161023c565b90815180825260208080930193019160005b828110610287575050505090565b83516001600160e01b03191685529381019392810192600101610279565b602080820190808352835180925260409283810182858560051b8401019601946000925b8584106102da575050505050505090565b909192939495968580610310600193603f1986820301885286838d51878060a01b03815116845201519181858201520190610267565b9901940194019295949391906102c9565b346105da57600080600319360112610220576103626100997fc8fcad8db84d3cc18b4c41d551ea0ee66dd599cde068d998e57d5e09332c131f5461ffff1690565b61036b816107da565b9061037581610843565b92809181825b8282106103d9575050505b81811061039e57818352604051806100c785826102a5565b806103bf6103b96103b26103d494886108f5565b5160ff1690565b60ff1690565b60206103cb83876108f5565b51015152610881565b610386565b61040c816000527fc8fcad8db84d3cc18b4c41d551ea0ee66dd599cde068d998e57d5e09332c131d602052604060002090565b5484905b60088210610429575b505061042490610881565b61037b565b909391969261043a90989598610881565b958287116105cd5763ffffffff60e01b828660051b1b1661046061016261014f83610895565b8a6001600160a01b038216815b858110610517575b505061050b57916104e36104f6926104a46104fc95610494858b6108f5565b516001600160a01b039091169052565b6104d36104b088610843565b602090816104be878d6108f5565b5101526104cb858b6108f5565b5101516108e3565b6001600160e01b03199091169052565b6101a76104f0828a6108f5565b60019052565b94610881565b90979497969193959296610410565b5050936104fc90610881565b8a858a846105396101e761052b87856108f5565b51516001600160a01b031690565b1461054f5750505061054a90610881565b61046d565b6105c49550838095506105b5936105916105b0946104d360206105786105bc9a6103b2986108f5565b51015161058b6103b96103b288886108f5565b906108f5565b6105ab60ff806105a46103b286866108f5565b1610610909565b6108f5565b61093f565b918b6108f5565b9060ff169052565b60013880610475565b9592969193979497610419565b600080fd5b9060206105f0928181520190610267565b90565b346105da5760203660031901126105da576004356001600160a01b038116908190036105da5760009061064b6100997fc8fcad8db84d3cc18b4c41d551ea0ee66dd599cde068d998e57d5e09332c131f5461ffff1690565b9161065583610843565b918190825b85831061067257838552604051806100c787826105df565b6106a5816000527fc8fcad8db84d3cc18b4c41d551ea0ee66dd599cde068d998e57d5e09332c131d602052604060002090565b546000905b600882106106c3575b50506106be90610881565b61065a565b919690959294936106d390610881565b958187116107375763ffffffff60e01b838260051b1b166106fc6101e761016261014f84610895565b871461071a575b5061070d90610881565b90969195939492956106aa565b856101a7610730926104d361070d9599896108f5565b9490610703565b8197925095939492956106b3565b346105da5760203660031901126105da576004356001600160e01b0319811681036105da57610775602091610895565b5460601c604051908152f35b634e487b7160e01b600052604160045260246000fd5b6040519190601f01601f1916820167ffffffffffffffff8111838210176107bd57604052565b610781565b67ffffffffffffffff81116107bd5760051b60200190565b906107ec6107e7836107c2565b610797565b82815280926107fd601f19916107c2565b016000805b82811061080f5750505050565b604090815182810181811067ffffffffffffffff8211176107bd576020935283815282606081830152828701015201610802565b906108506107e7836107c2565b8281528092610861601f19916107c2565b0190602036910137565b634e487b7160e01b600052601160045260246000fd5b60001981146108905760010190565b61086b565b63ffffffff60e01b166000527fc8fcad8db84d3cc18b4c41d551ea0ee66dd599cde068d998e57d5e09332c131c602052604060002090565b634e487b7160e01b600052603260045260246000fd5b8051156108f05760200190565b6108cd565b80518210156108f05760209160051b010190565b1561091057565b60405162461bcd60e51b81526020600482015260076024820152661f191a9b10333760c91b6044820152606490fd5b60ff1660ff8114610890576001019056fea26469706673582212207faf91d1920290784e7959cc23ab8abfa500ba48adf80341b6e7141c733587fb64736f6c63430008130033",
    "linkReferences": {}
  },
  "methodIdentifiers": {
    "facetAddress(bytes4)": "cdffacc6",
    "facetAddresses()": "52ef6b2c",
    "facetFunctionSelectors(address)": "adfca15e",
    "facets()": "7a0ed627"
  },
  "id": 2
}