{
  "abi": [
    {
      "inputs": [
        {
          "internalType": "uint256",
          "name": "tokenId",
          "type": "uint256"
        }
      ],
      "name": "collectAllFees",
      "outputs": [
        {
          "internalType": "uint256",
          "name": "amount0",
          "type": "uint256"
        },
        {
          "internalType": "uint256",
          "name": "amount1",
          "type": "uint256"
        }
      ],
      "stateMutability": "nonpayable",
      "type": "function"
    },
    {
      "inputs": [
        {
          "internalType": "uint256[]",
          "name": "tokenIds",
          "type": "uint256[]"
        }
      ],
      "name": "decreaseLiquidityInHalf",
      "outputs": [
        {
          "internalType": "uint256",
          "name": "amount0",
          "type": "uint256"
        },
        {
          "internalType": "uint256",
          "name": "amount1",
          "type": "uint256"
        }
      ],
      "stateMutability": "nonpayable",
      "type": "function"
    },
    {
      "inputs": [
        {
          "internalType": "uint256[]",
          "name": "tokenIds",
          "type": "uint256[]"
        },
        {
          "internalType": "uint256",
          "name": "amount",
          "type": "uint256"
        },
        {
          "internalType": "bool",
          "name": "isZeroToken",
          "type": "bool"
        }
      ],
      "name": "decreaseNecessaryLiquidity",
      "outputs": [
        {
          "internalType": "uint256",
          "name": "totalAmount0",
          "type": "uint256"
        },
        {
          "internalType": "uint256",
          "name": "totalAmount1",
          "type": "uint256"
        }
      ],
      "stateMutability": "nonpayable",
      "type": "function"
    },
    {
      "inputs": [
        {
          "internalType": "uint256",
          "name": "tokenId",
          "type": "uint256"
        },
        {
          "internalType": "uint256",
          "name": "amountAdd0",
          "type": "uint256"
        },
        {
          "internalType": "uint256",
          "name": "amountAdd1",
          "type": "uint256"
        }
      ],
      "name": "increaseLiquidityCurrentRange",
      "outputs": [
        {
          "internalType": "uint128",
          "name": "liquidity",
          "type": "uint128"
        },
        {
          "internalType": "uint256",
          "name": "amount0",
          "type": "uint256"
        },
        {
          "internalType": "uint256",
          "name": "amount1",
          "type": "uint256"
        }
      ],
      "stateMutability": "nonpayable",
      "type": "function"
    },
    {
      "inputs": [
        {
          "internalType": "uint256",
          "name": "amount0ToMint",
          "type": "uint256"
        },
        {
          "internalType": "uint256",
          "name": "amount1ToMint",
          "type": "uint256"
        },
        {
          "internalType": "int24",
          "name": "tickDesired",
          "type": "int24"
        },
        {
          "internalType": "uint24",
          "name": "poolFee",
          "type": "uint24"
        },
        {
          "internalType": "address",
          "name": "token0",
          "type": "address"
        },
        {
          "internalType": "address",
          "name": "token1",
          "type": "address"
        }
      ],
      "name": "mintNewPos",
      "outputs": [
        {
          "internalType": "uint256",
          "name": "tokenId",
          "type": "uint256"
        },
        {
          "internalType": "uint128",
          "name": "liquidity",
          "type": "uint128"
        },
        {
          "internalType": "uint256",
          "name": "amount0",
          "type": "uint256"
        },
        {
          "internalType": "uint256",
          "name": "amount1",
          "type": "uint256"
        }
      ],
      "stateMutability": "nonpayable",
      "type": "function"
    },
    {
      "inputs": [
        {
          "internalType": "address",
          "name": "operator",
          "type": "address"
        },
        {
          "internalType": "address",
          "name": "",
          "type": "address"
        },
        {
          "internalType": "uint256",
          "name": "tokenId",
          "type": "uint256"
        },
        {
          "internalType": "bytes",
          "name": "",
          "type": "bytes"
        }
      ],
      "name": "onERC721Received",
      "outputs": [
        {
          "internalType": "bytes4",
          "name": "",
          "type": "bytes4"
        }
      ],
      "stateMutability": "nonpayable",
      "type": "function"
    },
    {
      "inputs": [
        {
          "internalType": "uint256",
          "name": "tokenId",
          "type": "uint256"
        }
      ],
      "name": "retrieveNFT",
      "outputs": [],
      "stateMutability": "nonpayable",
      "type": "function"
    }
  ],
  "bytecode": {
    "object": "0x608060405234801561001057600080fd5b50600d80546001600160a01b0319163017905561174f806100326000396000f3fe608060405234801561001057600080fd5b506004361061007d5760003560e01c806346ce96dd1161005b57806346ce96dd146101035780634e94faea1461012b578063617d6d6e1461013e5780638f2f99fa1461017657600080fd5b80630a1d7c5f14610082578063150b7a02146100975780634321ab92146100c8575b600080fd5b61009561009036600461107b565b610189565b005b6100aa6100a53660046110ac565b610296565b6040516001600160e01b031990911681526020015b60405180910390f35b6100db6100d636600461114b565b6102b4565b604080519485526001600160801b0390931660208501529183015260608201526080016100bf565b61011661011136600461107b565b6105b1565b604080519283526020830191909152016100bf565b610116610139366004611288565b6106ea565b61015161014c3660046112e3565b610922565b604080516001600160801b0390941684526020840192909252908201526060016100bf565b61011661018436600461130f565b610a9d565b6000818152600560205260409020546001600160a01b031633146101e45760405162461bcd60e51b815260206004820152600d60248201526c2737ba103a34329037bbb732b960991b60448201526064015b60405180910390fd5b600254604051632142170760e11b8152306004820152336024820152604481018390526001600160a01b03909116906342842e0e90606401600060405180830381600087803b15801561023657600080fd5b505af115801561024a573d6000803e3d6000fd5b50505060009182525060056020526040902080546001600160a01b031990811682556001820180546001600160801b031916905560028201805482169055600390910180549091169055565b60006102a28685610c19565b50630a85bd0160e11b95945050505050565b6001600160a01b0382811660009081526008602090815260408083208585168452825280832062ffffff881684529091528120549091829182918291166103495760405162461bcd60e51b815260206004820152602360248201527f506f6f6c436f6e74726f6c6c65723a20506f6f6c20646f6573206e6f742065786044820152621a5cdd60ea1b60648201526084016101db565b620d89e719600289900b1380156103715750610368620d89e719611362565b60020b8860020b125b6103bd5760405162461bcd60e51b815260206004820152601c60248201527f506f6f6c436f6e74726f6c6c65723a20496e76616c6964207469636b0000000060448201526064016101db565b6002546103d59087906001600160a01b03168c610d37565b6002546103ed9086906001600160a01b03168b610d37565b6000604051806101600160405280886001600160a01b03168152602001876001600160a01b031681526020018962ffffff1681526020016103e88b600a6104349190611384565b61043e91906113c1565b610448908c6113fb565b60020b81526020016103e861045e8c600a611384565b61046891906113c1565b610472908c611426565b600290810b8252602082018e905260408083018e905260006060840181905260808401523060a08401524260c090930192909252549051634418b22b60e11b81529192506001600160a01b0316906388316456906104d490849060040161144b565b6080604051808303816000875af11580156104f3573d6000803e3d6000fd5b505050506040513d601f19601f82011682018060405250810190610517919061152b565b9297509095509350915061052b3386610c19565b8a8310156105675760025461054c9088906001600160a01b03166000610d37565b6000610558848d611567565b9050610565873383610e37565b505b898210156105a3576002546105889088906001600160a01b03166000610d37565b6000610594838c611567565b90506105a1873383610e37565b505b509650965096509692505050565b600254604051632142170760e11b81523360048201523060248201526044810183905260009182916001600160a01b03909116906342842e0e90606401600060405180830381600087803b15801561060857600080fd5b505af115801561061c573d6000803e3d6000fd5b50506040805160808101825286815230602082019081526001600160801b0382840181815260608401828152600254955163fc6f786560e01b81528551600482015293516001600160a01b0390811660248601529151831660448501525190911660648301529194509116915063fc6f78659060840160408051808303816000875af11580156106b0573d6000803e3d6000fd5b505050506040513d601f19601f820116820180604052508101906106d4919061157a565b90935091506106e4848484610f30565b50915091565b60008060005b855181101561079657600060050160008783815181106107125761071261159e565b6020908102919091018101518252810191909152604001600020546001600160a01b031633146107845760405162461bcd60e51b815260206004820152601d60248201527f4e6f7420746865206f776e6572206f6620616c6c20746f6b656e49647300000060448201526064016101db565b8061078e816115b4565b9150506106f0565b5060005b85518110156109195760008682815181106107b7576107b761159e565b6020908102919091018101516000818152600590925260408220600101549092506001600160801b0316906107ed6002836115cd565b6040805160a0810182528581526001600160801b03831660208201526000818301819052606082018190524260808301526002549251630624e65f60e11b81529394509092909182916001600160a01b0390911690630c49ccbe906108569086906004016115f3565b60408051808303816000875af1158015610874573d6000803e3d6000fd5b505050506040513d601f19601f82011682018060405250810190610898919061157a565b90925090506108a7828a611636565b98506108b38189611636565b97508980156108c257508a8910155b156108e1576108d38660008a610922565b505050505050505050610919565b891580156108ef57508a8810155b15610900576108d3868a6000610922565b5050505050508080610911906115b4565b91505061079a565b50935093915050565b6000838152600560205260408120600201548190819061094d906001600160a01b0316333088610f79565b600086815260056020526040902060030154610974906001600160a01b0316333087610f79565b600086815260056020526040902060029081015490546109a1916001600160a01b03908116911687610d37565b6000868152600560205260409020600301546002546109cd916001600160a01b03908116911686610d37565b6040805160c08101825287815260208101878152818301878152600060608401818152608085019182524260a08601908152600254965163219f5d1760e01b81528651600482015294516024860152925160448501525160648401525160848301525160a482015290916001600160a01b03169063219f5d179060c4016060604051808303816000875af1158015610a69573d6000803e3d6000fd5b505050506040513d601f19601f82011682018060405250810190610a8d9190611649565b9199909850909650945050505050565b80516000908190815b81811015610c12576000858281518110610ac257610ac261159e565b602090810291909101810151600081815260059092526040909120549091506001600160a01b03163314610b285760405162461bcd60e51b815260206004820152600d60248201526c2737ba103a34329037bbb732b960991b60448201526064016101db565b6000818152600560205260408120600101546001600160801b031690610b4f6002836115cd565b6040805160a0810182528581526001600160801b0383166020820152600081830181905260608201524260808201526002549151630624e65f60e11b8152929350916001600160a01b0390911690630c49ccbe90610bb19084906004016115f3565b60408051808303816000875af1158015610bcf573d6000803e3d6000fd5b505050506040513d601f19601f82011682018060405250810190610bf3919061157a565b9098509650610c03848989610f30565b84600101945050505050610aa6565b5050915091565b60025460405163256b9f3960e01b815260048101839052600091829182916001600160a01b03169063256b9f3990602401606060405180830381865afa158015610c67573d6000803e3d6000fd5b505050506040513d601f19601f82011682018060405250810190610c8b919061167e565b604080516080810182526001600160a01b03998a1681526001600160801b039283166020808301918252958b16828401908152948b166060830190815260009a8b5260059096529190982097518854908a166001600160a01b03199182161789559051600189018054919093166001600160801b031990911617909155905160028701805491891691831691909117905590516003909501805495909616941693909317909355505050565b604080516001600160a01b038481166024830152604480830185905283518084039091018152606490920183526020820180516001600160e01b031663095ea7b360e01b1790529151600092839290871691610d9391906116c6565b6000604051808303816000865af19150503d8060008114610dd0576040519150601f19603f3d011682016040523d82523d6000602084013e610dd5565b606091505b5091509150818015610dff575080511580610dff575080806020019051810190610dff91906116f5565b610e305760405162461bcd60e51b8152602060048201526002602482015261534160f01b60448201526064016101db565b5050505050565b604080516001600160a01b038481166024830152604480830185905283518084039091018152606490920183526020820180516001600160e01b031663a9059cbb60e01b1790529151600092839290871691610e9391906116c6565b6000604051808303816000865af19150503d8060008114610ed0576040519150601f19603f3d011682016040523d82523d6000602084013e610ed5565b606091505b5091509150818015610eff575080511580610eff575080806020019051810190610eff91906116f5565b610e305760405162461bcd60e51b815260206004820152600260248201526114d560f21b60448201526064016101db565b6000838152600560205260409020805460028201546003909201546001600160a01b039182169282169116610f66828487610e37565b610f71818486610e37565b505050505050565b604080516001600160a01b0385811660248301528481166044830152606480830185905283518084039091018152608490920183526020820180516001600160e01b03166323b872dd60e01b1790529151600092839290881691610fdd91906116c6565b6000604051808303816000865af19150503d806000811461101a576040519150601f19603f3d011682016040523d82523d6000602084013e61101f565b606091505b509150915081801561104957508051158061104957508080602001905181019061104991906116f5565b610f715760405162461bcd60e51b815260206004820152600360248201526229aa2360e91b60448201526064016101db565b60006020828403121561108d57600080fd5b5035919050565b6001600160a01b03811681146110a957600080fd5b50565b6000806000806000608086880312156110c457600080fd5b85356110cf81611094565b945060208601356110df81611094565b935060408601359250606086013567ffffffffffffffff8082111561110357600080fd5b818801915088601f83011261111757600080fd5b81358181111561112657600080fd5b89602082850101111561113857600080fd5b9699959850939650602001949392505050565b60008060008060008060c0878903121561116457600080fd5b863595506020870135945060408701358060020b811461118357600080fd5b9350606087013562ffffff8116811461119b57600080fd5b925060808701356111ab81611094565b915060a08701356111bb81611094565b809150509295509295509295565b634e487b7160e01b600052604160045260246000fd5b600082601f8301126111f057600080fd5b8135602067ffffffffffffffff8083111561120d5761120d6111c9565b8260051b604051601f19603f83011681018181108482111715611232576112326111c9565b60405293845285810183019383810192508785111561125057600080fd5b83870191505b8482101561126f57813583529183019190830190611256565b979650505050505050565b80151581146110a957600080fd5b60008060006060848603121561129d57600080fd5b833567ffffffffffffffff8111156112b457600080fd5b6112c0868287016111df565b9350506020840135915060408401356112d88161127a565b809150509250925092565b6000806000606084860312156112f857600080fd5b505081359360208301359350604090920135919050565b60006020828403121561132157600080fd5b813567ffffffffffffffff81111561133857600080fd5b611344848285016111df565b949350505050565b634e487b7160e01b600052601160045260246000fd5b60008160020b627fffff19810361137b5761137b61134c565b60000392915050565b60008260020b8260020b028060020b91508082146113a4576113a461134c565b5092915050565b634e487b7160e01b600052601260045260246000fd5b60008160020b8360020b806113d8576113d86113ab565b627fffff198214600019821416156113f2576113f261134c565b90059392505050565b600282810b9082900b03627fffff198112627fffff821317156114205761142061134c565b92915050565b600281810b9083900b01627fffff8113627fffff19821217156114205761142061134c565b81516001600160a01b031681526101608101602083015161147760208401826001600160a01b03169052565b50604083015161148e604084018262ffffff169052565b5060608301516114a3606084018260020b9052565b5060808301516114b8608084018260020b9052565b5060a083015160a083015260c083015160c083015260e083015160e0830152610100808401518184015250610120808401516114fe828501826001600160a01b03169052565b505061014092830151919092015290565b80516001600160801b038116811461152657600080fd5b919050565b6000806000806080858703121561154157600080fd5b845193506115516020860161150f565b6040860151606090960151949790965092505050565b818103818111156114205761142061134c565b6000806040838503121561158d57600080fd5b505080516020909101519092909150565b634e487b7160e01b600052603260045260246000fd5b6000600182016115c6576115c661134c565b5060010190565b60006001600160801b03808416806115e7576115e76113ab565b92169190910492915050565b600060a082019050825182526001600160801b03602084015116602083015260408301516040830152606083015160608301526080830151608083015292915050565b808201808211156114205761142061134c565b60008060006060848603121561165e57600080fd5b6116678461150f565b925060208401519150604084015190509250925092565b60008060006060848603121561169357600080fd5b835161169e81611094565b60208501519093506116af81611094565b91506116bd6040850161150f565b90509250925092565b6000825160005b818110156116e757602081860181015185830152016116cd565b506000920191825250919050565b60006020828403121561170757600080fd5b81516117128161127a565b939250505056fea2646970667358221220fd1b7e83da1f8dfb6c8588b03a84e88788800d0a8a02c495acfb0043cf74c9bc64736f6c63430008130033",
    "linkReferences": {}
  },
  "methodIdentifiers": {
    "collectAllFees(uint256)": "46ce96dd",
    "decreaseLiquidityInHalf(uint256[])": "8f2f99fa",
    "decreaseNecessaryLiquidity(uint256[],uint256,bool)": "4e94faea",
    "increaseLiquidityCurrentRange(uint256,uint256,uint256)": "617d6d6e",
    "mintNewPos(uint256,uint256,int24,uint24,address,address)": "4321ab92",
    "onERC721Received(address,address,uint256,bytes)": "150b7a02",
    "retrieveNFT(uint256)": "0a1d7c5f"
  },
  "id": 10
}