{
  "abi": [
    {
      "inputs": [
        {
          "internalType": "uint256",
          "name": "tokenId",
          "type": "uint256"
        }
      ],
      "name": "collectAllFees",
      "outputs": [
        {
          "internalType": "uint256",
          "name": "amount0",
          "type": "uint256"
        },
        {
          "internalType": "uint256",
          "name": "amount1",
          "type": "uint256"
        }
      ],
      "stateMutability": "nonpayable",
      "type": "function"
    },
    {
      "inputs": [
        {
          "internalType": "uint256[]",
          "name": "tokenIds",
          "type": "uint256[]"
        }
      ],
      "name": "decreaseLiquidityInHalf",
      "outputs": [
        {
          "internalType": "uint256",
          "name": "amount0",
          "type": "uint256"
        },
        {
          "internalType": "uint256",
          "name": "amount1",
          "type": "uint256"
        }
      ],
      "stateMutability": "nonpayable",
      "type": "function"
    },
    {
      "inputs": [
        {
          "internalType": "uint256[]",
          "name": "tokenIds",
          "type": "uint256[]"
        },
        {
          "internalType": "uint256",
          "name": "amount",
          "type": "uint256"
        },
        {
          "internalType": "bool",
          "name": "isZeroToken",
          "type": "bool"
        }
      ],
      "name": "decreaseNecessaryLiquidity",
      "outputs": [
        {
          "internalType": "uint256",
          "name": "totalAmount0",
          "type": "uint256"
        },
        {
          "internalType": "uint256",
          "name": "totalAmount1",
          "type": "uint256"
        }
      ],
      "stateMutability": "nonpayable",
      "type": "function"
    },
    {
      "inputs": [
        {
          "internalType": "uint256",
          "name": "tokenId",
          "type": "uint256"
        },
        {
          "internalType": "uint256",
          "name": "amountAdd0",
          "type": "uint256"
        },
        {
          "internalType": "uint256",
          "name": "amountAdd1",
          "type": "uint256"
        }
      ],
      "name": "increaseLiquidityCurrentRange",
      "outputs": [
        {
          "internalType": "uint128",
          "name": "liquidity",
          "type": "uint128"
        },
        {
          "internalType": "uint256",
          "name": "amount0",
          "type": "uint256"
        },
        {
          "internalType": "uint256",
          "name": "amount1",
          "type": "uint256"
        }
      ],
      "stateMutability": "nonpayable",
      "type": "function"
    },
    {
      "inputs": [
        {
          "internalType": "uint256",
          "name": "amount0ToMint",
          "type": "uint256"
        },
        {
          "internalType": "uint256",
          "name": "amount1ToMint",
          "type": "uint256"
        },
        {
          "internalType": "int24",
          "name": "tickDesired",
          "type": "int24"
        },
        {
          "internalType": "uint24",
          "name": "poolFee",
          "type": "uint24"
        },
        {
          "internalType": "address",
          "name": "token0",
          "type": "address"
        },
        {
          "internalType": "address",
          "name": "token1",
          "type": "address"
        }
      ],
      "name": "mintNewPos",
      "outputs": [
        {
          "internalType": "uint256",
          "name": "tokenId",
          "type": "uint256"
        },
        {
          "internalType": "uint128",
          "name": "liquidity",
          "type": "uint128"
        },
        {
          "internalType": "uint256",
          "name": "amount0",
          "type": "uint256"
        },
        {
          "internalType": "uint256",
          "name": "amount1",
          "type": "uint256"
        }
      ],
      "stateMutability": "nonpayable",
      "type": "function"
    },
    {
      "inputs": [
        {
          "internalType": "address",
          "name": "operator",
          "type": "address"
        },
        {
          "internalType": "address",
          "name": "",
          "type": "address"
        },
        {
          "internalType": "uint256",
          "name": "tokenId",
          "type": "uint256"
        },
        {
          "internalType": "bytes",
          "name": "",
          "type": "bytes"
        }
      ],
      "name": "onERC721Received",
      "outputs": [
        {
          "internalType": "bytes4",
          "name": "",
          "type": "bytes4"
        }
      ],
      "stateMutability": "nonpayable",
      "type": "function"
    },
    {
      "inputs": [
        {
          "internalType": "uint256",
          "name": "tokenId",
          "type": "uint256"
        }
      ],
      "name": "retrieveNFT",
      "outputs": [],
      "stateMutability": "nonpayable",
      "type": "function"
    }
  ],
  "bytecode": {
    "object": "0x6080806040523461002857600d80546001600160a01b03191630179055611627908161002e8239f35b600080fdfe6080604052600436101561001257600080fd5b6000803560e01c80630a1d7c5f14610e23578063150b7a0214610d9a5780634321ab921461093257806346ce96dd146107f65780634e94faea1461035f578063617d6d6e146101c757638f2f99fa1461006a57600080fd5b346101c4576020806003193601126101c05760043567ffffffffffffffff81116101bc5761009c903690600401610f5a565b82918391805185915b8183106100bb5760408686868351928352820152f35b909194508593506100cc858261123a565b519485855260059081855260018060a01b03916100f08360408920541633146111ef565b8787528552604061015360019360016001607f1b0385848b200154861c169083519161011b83610f00565b8b835289830152898483015289606083015242608083015260025416908351998a80948193630624e65f60e11b835260048301611264565b03925af180156101b1578896899161017c575b5080610174919780996112ae565b0191906100a5565b61017497506101a3915060403d6040116101aa575b61019b8183610f38565b8101906111d9565b9096610166565b503d610191565b6040513d8a823e3d90fd5b8280fd5b5080fd5b80fd5b50346101c457606090816003193601126101c4575060043560243582604435918360005260c460209460058652600060018060a01b036102148582600260408620015416309033906113fd565b82825260058852610230873033846003604088200154166113fd565b8282526005885261025085826002604086200154168360025416906115b2565b8282526005885261027087826003604086200154168360025416906115b2565b6040519261027d84610f1c565b835287830194855260408301968752858301908282526080840183815260a08501914283526002541692604051998a98899763219f5d1760e01b89525160048901525160248801525160448701525160648601525160848501525160a48401525af1908115610353576000928391849361030c575b506001600160801b03604051941684528301526040820152f35b8580929450819593503d831161034c575b6103278183610f38565b810103126101c4575061033982610fe3565b60408284015193015190929091386102f2565b503d61031d565b6040513d6000823e3d90fd5b50346101c457606090816003193601126101c45760043567ffffffffffffffff81116101c057610393903690600401610f5a565b6044908135801594851582036107f25784918591865b855181101561042c576103bc818761123a565b5188526005602090815260408920546001600160a01b031633036103e957506103e49061122b565b6103a9565b6064907f4e6f7420746865206f776e6572206f6620616c6c20746f6b656e496473000000896040519262461bcd60e51b84526004840152601d6024840152820152fd5b50868887959495825b88518110156107e257610448818a61123a565b519687855260059760209089825260016001607f1b0360018060408a200154901c16916040519261047884610f00565b82845281840152876040840152878984015242608084015260018060a01b03938860406104c160029688885416908351948580948193630624e65f60e11b835260048301611264565b03925af19081156107d7576104eb92918b9182916107b3575b506104e591926112a1565b9d6112a1565b9a8a806107a7575b61066c578780610660575b6105185750505050506105109061122b565b969596610435565b849d50899a508296949193985060c49750600095508c9061059c93875280855261054e82848c60408b20015416309033906113fd565b87875280855261058660039261056d3033878760408e20015416611344565b898952828752848c60408b20015416858d5416906115b2565b8787528452604086200154168c88541690611502565b604051936105a985610f1c565b8452830194898652604084019a838c52878501848152608086019185835260a08701934285525416936040519d8e998a9863219f5d1760e01b8a525160048a015251602489015251908701525160648601525160848501525160a48401525af1801561035357610626575b50604092505b82519182526020820152f35b83813d8311610659575b61063a8183610f38565b810103126106545761064d604093610fe3565b5083610614565b600080fd5b503d610630565b506024358c10156104fe565b849d50899a508b9193985060c4975060009550938296946106f09387528085526106a1828b60408a2001541630903390611344565b8787528085526003906106be843033868660408e200154166113fd565b8888528086526106da838c60408b20015416848d541690611502565b8888528552604087200154168d895416906115b2565b604051936106fd85610f1c565b8452830194828652604084019a898c52878501848152608086019185835260a08701934285525416936040519d8e998a9863219f5d1760e01b8a525160048a015251602489015251908701525160648601525160848501525160a48401525af1801561035357610772575b506040925061061a565b83813d83116107a0575b6107868183610f38565b8101031261065457610799604093610fe3565b5083610768565b503d61077c565b506024358d10156104f3565b6104e592506107d1915060403d6040116101aa5761019b8183610f38565b916104da565b6040513d8c823e3d90fd5b505050505050906040925061061a565b8480fd5b50346101c45760203660031901126101c4576002546001600160a01b039190600435908316803b156101bc57604051632142170760e11b8152336004820152306024820152604481018390529083908290606490829084905af1801561092757908391610913575b50506040805161086d81610ee4565b82815260846020820191308352858482016001600160801b0380825260608401818152818b600254169389519c8d998a9863fc6f786560e01b8a525160048a01525116602488015251166044860152511660648401525af19081156109085760409383926108e2575b50818361061a926112ae565b6108ff91935061061a9250843d86116101aa5761019b8183610f38565b919092906108d6565b6040513d84823e3d90fd5b61091c90610ed0565b6101c057813861085e565b6040513d85823e3d90fd5b50346101c45760c03660031901126101c45760443560020b604435036101c45760643562ffffff811681036101c0576084356001600160a01b03811690036106545760a4356001600160a01b0381169003610654576001600160a01b036084358116835260086020908152604080852060a4358416600090815290835281902062ffffff851686529091528320541615610d4957620d89e71960443560020b1380610d38575b15610cf3576002546109f990600435906001600160a01b03166084356115b2565b600254610a1590602435906001600160a01b031660a4356115b2565b6103e8610a236044356111a2565b60020b0560020b60443560020b03627fffff90818113627fffff19821217610cdf576103e8610a536044356111a2565b60020b0560020b60443560020b0191627fffff19831290831317610cdf57604051928361016081011067ffffffffffffffff61016086011117610cc95762ffffff90610160850160405260018060a01b0360843516855260018060a01b0360a43516602086015216604084015260020b606083015260020b608082015260043560a082015260243560c08201528160e0820152816101008201523061012082015242610140820152608061014061016460018060a01b036002541693856040519586948593634418b22b60e11b855260018060a01b03815116600486015260018060a01b03602082015116602486015262ffffff6040820151166044860152606081015160020b60648601528781015160020b608486015260a081015160a486015260c081015160c486015260e081015160e486015261010081015161010486015260018060a01b036101208201511661012486015201516101448401525af180156109085782918380918193610c69575b50506001600160801b03608094610bdc8533610ff7565b6004358310610c3d575b6024358410610c08575b60405194855216602084015260408301526060820152f35b600254610c20906001600160a01b0316608435611502565b610c38610c2f856024356111cc565b3360a435611450565b610bf0565b600254610c55906001600160a01b0316608435611502565b610c64610c2f846004356111cc565b610be6565b9350935050506080813d608011610cc1575b81610c8860809383610f38565b810103126101c05760809150805190610ca360208201610fe3565b916001600160801b0360606040840151930151919392919294610bc5565b3d9150610c7b565b634e487b7160e01b600052604160045260246000fd5b634e487b7160e01b84526011600452602484fd5b60405162461bcd60e51b815260206004820152601c60248201527f506f6f6c436f6e74726f6c6c65723a20496e76616c6964207469636b000000006044820152606490fd5b50620d89e860443560020b126109d8565b60405162461bcd60e51b815260206004820152602360248201527f506f6f6c436f6e74726f6c6c65723a20506f6f6c20646f6573206e6f742065786044820152621a5cdd60ea1b6064820152608490fd5b50346101c45760803660031901126101c4576004356001600160a01b03808216820361065457602435908116036106545760643567ffffffffffffffff808211610e1f5736602383011215610e1f578160040135908111610e1f57369101602401116101c057610e0d9060443590610ff7565b604051630a85bd0160e11b8152602090f35b8380fd5b50346101c45760203660031901126101c45760043590818152600560205260018060a01b03610e598160408420541633146111ef565b60025416803b156101c057604051632142170760e11b8152306004820152336024820152604481018490529082908290606490829084905af1801561090857610ec1575b50908152600560205280600360408220828155826001820155826002820155015580f35b610eca90610ed0565b38610e9d565b67ffffffffffffffff8111610cc957604052565b6080810190811067ffffffffffffffff821117610cc957604052565b60a0810190811067ffffffffffffffff821117610cc957604052565b60c0810190811067ffffffffffffffff821117610cc957604052565b90601f8019910116810190811067ffffffffffffffff821117610cc957604052565b9080601f830112156106545781359067ffffffffffffffff8211610cc9578160051b60405193602093610f8f85840187610f38565b85528380860192820101928311610654578301905b828210610fb2575050505090565b81358152908301908301610fa4565b51906001600160a01b038216820361065457565b51908160020b820361065457565b51906001600160801b038216820361065457565b60018060a01b03806002541691604092835194859163133f757160e31b83528160048401528260246101809889935afa94851561119857600092839784976110cf575b5050908482816003969594519561105087610ee4565b16855260208501926001600160801b038099168452828287019516855282606087019a168a526000526005602052600020935116956bffffffffffffffffffffffff60a01b9687855416178455600184019151166001600160801b03198254161790558360028301915116858254161790550192511690825416179055565b819850809297503d8311611191575b6110e88183610f38565b810103126101c05785516bffffffffffffffffffffffff8116036101c05761111260208701610fc1565b5061111e858701610fc1565b61112a60608801610fc1565b92608088015162ffffff8116036101c457509084600394939261114f60a08a01610fd5565b5061115c60c08a01610fd5565b5061118461016061116f60e08c01610fe3565b9a61117d6101408201610fe3565b5001610fe3565b509297969192939461103a565b503d6110de565b513d6000823e3d90fd5b60020b600a02908160020b9182036111b657565b634e487b7160e01b600052601160045260246000fd5b919082039182116111b657565b9190826040910312610654576020825192015190565b156111f657565b60405162461bcd60e51b815260206004820152600d60248201526c2737ba103a34329037bbb732b960991b6044820152606490fd5b60001981146111b65760010190565b805182101561124e5760209160051b010190565b634e487b7160e01b600052603260045260246000fd5b91909160808060a0830194805184526001600160801b03602082015116602085015260408101516040850152606081015160608501520151910152565b919082018092116111b657565b906112ea9291600052600560205260406000206112e560018060a01b03928383541684600382966002870154169501541693611450565b611450565b565b3d15611327573d9067ffffffffffffffff8211610cc9576040519161131b601f8201601f191660200184610f38565b82523d6000602084013e565b606090565b90816020910312610654575180151581036106545790565b6040516323b872dd60e01b602082019081526001600160a01b039384166024830152939092166044830152600060648084018290528352928392839061138981610f00565b51925af16113956112ec565b816113ce575b50156113a357565b60405162461bcd60e51b815260206004820152600360248201526229aa2360e91b6044820152606490fd5b80518015925082156113e3575b50503861139b565b6113f6925060208091830101910161132c565b38806113db565b6040516323b872dd60e01b602082019081526001600160a01b039384166024830152939092166044830152606482019390935260009283929091839061138981608481015b03601f198101835282610f38565b60405163a9059cbb60e01b602082019081526001600160a01b0390931660248201526044810193909352600092839290839061148f8160648101611442565b51925af161149b6112ec565b816114d3575b50156114a957565b60405162461bcd60e51b815260206004820152600260248201526114d560f21b6044820152606490fd5b80518015925082156114e8575b5050386114a1565b6114fb925060208091830101910161132c565b38806114e0565b60405163095ea7b360e01b602082019081526001600160a01b03909316602482015260006044808301829052825292839291839061153f81610ee4565b51925af161154b6112ec565b81611583575b501561155957565b60405162461bcd60e51b8152602060048201526002602482015261534160f01b6044820152606490fd5b8051801592508215611598575b505038611551565b6115ab925060208091830101910161132c565b3880611590565b60405163095ea7b360e01b602082019081526001600160a01b0390931660248201526044810193909352600092839290839061153f816064810161144256fea26469706673582212200f7122f7bda4f4d4ba0ae89212bc77aa72002dbaedf6a4ec841f4ae168f8432b64736f6c63430008130033",
    "linkReferences": {}
  },
  "methodIdentifiers": {
    "collectAllFees(uint256)": "46ce96dd",
    "decreaseLiquidityInHalf(uint256[])": "8f2f99fa",
    "decreaseNecessaryLiquidity(uint256[],uint256,bool)": "4e94faea",
    "increaseLiquidityCurrentRange(uint256,uint256,uint256)": "617d6d6e",
    "mintNewPos(uint256,uint256,int24,uint24,address,address)": "4321ab92",
    "onERC721Received(address,address,uint256,bytes)": "150b7a02",
    "retrieveNFT(uint256)": "0a1d7c5f"
  },
  "id": 10
}