{
  "abi": [
    {
      "inputs": [],
      "name": "setUp",
      "outputs": [],
      "stateMutability": "nonpayable",
      "type": "function"
    },
    {
      "inputs": [],
      "name": "test_pass",
      "outputs": [],
      "stateMutability": "pure",
      "type": "function"
    }
  ],
  "bytecode": {
    "object": "0x60808060405234601457607b908161001a8239f35b600080fdfe60806040526004361015601157600080fd5b60003560e01c80630a9254e414602f57638ab6815214602f57600080fd5b346040576000366003190112604057005b600080fdfea2646970667358221220299068f5f99d6829f5b688d8fd11fb8ac026ef314254eff3715947a6ba12f86664736f6c63430008130033",
    "linkReferences": {}
  },
  "methodIdentifiers": {
    "setUp()": "0a9254e4",
    "test_pass()": "8ab68152"
  },
  "id": 22
}