{
  "abi": [
    {
      "inputs": [],
      "stateMutability": "nonpayable",
      "type": "constructor"
    },
    {
      "anonymous": false,
      "inputs": [
        {
          "indexed": true,
          "internalType": "address",
          "name": "owner",
          "type": "address"
        },
        {
          "indexed": true,
          "internalType": "int24",
          "name": "tickLower",
          "type": "int24"
        },
        {
          "indexed": true,
          "internalType": "int24",
          "name": "tickUpper",
          "type": "int24"
        },
        {
          "indexed": false,
          "internalType": "uint128",
          "name": "amount",
          "type": "uint128"
        },
        {
          "indexed": false,
          "internalType": "uint256",
          "name": "amount0",
          "type": "uint256"
        },
        {
          "indexed": false,
          "internalType": "uint256",
          "name": "amount1",
          "type": "uint256"
        }
      ],
      "name": "Burn",
      "type": "event"
    },
    {
      "anonymous": false,
      "inputs": [
        {
          "indexed": true,
          "internalType": "address",
          "name": "owner",
          "type": "address"
        },
        {
          "indexed": false,
          "internalType": "address",
          "name": "recipient",
          "type": "address"
        },
        {
          "indexed": true,
          "internalType": "int24",
          "name": "tickLower",
          "type": "int24"
        },
        {
          "indexed": true,
          "internalType": "int24",
          "name": "tickUpper",
          "type": "int24"
        },
        {
          "indexed": false,
          "internalType": "uint128",
          "name": "amount0",
          "type": "uint128"
        },
        {
          "indexed": false,
          "internalType": "uint128",
          "name": "amount1",
          "type": "uint128"
        }
      ],
      "name": "Collect",
      "type": "event"
    },
    {
      "anonymous": false,
      "inputs": [
        {
          "indexed": true,
          "internalType": "address",
          "name": "sender",
          "type": "address"
        },
        {
          "indexed": true,
          "internalType": "address",
          "name": "recipient",
          "type": "address"
        },
        {
          "indexed": false,
          "internalType": "uint128",
          "name": "amount0",
          "type": "uint128"
        },
        {
          "indexed": false,
          "internalType": "uint128",
          "name": "amount1",
          "type": "uint128"
        }
      ],
      "name": "CollectProtocol",
      "type": "event"
    },
    {
      "anonymous": false,
      "inputs": [
        {
          "indexed": true,
          "internalType": "address",
          "name": "sender",
          "type": "address"
        },
        {
          "indexed": true,
          "internalType": "address",
          "name": "recipient",
          "type": "address"
        },
        {
          "indexed": false,
          "internalType": "uint256",
          "name": "amount0",
          "type": "uint256"
        },
        {
          "indexed": false,
          "internalType": "uint256",
          "name": "amount1",
          "type": "uint256"
        },
        {
          "indexed": false,
          "internalType": "uint256",
          "name": "paid0",
          "type": "uint256"
        },
        {
          "indexed": false,
          "internalType": "uint256",
          "name": "paid1",
          "type": "uint256"
        }
      ],
      "name": "Flash",
      "type": "event"
    },
    {
      "anonymous": false,
      "inputs": [
        {
          "indexed": false,
          "internalType": "uint16",
          "name": "observationCardinalityNextOld",
          "type": "uint16"
        },
        {
          "indexed": false,
          "internalType": "uint16",
          "name": "observationCardinalityNextNew",
          "type": "uint16"
        }
      ],
      "name": "IncreaseObservationCardinalityNext",
      "type": "event"
    },
    {
      "anonymous": false,
      "inputs": [
        {
          "indexed": false,
          "internalType": "uint160",
          "name": "sqrtPriceX96",
          "type": "uint160"
        },
        {
          "indexed": false,
          "internalType": "int24",
          "name": "tick",
          "type": "int24"
        }
      ],
      "name": "Initialize",
      "type": "event"
    },
    {
      "anonymous": false,
      "inputs": [
        {
          "indexed": false,
          "internalType": "address",
          "name": "sender",
          "type": "address"
        },
        {
          "indexed": true,
          "internalType": "address",
          "name": "owner",
          "type": "address"
        },
        {
          "indexed": true,
          "internalType": "int24",
          "name": "tickLower",
          "type": "int24"
        },
        {
          "indexed": true,
          "internalType": "int24",
          "name": "tickUpper",
          "type": "int24"
        },
        {
          "indexed": false,
          "internalType": "uint128",
          "name": "amount",
          "type": "uint128"
        },
        {
          "indexed": false,
          "internalType": "uint256",
          "name": "amount0",
          "type": "uint256"
        },
        {
          "indexed": false,
          "internalType": "uint256",
          "name": "amount1",
          "type": "uint256"
        }
      ],
      "name": "Mint",
      "type": "event"
    },
    {
      "anonymous": false,
      "inputs": [
        {
          "indexed": false,
          "internalType": "uint8",
          "name": "feeProtocol0Old",
          "type": "uint8"
        },
        {
          "indexed": false,
          "internalType": "uint8",
          "name": "feeProtocol1Old",
          "type": "uint8"
        },
        {
          "indexed": false,
          "internalType": "uint8",
          "name": "feeProtocol0New",
          "type": "uint8"
        },
        {
          "indexed": false,
          "internalType": "uint8",
          "name": "feeProtocol1New",
          "type": "uint8"
        }
      ],
      "name": "SetFeeProtocol",
      "type": "event"
    },
    {
      "anonymous": false,
      "inputs": [
        {
          "indexed": true,
          "internalType": "address",
          "name": "sender",
          "type": "address"
        },
        {
          "indexed": true,
          "internalType": "address",
          "name": "recipient",
          "type": "address"
        },
        {
          "indexed": false,
          "internalType": "int256",
          "name": "amount0",
          "type": "int256"
        },
        {
          "indexed": false,
          "internalType": "int256",
          "name": "amount1",
          "type": "int256"
        },
        {
          "indexed": false,
          "internalType": "uint160",
          "name": "sqrtPriceX96",
          "type": "uint160"
        },
        {
          "indexed": false,
          "internalType": "uint128",
          "name": "liquidity",
          "type": "uint128"
        },
        {
          "indexed": false,
          "internalType": "int24",
          "name": "tick",
          "type": "int24"
        }
      ],
      "name": "Swap",
      "type": "event"
    },
    {
      "inputs": [
        {
          "internalType": "int24",
          "name": "tickLower",
          "type": "int24"
        },
        {
          "internalType": "int24",
          "name": "tickUpper",
          "type": "int24"
        },
        {
          "internalType": "uint128",
          "name": "amount",
          "type": "uint128"
        }
      ],
      "name": "burn",
      "outputs": [
        {
          "internalType": "uint256",
          "name": "amount0",
          "type": "uint256"
        },
        {
          "internalType": "uint256",
          "name": "amount1",
          "type": "uint256"
        }
      ],
      "stateMutability": "nonpayable",
      "type": "function"
    },
    {
      "inputs": [
        {
          "internalType": "address",
          "name": "recipient",
          "type": "address"
        },
        {
          "internalType": "int24",
          "name": "tickLower",
          "type": "int24"
        },
        {
          "internalType": "int24",
          "name": "tickUpper",
          "type": "int24"
        },
        {
          "internalType": "uint128",
          "name": "amount0Requested",
          "type": "uint128"
        },
        {
          "internalType": "uint128",
          "name": "amount1Requested",
          "type": "uint128"
        }
      ],
      "name": "collect",
      "outputs": [
        {
          "internalType": "uint128",
          "name": "amount0",
          "type": "uint128"
        },
        {
          "internalType": "uint128",
          "name": "amount1",
          "type": "uint128"
        }
      ],
      "stateMutability": "nonpayable",
      "type": "function"
    },
    {
      "inputs": [],
      "name": "factory",
      "outputs": [
        {
          "internalType": "address",
          "name": "",
          "type": "address"
        }
      ],
      "stateMutability": "view",
      "type": "function"
    },
    {
      "inputs": [],
      "name": "fee",
      "outputs": [
        {
          "internalType": "uint24",
          "name": "",
          "type": "uint24"
        }
      ],
      "stateMutability": "view",
      "type": "function"
    },
    {
      "inputs": [],
      "name": "feeGrowthGlobal0X128",
      "outputs": [
        {
          "internalType": "uint256",
          "name": "",
          "type": "uint256"
        }
      ],
      "stateMutability": "view",
      "type": "function"
    },
    {
      "inputs": [],
      "name": "feeGrowthGlobal1X128",
      "outputs": [
        {
          "internalType": "uint256",
          "name": "",
          "type": "uint256"
        }
      ],
      "stateMutability": "view",
      "type": "function"
    },
    {
      "inputs": [
        {
          "internalType": "uint16",
          "name": "observationCardinalityNext",
          "type": "uint16"
        }
      ],
      "name": "increaseObservationCardinalityNext",
      "outputs": [],
      "stateMutability": "nonpayable",
      "type": "function"
    },
    {
      "inputs": [
        {
          "internalType": "uint160",
          "name": "sqrtPriceX96",
          "type": "uint160"
        }
      ],
      "name": "initialize",
      "outputs": [],
      "stateMutability": "nonpayable",
      "type": "function"
    },
    {
      "inputs": [],
      "name": "liquidity",
      "outputs": [
        {
          "internalType": "uint128",
          "name": "",
          "type": "uint128"
        }
      ],
      "stateMutability": "view",
      "type": "function"
    },
    {
      "inputs": [],
      "name": "maxLiquidityPerTick",
      "outputs": [
        {
          "internalType": "uint128",
          "name": "",
          "type": "uint128"
        }
      ],
      "stateMutability": "view",
      "type": "function"
    },
    {
      "inputs": [
        {
          "internalType": "address",
          "name": "recipient",
          "type": "address"
        },
        {
          "internalType": "int24",
          "name": "tickLower",
          "type": "int24"
        },
        {
          "internalType": "int24",
          "name": "tickUpper",
          "type": "int24"
        },
        {
          "internalType": "uint128",
          "name": "amount",
          "type": "uint128"
        },
        {
          "internalType": "bytes",
          "name": "data",
          "type": "bytes"
        }
      ],
      "name": "mint",
      "outputs": [
        {
          "internalType": "uint256",
          "name": "amount0",
          "type": "uint256"
        },
        {
          "internalType": "uint256",
          "name": "amount1",
          "type": "uint256"
        }
      ],
      "stateMutability": "nonpayable",
      "type": "function"
    },
    {
      "inputs": [
        {
          "internalType": "uint256",
          "name": "",
          "type": "uint256"
        }
      ],
      "name": "observations",
      "outputs": [
        {
          "internalType": "uint32",
          "name": "blockTimestamp",
          "type": "uint32"
        },
        {
          "internalType": "int56",
          "name": "tickCumulative",
          "type": "int56"
        },
        {
          "internalType": "uint160",
          "name": "secondsPerLiquidityCumulativeX128",
          "type": "uint160"
        },
        {
          "internalType": "bool",
          "name": "initialized",
          "type": "bool"
        }
      ],
      "stateMutability": "view",
      "type": "function"
    },
    {
      "inputs": [
        {
          "internalType": "uint32[]",
          "name": "secondsAgos",
          "type": "uint32[]"
        }
      ],
      "name": "observe",
      "outputs": [
        {
          "internalType": "int56[]",
          "name": "tickCumulatives",
          "type": "int56[]"
        },
        {
          "internalType": "uint160[]",
          "name": "secondsPerLiquidityCumulativeX128s",
          "type": "uint160[]"
        }
      ],
      "stateMutability": "view",
      "type": "function"
    },
    {
      "inputs": [
        {
          "internalType": "bytes32",
          "name": "",
          "type": "bytes32"
        }
      ],
      "name": "positions",
      "outputs": [
        {
          "internalType": "uint128",
          "name": "liquidity",
          "type": "uint128"
        },
        {
          "internalType": "uint256",
          "name": "feeGrowthInside0LastX128",
          "type": "uint256"
        },
        {
          "internalType": "uint256",
          "name": "feeGrowthInside1LastX128",
          "type": "uint256"
        },
        {
          "internalType": "uint128",
          "name": "tokensOwed0",
          "type": "uint128"
        },
        {
          "internalType": "uint128",
          "name": "tokensOwed1",
          "type": "uint128"
        }
      ],
      "stateMutability": "view",
      "type": "function"
    },
    {
      "inputs": [],
      "name": "protocolFees",
      "outputs": [
        {
          "internalType": "uint128",
          "name": "token0",
          "type": "uint128"
        },
        {
          "internalType": "uint128",
          "name": "token1",
          "type": "uint128"
        }
      ],
      "stateMutability": "view",
      "type": "function"
    },
    {
      "inputs": [],
      "name": "slot0",
      "outputs": [
        {
          "internalType": "uint160",
          "name": "sqrtPriceX96",
          "type": "uint160"
        },
        {
          "internalType": "int24",
          "name": "tick",
          "type": "int24"
        },
        {
          "internalType": "uint16",
          "name": "observationIndex",
          "type": "uint16"
        },
        {
          "internalType": "uint16",
          "name": "observationCardinality",
          "type": "uint16"
        },
        {
          "internalType": "uint16",
          "name": "observationCardinalityNext",
          "type": "uint16"
        },
        {
          "internalType": "uint8",
          "name": "feeProtocol",
          "type": "uint8"
        },
        {
          "internalType": "bool",
          "name": "unlocked",
          "type": "bool"
        }
      ],
      "stateMutability": "view",
      "type": "function"
    },
    {
      "inputs": [
        {
          "internalType": "address",
          "name": "recipient",
          "type": "address"
        },
        {
          "internalType": "bool",
          "name": "zeroForOne",
          "type": "bool"
        },
        {
          "internalType": "int256",
          "name": "amountSpecified",
          "type": "int256"
        },
        {
          "internalType": "uint160",
          "name": "sqrtPriceLimitX96",
          "type": "uint160"
        },
        {
          "internalType": "bytes",
          "name": "data",
          "type": "bytes"
        }
      ],
      "name": "swap",
      "outputs": [
        {
          "internalType": "int256",
          "name": "amount0",
          "type": "int256"
        },
        {
          "internalType": "int256",
          "name": "amount1",
          "type": "int256"
        }
      ],
      "stateMutability": "nonpayable",
      "type": "function"
    },
    {
      "inputs": [
        {
          "internalType": "int16",
          "name": "",
          "type": "int16"
        }
      ],
      "name": "tickBitmap",
      "outputs": [
        {
          "internalType": "uint256",
          "name": "",
          "type": "uint256"
        }
      ],
      "stateMutability": "view",
      "type": "function"
    },
    {
      "inputs": [],
      "name": "tickSpacing",
      "outputs": [
        {
          "internalType": "int24",
          "name": "",
          "type": "int24"
        }
      ],
      "stateMutability": "view",
      "type": "function"
    },
    {
      "inputs": [
        {
          "internalType": "int24",
          "name": "",
          "type": "int24"
        }
      ],
      "name": "ticks",
      "outputs": [
        {
          "internalType": "uint128",
          "name": "liquidityGross",
          "type": "uint128"
        },
        {
          "internalType": "int128",
          "name": "liquidityNet",
          "type": "int128"
        },
        {
          "internalType": "uint256",
          "name": "feeGrowthOutside0X128",
          "type": "uint256"
        },
        {
          "internalType": "uint256",
          "name": "feeGrowthOutside1X128",
          "type": "uint256"
        },
        {
          "internalType": "int56",
          "name": "tickCumulativeOutside",
          "type": "int56"
        },
        {
          "internalType": "uint160",
          "name": "secondsPerLiquidityOutsideX128",
          "type": "uint160"
        },
        {
          "internalType": "uint32",
          "name": "secondsOutside",
          "type": "uint32"
        },
        {
          "internalType": "bool",
          "name": "initialized",
          "type": "bool"
        }
      ],
      "stateMutability": "view",
      "type": "function"
    },
    {
      "inputs": [],
      "name": "token0",
      "outputs": [
        {
          "internalType": "address",
          "name": "",
          "type": "address"
        }
      ],
      "stateMutability": "view",
      "type": "function"
    },
    {
      "inputs": [],
      "name": "token1",
      "outputs": [
        {
          "internalType": "address",
          "name": "",
          "type": "address"
        }
      ],
      "stateMutability": "view",
      "type": "function"
    }
  ],
  "bytecode": {
    "object": "0x6101406040523480156200001257600080fd5b506000336001600160a01b031663890357306040518163ffffffff1660e01b815260040160a060405180830381865afa15801562000054573d6000803e3d6000fd5b505050506040513d601f19601f820116820180604052508101906200007a919062000180565b62ffffff90911660e0526001600160a01b0391821660c05291811660a05291909116608052600281900b610100529050620000b581620000c9565b6001600160801b0316610120525062000335565b60008082620000dd81620d89e71962000230565b620000e9919062000270565b905060008380620000fe620d89e7196200029a565b6200010a919062000230565b62000116919062000270565b9050600084620001278484620002bf565b62000133919062000230565b62000140906001620002ed565b90506200015a62ffffff82166001600160801b036200030c565b95945050505050565b80516001600160a01b03811681146200017b57600080fd5b919050565b600080600080600060a086880312156200019957600080fd5b620001a48662000163565b9450620001b46020870162000163565b9350620001c46040870162000163565b9250606086015162ffffff81168114620001dd57600080fd5b8092505060808601518060020b8114620001f657600080fd5b809150509295509295909350565b634e487b7160e01b600052601260045260246000fd5b634e487b7160e01b600052601160045260246000fd5b60008160020b8360020b806200024a576200024a62000204565b627fffff198214600019821416156200026757620002676200021a565b90059392505050565b60008260020b8260020b028060020b91508082146200029357620002936200021a565b5092915050565b60008160020b627fffff198103620002b657620002b66200021a565b60000392915050565b600282810b9082900b03627fffff198112627fffff82131715620002e757620002e76200021a565b92915050565b62ffffff8181168382160190808211156200029357620002936200021a565b60006001600160801b038381168062000329576200032962000204565b92169190910492915050565b60805160a05160c05160e051610100516101205161523a620003d96000396000818161040601528181613cb80152613cef0152600081816104880152818161091801528181613d230152613d550152600081816104e90152610a160152600081816104c201528181610f62015281816116be0152612f2e01526000818161014c01528181611052015281816116310152612e1501526000610461015261523a6000f3fe608060405234801561001057600080fd5b50600436106101425760003560e01c80635339c296116100b8578063d0c93a7c1161007c578063d0c93a7c14610483578063d21220a7146104bd578063ddca3f43146104e4578063f30583991461051f578063f30dba9314610528578063f637731d146105fc57600080fd5b80635339c296146103e157806370cf754a14610401578063883bdbfd14610428578063a34123a714610449578063c45a01551461045c57600080fd5b806332148f671161010a57806332148f67146102695780633850c7bd1461027e5780633c8a7d8d1461032357806346141319146103365780634f1eb3d81461034d578063514ea4bf1461036057600080fd5b80630dfe168114610147578063128acb081461018b5780631a686502146101b35780631ad8b03b146101de578063252c09d71461021c575b600080fd5b61016e7f000000000000000000000000000000000000000000000000000000000000000081565b6040516001600160a01b0390911681526020015b60405180910390f35b61019e6101993660046148db565b61060f565b60408051928352602083019190915201610182565b6004546101c6906001600160801b031681565b6040516001600160801b039091168152602001610182565b6003546101fc906001600160801b0380821691600160801b90041682565b604080516001600160801b03938416815292909116602083015201610182565b61022f61022a366004614960565b6111c7565b6040805163ffffffff909516855260069390930b60208501526001600160a01b039091169183019190915215156060820152608001610182565b61027c610277366004614979565b61120c565b005b6000546102d2906001600160a01b03811690600160a01b810460020b9061ffff600160b81b8204811691600160c81b8104821691600160d81b8204169060ff600160e81b8204811691600160f01b90041687565b604080516001600160a01b03909816885260029690960b602088015261ffff94851695870195909552918316606086015291909116608084015260ff1660a0830152151560c082015260e001610182565b61019e6103313660046149c6565b6112de565b61033f60025481565b604051908152602001610182565b6101fc61035b366004614a14565b611523565b6103ab61036e366004614960565b60076020526000908152604090208054600182015460028301546003909301546001600160801b0392831693919281811691600160801b90041685565b604080516001600160801b039687168152602081019590955284019290925283166060830152909116608082015260a001610182565b61033f6103ef366004614a7b565b60066020526000908152604090205481565b6101c67f000000000000000000000000000000000000000000000000000000000000000081565b61043b610436366004614a9e565b61176d565b604051610182929190614b13565b61019e610457366004614b9a565b6117ec565b61016e7f000000000000000000000000000000000000000000000000000000000000000081565b6104aa7f000000000000000000000000000000000000000000000000000000000000000081565b60405160029190910b8152602001610182565b61016e7f000000000000000000000000000000000000000000000000000000000000000081565b61050b7f000000000000000000000000000000000000000000000000000000000000000081565b60405162ffffff9091168152602001610182565b61033f60015481565b6105a0610536366004614bdd565b60056020526000908152604090208054600182015460028301546003909301546001600160801b03831693600160801b909304600f0b9290600681900b90600160381b81046001600160a01b031690600160d81b810463ffffffff1690600160f81b900460ff1688565b604080516001600160801b039099168952600f9790970b602089015295870194909452606086019290925260060b60808501526001600160a01b031660a084015263ffffffff1660c0830152151560e082015261010001610182565b61027c61060a366004614bf8565b61196d565b6000808560000361064c5760405162461bcd60e51b8152602060048201526002602482015261415360f01b60448201526064015b60405180910390fd5b6040805160e0810182526000546001600160a01b0381168252600160a01b810460020b602083015261ffff600160b81b8204811693830193909352600160c81b810483166060830152600160d81b8104909216608082015260ff600160e81b8304811660a0830152600160f01b909204909116151560c082018190526106e45760405162461bcd60e51b815260040161064390614c15565b8761072f5780600001516001600160a01b0316866001600160a01b031611801561072a575073fffd8963efd1fc6a506488495d951d5263988d266001600160a01b038716105b610761565b80600001516001600160a01b0316866001600160a01b031610801561076157506401000276a36001600160a01b038716115b6107935760405162461bcd60e51b815260206004820152600360248201526214d41360ea1b6044820152606401610643565b6000805460ff60f01b191681556040805160c08101909152808a6107c25760048460a0015160ff16901c6107d3565b60108460a001516107d39190614c48565b60ff1681526004546001600160801b031660208201526040014263ffffffff168152602001600060060b815260200160006001600160a01b031681526020016000151581525090506000808913905060006040518060e001604052808b81526020016000815260200185600001516001600160a01b03168152602001856020015160020b81526020018c6108695760025461086d565b6001545b815260200160006001600160801b0316815260200184602001516001600160801b031681525090505b8051158015906108bc5750886001600160a01b031681604001516001600160a01b031614155b15610d0f576040805160e081018252600080825260208201819052918101829052606081018290526080810182905260a0810182905260c081019190915260408201516001600160a01b03168152606082015161093d906006907f00000000000000000000000000000000000000000000000000000000000000008f611aa8565b1515604083015260020b60208201819052620d89e719131561096857620d89e719602082015261099c565b610975620d89e719614c80565b60020b816020015160020b131561099c57610993620d89e719614c80565b60020b60208201525b6109a98160200151611c66565b6001600160a01b031660608201526040820151610a3a908d6109e3578b6001600160a01b031683606001516001600160a01b0316116109fd565b8b6001600160a01b031683606001516001600160a01b0316105b610a0b578260600151610a0d565b8b5b60c085015185517f0000000000000000000000000000000000000000000000000000000000000000612088565b60c085015260a084015260808301526001600160a01b031660408301528215610ab257610a798160c001518260800151610a749190614ca2565b6122a3565b82518390610a88908390614cb5565b90525060a0810151610aa890610a9d906122a3565b6020840151906122b9565b6020830152610afe565b610abf8160a001516122a3565b82518390610ace908390614cdc565b90525060c08101516080820151610af891610aed91610a749190614ca2565b6020840151906122df565b60208301525b835160ff1615610b5a576000846000015160ff168260c00151610b219190614d04565b9050808260c001818151610b359190614d18565b90525060a083018051829190610b4c908390614d2b565b6001600160801b0316905250505b60c08201516001600160801b031615610ba257610b8d8160c00151600160801b8460c001516001600160801b03166122ff565b82608001818151610b9e9190614ca2565b9052505b80606001516001600160a01b031682604001516001600160a01b031603610cd257806040015115610ca5578360a00151610c2757610c09846040015160008760200151886040015188602001518a606001516008612477909695949392919063ffffffff16565b6001600160a01b0316608086015260060b6060850152600160a08501525b6000610c7382602001518e610c3e57600154610c44565b84608001515b8f610c53578560800151610c57565b6002545b608089015160608a015160408b01516005959493929190612665565b90508c15610c8757610c8481614d4b565b90505b610c958360c0015182612778565b6001600160801b031660c0840152505b8b610cb4578060200151610cc5565b60018160200151610cc59190614d71565b60020b6060830152610d09565b80600001516001600160a01b031682604001516001600160a01b031614610d0957610d008260400151612838565b60020b60608301525b50610896565b836020015160020b816060015160020b14610dd957600080610d5d86604001518660400151886020015188602001518a606001518b608001516008612b72909695949392919063ffffffff16565b604085015160608601516000805463ffffffff60b81b1916600160c81b61ffff9586160261ffff60b81b191617600160b81b9590941694909402929092176001600160b81b031916600160a01b62ffffff909316929092026001600160a01b031916919091176001600160a01b0390911617905550610dfe9050565b6040810151600080546001600160a01b0319166001600160a01b039092169190911790555b8060c001516001600160801b031683602001516001600160801b031614610e445760c0810151600480546001600160801b0319166001600160801b039092169190911790555b8a15610eaf57608081015160015560a08101516001600160801b031615610eaa5760a081015160038054600090610e859084906001600160801b0316614d2b565b92506101000a8154816001600160801b0302191690836001600160801b031602179055505b610f16565b608081015160025560a08101516001600160801b031615610f165760a081015160038054601090610ef1908490600160801b90046001600160801b0316614d2b565b92506101000a8154816001600160801b0302191690836001600160801b031602179055505b8115158b151514610f375760208101518151610f32908c614cb5565b610f49565b8051610f43908b614cb5565b81602001515b90965094508a15611044576000851215610f9057610f907f00000000000000000000000000000000000000000000000000000000000000008d610f8b88614d96565b612cfb565b6000610f9a612dfb565b60405163fa461e3360e01b8152909150339063fa461e3390610fc6908a908a908e908e90600401614ddb565b600060405180830381600087803b158015610fe057600080fd5b505af1158015610ff4573d6000803e3d6000fd5b50505050611000612dfb565b61100a8289612ef9565b111561103e5760405162461bcd60e51b815260206004820152600360248201526249494160e81b6044820152606401610643565b5061112b565b600086121561107b5761107b7f00000000000000000000000000000000000000000000000000000000000000008d610f8b89614d96565b6000611085612f14565b60405163fa461e3360e01b8152909150339063fa461e33906110b1908a908a908e908e90600401614ddb565b600060405180830381600087803b1580156110cb57600080fd5b505af11580156110df573d6000803e3d6000fd5b505050506110eb612f14565b6110f58288612ef9565b11156111295760405162461bcd60e51b815260206004820152600360248201526249494160e81b6044820152606401610643565b505b60408082015160c083015160608085015184518b8152602081018b90526001600160a01b03948516958101959095526001600160801b039092169084015260020b60808301528d169033907fc42079f94a6350d7e6235f29174924f928cc2ac818eb64fed8004e115fbcca679060a00160405180910390a350506000805460ff60f01b1916600160f01b17905550919890975095505050505050565b60088161ffff81106111d857600080fd5b015463ffffffff81169150600160201b810460060b90600160581b81046001600160a01b031690600160f81b900460ff1684565b600054600160f01b900460ff166112355760405162461bcd60e51b815260040161064390614c15565b6000805460ff60f01b1916808255600160d81b900461ffff169061125b60088385612f60565b6000805461ffff808416600160d81b810261ffff60d81b19909316929092179092559192508316146112c6576040805161ffff8085168252831660208201527fac49e518f90a358f652e4400164f05a5d8f7e35e7747279bc3a93dbf584e125a910160405180910390a15b50506000805460ff60f01b1916600160f01b17905550565b600080548190600160f01b900460ff1661130a5760405162461bcd60e51b815260040161064390614c15565b6000805460ff60f01b191690556001600160801b03851661132a57600080fd5b60008061137260405180608001604052808c6001600160a01b031681526020018b60020b81526020018a60020b81526020016113688a600f0b61300e565b600f0b9052613024565b9250925050819350809250600080600086111561139457611391612dfb565b91505b84156113a5576113a2612f14565b90505b60405163d348799760e01b8152339063d3487997906113ce90899089908d908d90600401614ddb565b600060405180830381600087803b1580156113e857600080fd5b505af11580156113fc573d6000803e3d6000fd5b50505050600086111561144e57611411612dfb565b61141b8388612ef9565b111561144e5760405162461bcd60e51b815260206004820152600260248201526104d360f41b6044820152606401610643565b84156114995761145c612f14565b6114668287612ef9565b11156114995760405162461bcd60e51b81526020600482015260026024820152614d3160f01b6044820152606401610643565b604080513381526001600160801b038b1660208201529081018790526060810186905260028b810b91908d900b906001600160a01b038f16907f7a53080ba414158be7ec69b987b5fb7d07dee101fe85488f0853ae16239d0bde9060800160405180910390a450506000805460ff60f01b1916600160f01b17905550919890975095505050505050565b600080548190600160f01b900460ff1661154f5760405162461bcd60e51b815260040161064390614c15565b6000805460ff60f01b191681556115696007338989613251565b60038101549091506001600160801b039081169086161161158a5784611599565b60038101546001600160801b03165b60038201549093506001600160801b03600160801b9091048116908516116115c157836115d7565b6003810154600160801b90046001600160801b03165b91506001600160801b03831615611660576003810180548491906000906116089084906001600160801b0316614e05565b92506101000a8154816001600160801b0302191690836001600160801b031602179055506116607f000000000000000000000000000000000000000000000000000000000000000089856001600160801b0316612cfb565b6001600160801b038216156116ed57818160030160108282829054906101000a90046001600160801b03166116959190614e05565b92506101000a8154816001600160801b0302191690836001600160801b031602179055506116ed7f000000000000000000000000000000000000000000000000000000000000000089846001600160801b0316612cfb565b604080516001600160a01b038a1681526001600160801b0385811660208301528416818301529051600288810b92908a900b9133917f70935338e69775456a85ddef226c395fb668b63fa0115f5f20610b388e6ca9c0919081900360600190a4506000805460ff60f01b1916600160f01b17905590969095509350505050565b6060806117e042858580806020026020016040519081016040528093929190818152602001838360200280828437600092018290525054600454600896959450600160a01b820460020b935061ffff600160b81b8304811693506001600160801b0390911691600160c81b9004166132ae565b915091505b9250929050565b600080548190600160f01b900460ff166118185760405162461bcd60e51b815260040161064390614c15565b6000805460ff60f01b1916815560408051608081018252338152600288810b602083015287900b9181019190915281908190611868906060810161185f600f8a900b61300e565b61136890614d4b565b9250925092508161187890614d96565b945061188381614d96565b935060008511806118945750600084115b156118f65760038301546118b29086906001600160801b0316614d2b565b60038401546118d2908690600160801b90046001600160801b0316614d2b565b6001600160801b039182169116600160801b026001600160801b0319161760038401555b604080516001600160801b038816815260208101879052908101859052600288810b91908a900b9033907f0c396cd989a39f4459b5fa1aed6a9a8dcdbc45908acfd67e028cd568da98982c9060600160405180910390a450506000805460ff60f01b1916600160f01b179055509094909350915050565b6000546001600160a01b0316156119ab5760405162461bcd60e51b8152602060048201526002602482015261414960f01b6044820152606401610643565b60006119b682612838565b604080516080808201835263ffffffff42168083526000602080850182905284860182905260016060958601819052600160f81b909317600855855160e0810187526001600160a01b038a16808252600289900b82840181905282890185905296820185905294810184905260a0810183905260c00183905281546001600160b81b0319168417600160a01b62ffffff8916021767ffffffffffffffff60b81b19166501000001000160c81b1790915584519283528201929092528251939450909283927f98636036cb66a9c19a37435efc1e90142190214e8abeb821bdba3f2990dd4c95928290030190a150505050565b60008080611ab68587614e25565b905060008660020b128015611ad65750611ad08587614e5f565b60020b15155b15611ae95780611ae581614e81565b9150505b8315611b9757600080611afb8361341d565b90925090506000600160ff831681901b90611b169082614d18565b611b209190614ca2565b600184900b600090815260208c905260409020548116801515965090915085611b615788611b52600085900b87614d71565b611b5c9190614ea4565b611b8c565b88611b6b8261343a565b611b759085614ec4565b611b829060000b87614d71565b611b8c9190614ea4565b965050505050611c5c565b600080611bad611ba8846001614edd565b61341d565b90925090506000611bc5600160ff841681901b614d18565b600184900b600090815260208c905260409020549019908116801515965090915085611c1e5788611bf78460ff614ec4565b60000b611c05876001614edd565b611c0f9190614edd565b611c199190614ea4565b611c55565b8883611c2983613529565b611c339190614ec4565b60000b611c41876001614edd565b611c4b9190614edd565b611c559190614ea4565b9650505050505b5094509492505050565b60008060008360020b12611c7d578260020b611c8a565b8260020b611c8a90614d96565b9050611c99620d89e719614c80565b60020b8160020b1315611cd25760405162461bcd60e51b81526020600482015260016024820152601560fa1b6044820152606401610643565b600081600116600003611ce957600160801b611cfb565b6ffffcb933bd6fad37aa2d162d1a5940015b70ffffffffffffffffffffffffffffffffff1690506002821615611d3a576080611d35826ffff97272373d413259a46990580e213a614f02565b901c90505b6004821615611d64576080611d5f826ffff2e50f5f656932ef12357cf3c7fdcc614f02565b901c90505b6008821615611d8e576080611d89826fffe5caca7e10e4e61c3624eaa0941cd0614f02565b901c90505b6010821615611db8576080611db3826fffcb9843d60f6159c9db58835c926644614f02565b901c90505b6020821615611de2576080611ddd826fff973b41fa98c081472e6896dfb254c0614f02565b901c90505b6040821615611e0c576080611e07826fff2ea16466c96a3843ec78b326b52861614f02565b901c90505b6080821615611e36576080611e31826ffe5dee046a99a2a811c461f1969c3053614f02565b901c90505b610100821615611e61576080611e5c826ffcbe86c7900a88aedcffc83b479aa3a4614f02565b901c90505b610200821615611e8c576080611e87826ff987a7253ac413176f2b074cf7815e54614f02565b901c90505b610400821615611eb7576080611eb2826ff3392b0822b70005940c7a398e4b70f3614f02565b901c90505b610800821615611ee2576080611edd826fe7159475a2c29b7443b29c7fa6e889d9614f02565b901c90505b611000821615611f0d576080611f08826fd097f3bdfd2022b8845ad8f792aa5825614f02565b901c90505b612000821615611f38576080611f33826fa9f746462d870fdf8a65dc1f90e061e5614f02565b901c90505b614000821615611f63576080611f5e826f70d869a156d2a1b890bb3df62baf32f7614f02565b901c90505b618000821615611f8e576080611f89826f31be135f97d08fd981231505542fcfa6614f02565b901c90505b62010000821615611fba576080611fb5826f09aa508b5b7a84e1c677de54f3e99bc9614f02565b901c90505b62020000821615611fe5576080611fe0826e5d6af8dedb81196699c329225ee604614f02565b901c90505b6204000082161561200f57608061200a826d2216e584f5fa1ea926041bedfe98614f02565b901c90505b62080000821615612037576080612032826b048a170391f7dc42444e8fa2614f02565b901c90505b60008460020b13156120525761204f81600019614d04565b90505b612060600160201b82614f19565b1561206c57600161206f565b60005b6120809060ff16602083901c614ca2565b949350505050565b60008080806001600160a01b03808916908a1610158187128015906121145760006120c8896120ba8a620f4240614f2d565b62ffffff16620f42406122ff565b9050826120e1576120dc8c8c8c6001613654565b6120ee565b6120ee8b8d8c60016136db565b95508581106120ff578a965061210e565b61210b8c8b83866137a2565b96505b50612168565b8161212b576121268b8b8b60006136db565b612138565b6121388a8c8b6000613654565b93508361214489614d96565b1061215157899550612168565b6121658b8a61215f8b614d96565b856137ee565b95505b6001600160a01b038a81169087161482156121cb578080156121875750815b61219d57612198878d8c60016136db565b61219f565b855b95508080156121ac575081155b6121c2576121bd878d8c6000613654565b6121c4565b845b9450612215565b8080156121d55750815b6121eb576121e68c888c6001613654565b6121ed565b855b95508080156121fa575081155b6122105761220b8c888c60006136db565b612212565b845b94505b8115801561222a575061222789614d96565b85115b1561223b5761223889614d96565b94505b81801561225a57508a6001600160a01b0316876001600160a01b031614155b1561227057612269868a614d18565b9350612294565b6122918662ffffff8a166122878b620f4240614f2d565b62ffffff1661383a565b93505b50505095509550955095915050565b6000600160ff1b82106122b557600080fd5b5090565b600080821215836122ca8482614cb5565b9250821315146122d957600080fd5b92915050565b600080821215836122f08482614cdc565b9250821215146122d957600080fd5b6000808060001985870985870292508281108382030391505080600003612338576000841161232d57600080fd5b508290049050612470565b80841161234457600080fd5b60008486880980840393811190920391905060008561236281614d96565b169586900495938490049360008190030460010190506123828184614f02565b909317926000612393876003614f02565b60021890506123a28188614f02565b6123ad906002614d18565b6123b79082614f02565b90506123c38188614f02565b6123ce906002614d18565b6123d89082614f02565b90506123e48188614f02565b6123ef906002614d18565b6123f99082614f02565b90506124058188614f02565b612410906002614d18565b61241a9082614f02565b90506124268188614f02565b612431906002614d18565b61243b9082614f02565b90506124478188614f02565b612452906002614d18565b61245c9082614f02565b90506124688186614f02565b955050505050505b9392505050565b6000808663ffffffff16600003612520576000898661ffff1661ffff81106124a1576124a1614f49565b60408051608081018252919092015463ffffffff808216808452600160201b830460060b6020850152600160581b83046001600160a01b031694840194909452600160f81b90910460ff16151560608301529092508a161461250c57612509818a898861387a565b90505b806020015181604001519250925050612659565b600061252c888a614f5f565b90506000806125408c8c858c8c8c8c613955565b91509150816000015163ffffffff168363ffffffff1603612571578160200151826040015194509450505050612659565b806000015163ffffffff168363ffffffff160361259e578060200151816040015194509450505050612659565b815181516000916125ae91614f5f565b83519091506000906125c09086614f5f565b90508060030b8260030b856020015185602001516125de9190614f7c565b6125e89190614fa9565b6125f29190614fde565b84602001516126019190614ffe565b8263ffffffff168263ffffffff1686604001518660400151612623919061502b565b6001600160a01b03166126369190614f02565b6126409190614d04565b856040015161264f919061504b565b9650965050505050505b97509795505050505050565b600286900b600090815260208890526040812060018101546126879088614d18565b6001820155600281015461269b9087614d18565b600282015560038101546126bf90600160381b90046001600160a01b03168661502b565b6003820180546001600160a01b0392909216600160381b02670100000000000000600160d81b031990921691909117908190556126ff9060060b85614f7c565b60038201805466ffffffffffffff191666ffffffffffffff92909216919091179081905561273a90600160d81b900463ffffffff1684614f5f565b60038201805463ffffffff92909216600160d81b0263ffffffff60d81b1990921691909117905554600160801b9004600f0b98975050505050505050565b60008082600f0b12156127e5576001600160801b03831661279883614d4b565b6127a29085614e05565b9150816001600160801b0316106127e05760405162461bcd60e51b81526020600482015260026024820152614c5360f01b6044820152606401610643565b6122d9565b6001600160801b0383166127f98385614d2b565b9150816001600160801b031610156122d95760405162461bcd60e51b81526020600482015260026024820152614c4160f01b6044820152606401610643565b60006401000276a36001600160a01b03831610801590612874575073fffd8963efd1fc6a506488495d951d5263988d266001600160a01b038316105b6128a45760405162461bcd60e51b81526020600482015260016024820152602960f91b6044820152606401610643565b640100000000600160c01b03602083901b166001600160801b03811160071b81811c67ffffffffffffffff811160061b90811c63ffffffff811160051b90811c61ffff811160041b90811c60ff8111600390811b91821c600f811160021b90811c918211600190811b92831c9790881196179094179092171790911717176080811061293f57612935607f82614d18565b83901c9150612950565b61294a81607f614d18565b83901b91505b6000604061295f608084614cb5565b901b9050828302607f1c92508260801c80603f1b8217915083811c935050828302607f1c92508260801c80603e1b8217915083811c935050828302607f1c92508260801c80603d1b8217915083811c935050828302607f1c92508260801c80603c1b8217915083811c935050828302607f1c92508260801c80603b1b8217915083811c935050828302607f1c92508260801c80603a1b8217915083811c935050828302607f1c92508260801c8060391b8217915083811c935050828302607f1c92508260801c8060381b8217915083811c935050828302607f1c92508260801c8060371b8217915083811c935050828302607f1c92508260801c8060361b8217915083811c935050828302607f1c92508260801c8060351b8217915083811c935050828302607f1c92508260801c8060341b8217915083811c935050828302607f1c92508260801c8060331b8217915083811c935050828302607f1c92508260801c8060321b8217915050600081693627a301d71055774c85612ae2919061506b565b905060006080612b026f028f6481ab7f045a5af012a19d003aaa84614cb5565b901d905060006080612b24846fdb2df09e81959a81455e260799a0632f614cdc565b901d90508060020b8260020b14612b6357886001600160a01b0316612b4882611c66565b6001600160a01b03161115612b5d5781612b65565b80612b65565b815b9998505050505050505050565b6000806000898961ffff1661ffff8110612b8e57612b8e614f49565b60408051608081018252919092015463ffffffff808216808452600160201b830460060b6020850152600160581b83046001600160a01b031694840194909452600160f81b90910460ff161515606083015290925089169003612bf75788859250925050612659565b8461ffff168461ffff16118015612c1f5750612c1460018661509b565b61ffff168961ffff16145b15612c2c57839150612c30565b8491505b81612c3c8a60016150b6565b612c4691906150d1565b9250612c548189898961387a565b8a8461ffff1661ffff8110612c6b57612c6b614f49565b825191018054602084015160408501516060909501511515600160f81b026001600160f81b036001600160a01b03909616600160581b02959095166affffffffffffffffffffff66ffffffffffffff909216600160201b026affffffffffffffffffffff1990931663ffffffff909516949094179190911716919091179190911790555097509795505050505050565b604080516001600160a01b038481166024830152604480830185905283518084039091018152606490920183526020820180516001600160e01b031663a9059cbb60e01b1790529151600092839290871691612d5791906150f2565b6000604051808303816000865af19150503d8060008114612d94576040519150601f19603f3d011682016040523d82523d6000602084013e612d99565b606091505b5091509150818015612dc3575080511580612dc3575080806020019051810190612dc39190615121565b612df45760405162461bcd60e51b81526020600482015260026024820152612a2360f11b6044820152606401610643565b5050505050565b604051306024820152600090819081906001600160a01b037f000000000000000000000000000000000000000000000000000000000000000016906370a0823160e01b906044015b60408051601f198184030181529181526020820180516001600160e01b03166001600160e01b0319909416939093179092529051612e8191906150f2565b600060405180830381855afa9150503d8060008114612ebc576040519150601f19603f3d011682016040523d82523d6000602084013e612ec1565b606091505b5091509150818015612ed557506020815110155b612ede57600080fd5b80806020019051810190612ef2919061513e565b9250505090565b600082612f068382614ca2565b91508110156122d957600080fd5b604051306024820152600090819081906001600160a01b037f000000000000000000000000000000000000000000000000000000000000000016906370a0823160e01b90604401612e43565b6000808361ffff1611612f995760405162461bcd60e51b81526020600482015260016024820152604960f81b6044820152606401610643565b8261ffff168261ffff1611612faf575081612470565b825b8261ffff168161ffff161015613005576001858261ffff1661ffff8110612fda57612fda614f49565b01805463ffffffff191663ffffffff9290921691909117905580612ffd81615157565b915050612fb1565b50909392505050565b80600f81900b811461301f57600080fd5b919050565b600080600061303b84602001518560400151613b71565b6040805160e0810182526000546001600160a01b0381168252600160a01b810460020b602080840182905261ffff600160b81b8404811685870152600160c81b84048116606080870191909152600160d81b8504909116608086015260ff600160e81b8504811660a0870152600160f01b909404909316151560c0850152885190890151948901519289015193946130d99491939092909190613c36565b93508460600151600f0b60001461324957846020015160020b816020015160020b121561312e576131276131108660200151611c66565b61311d8760400151611c66565b8760600151613e1b565b9250613249565b846040015160020b816020015160020b121561321f5760045460408201516001600160801b039091169061317990426020850151606086015160808701516008949392918791612b72565b6000805463ffffffff60b81b1916600160c81b61ffff9384160261ffff60b81b191617600160b81b9390921692909202179055815160408701516131cb91906131c190611c66565b8860600151613e1b565b93506131e96131dd8760200151611c66565b83516060890151613e5d565b92506131f9818760600151612778565b600480546001600160801b0319166001600160801b039290921691909117905550613249565b61324661322f8660200151611c66565b61323c8760400151611c66565b8760600151613e5d565b91505b509193909250565b6040805160609490941b6bffffffffffffffffffffffff191660208086019190915260e893841b60348601529190921b60378401528151601a818503018152603a9093018252825192810192909220600090815292909152902090565b60608060008361ffff16116132e95760405162461bcd60e51b81526020600482015260016024820152604960f81b6044820152606401610643565b865167ffffffffffffffff81111561330357613303615178565b60405190808252806020026020018201604052801561332c578160200160208202803683370190505b509150865167ffffffffffffffff81111561334957613349615178565b604051908082528060200260200182016040528015613372578160200160208202803683370190505b50905060005b8751811015613410576133a98a8a8a848151811061339857613398614f49565b60200260200101518a8a8a8a612477565b8483815181106133bb576133bb614f49565b602002602001018484815181106133d4576133d4614f49565b60200260200101826001600160a01b03166001600160a01b03168152508260060b60060b815250505080806134089061518e565b915050613378565b5097509795505050505050565b600281900b60081d600061343361010084614e5f565b9050915091565b600080821161344857600080fd5b600160801b821061346657608091821c9161346390826151a7565b90505b68010000000000000000821061348957604091821c9161348690826151a7565b90505b600160201b82106134a757602091821c916134a490826151a7565b90505b6201000082106134c457601091821c916134c190826151a7565b90505b61010082106134e057600891821c916134dd90826151a7565b90505b601082106134fb57600491821c916134f890826151a7565b90505b6004821061351657600291821c9161351390826151a7565b90505b6002821061301f576122d96001826151a7565b600080821161353757600080fd5b5060ff6001600160801b0382161561355b57613554608082614ec4565b9050613563565b608082901c91505b67ffffffffffffffff8216156135855761357e604082614ec4565b905061358d565b604082901c91505b63ffffffff8216156135ab576135a4602082614ec4565b90506135b3565b602082901c91505b61ffff8216156135cf576135c8601082614ec4565b90506135d7565b601082901c91505b60ff8216156135f2576135eb600882614ec4565b90506135fa565b600882901c91505b600f8216156136155761360e600482614ec4565b905061361d565b600482901c91505b600382161561363857613631600282614ec4565b9050613640565b600282901c91505b600182161561301f576122d9600182614ec4565b6000836001600160a01b0316856001600160a01b03161115613674579293925b816136a8576136a36001600160801b038416613690878761502b565b6001600160a01b0316600160601b6122ff565b6136d2565b6136d26001600160801b0384166136bf878761502b565b6001600160a01b0316600160601b61383a565b95945050505050565b6000836001600160a01b0316856001600160a01b031611156136fb579293925b600160601b600160e01b03606084901b166000613718878761502b565b6001600160a01b031690506000876001600160a01b03161161373957600080fd5b8361376b57866001600160a01b031661375c8383896001600160a01b03166122ff565b6137669190614d04565b613797565b6137976137828383896001600160a01b031661383a565b886001600160a01b0316808204910615150190565b979650505050505050565b600080856001600160a01b0316116137b957600080fd5b6000846001600160801b0316116137cf57600080fd5b816137e1576136a38585856001613e91565b6136d28585856001613f78565b600080856001600160a01b03161161380557600080fd5b6000846001600160801b03161161381b57600080fd5b8161382d576136a38585856000613f78565b6136d28585856000613e91565b60006138478484846122ff565b90506000828061385957613859614c32565b848609111561247057600019811061387057600080fd5b806136d28161518e565b60408051608081018252600080825260208201819052918101829052606081019190915284516000906138ad9086614f5f565b905060405180608001604052808663ffffffff1681526020018260030b8660020b6138d89190614fde565b88602001516138e79190614ffe565b60060b81526020016000856001600160801b031611613907576001613909565b845b613929906001600160801b031663ffffffff60801b608086901b166151c0565b8860400151613938919061504b565b6001600160a01b0316815260016020909101529695505050505050565b604080516080810182526000808252602082018190529181018290526060810191909152604080516080810182526000808252602082018190529181018290526060810191909152888561ffff1661ffff81106139b4576139b4614f49565b60408051608081018252919092015463ffffffff8116808352600160201b820460060b6020840152600160581b82046001600160a01b031693830193909352600160f81b900460ff16151560608201529250613a129089908961408f565b15613a3e57815163ffffffff8881169116146126595781613a358389898861387a565b91509150612659565b8883613a4b8760016150b6565b613a5591906150d1565b61ffff1661ffff8110613a6a57613a6a614f49565b60408051608081018252929091015463ffffffff81168352600160201b810460060b60208401526001600160a01b03600160581b8204169183019190915260ff600160f81b90910416151560608201819052909250613b1357604080516080810182528a5463ffffffff81168252600160201b810460060b6020830152600160581b81046001600160a01b031692820192909252600160f81b90910460ff161515606082015291505b613b228883600001518961408f565b613b545760405162461bcd60e51b815260206004820152600360248201526213d31160ea1b6044820152606401610643565b613b61898989888761415e565b9150915097509795505050505050565b8060020b8260020b12613bac5760405162461bcd60e51b8152602060048201526003602482015262544c5560e81b6044820152606401610643565b620d89e719600283900b1215613bea5760405162461bcd60e51b8152602060048201526003602482015262544c4d60e81b6044820152606401610643565b613bf7620d89e719614c80565b60020b8160020b1315613c325760405162461bcd60e51b815260206004820152600360248201526254554d60e81b6044820152606401610643565b5050565b6000613c456007878787613251565b60015460025491925090600080600f87900b15613d7d57600080546004544292918291613ca29160089186918591600160a01b820460020b9161ffff600160b81b82048116926001600160801b031691600160c81b900416612477565b9092509050613cdc60058d8b8d8b8b87898b60007f0000000000000000000000000000000000000000000000000000000000000000614376565b9450613d1360058c8b8d8b8b87898b60017f0000000000000000000000000000000000000000000000000000000000000000614376565b93508415613d4757613d4760068d7f000000000000000000000000000000000000000000000000000000000000000061452c565b8315613d7957613d7960068c7f000000000000000000000000000000000000000000000000000000000000000061452c565b5050505b600080613d8f60058c8c8b8a8a61457f565b9092509050613da0878a8484614669565b600089600f0b1215613e0c578315613ddc5760028b810b6000908152600560205260408120818155600181018290559182018190556003909101555b8215613e0c5760028a810b6000908152600560205260408120818155600181018290559182018190556003909101555b50505050505095945050505050565b60008082600f0b12613e3c57613e37610a7485858560016136db565b612080565b613e54610a748585613e4d86614d4b565b60006136db565b61208090614d96565b60008082600f0b12613e7957613e37610a748585856001613654565b613e54610a748585613e8a86614d4b565b6000613654565b60008115613f035760006001600160a01b03841115613ec757613ec284600160601b876001600160801b03166122ff565b613ede565b613ede6001600160801b038616606086901b614d04565b9050613efb613ef66001600160a01b03881683612ef9565b61485d565b915050612080565b60006001600160a01b03841115613f3157613f2c84600160601b876001600160801b031661383a565b613f4e565b613f4e606085901b6001600160801b038716808204910615150190565b905080866001600160a01b031611613f6557600080fd5b613efb816001600160a01b038816614d18565b600082600003613f89575083612080565b600160601b600160e01b03606085901b1682156140325760006001600160a01b03871685613fb78282614f02565b9250613fc39083614d04565b03613ffd576000613fd48284614ca2565b9050828110613ffb57613ff183896001600160a01b03168361383a565b9350505050612080565b505b6140298261401e876140186001600160a01b038c1684614d04565b90612ef9565b808204910615150190565b92505050612080565b60006001600160a01b038716856140498282614f02565b92506140559083614d04565b14801561406157508082115b61406a57600080fd5b60006140768284614d18565b9050613ff1613ef6848a6001600160a01b03168461383a565b60008363ffffffff168363ffffffff16111580156140b957508363ffffffff168263ffffffff1611155b156140d5578163ffffffff168363ffffffff1611159050612470565b60008463ffffffff168463ffffffff1611614103576140fe63ffffffff8516600160201b6151e6565b61410b565b8363ffffffff165b64ffffffffff16905060008563ffffffff168463ffffffff16116141425761413d63ffffffff8516600160201b6151e6565b61414a565b8363ffffffff165b64ffffffffff169091111595945050505050565b6040805160808101825260008082526020820181905291810182905260608101919091526040805160808101825260008082526020820181905291810182905260608101919091526000836141b48660016150b6565b6141be91906150d1565b61ffff169050600060018561ffff16836141d89190614ca2565b6141e29190614d18565b905060005b60026141f38385614ca2565b6141fd9190614d04565b90508961420e61ffff881683614f19565b61ffff811061421f5761421f614f49565b60408051608081018252929091015463ffffffff81168352600160201b810460060b60208401526001600160a01b03600160581b8204169183019190915260ff600160f81b9091041615156060820181905290955061428a57614283816001614ca2565b92506141e7565b8961ffff871661429b836001614ca2565b6142a59190614f19565b61ffff81106142b6576142b6614f49565b60408051608081018252929091015463ffffffff81168352600160201b810460060b60208401526001600160a01b03600160581b8204169183019190915260ff600160f81b9091041615156060820152855190945060009061431a908b908b61408f565b905080801561433357506143338a8a876000015161408f565b1561433e5750614369565b806143555761434e600183614d18565b9250614363565b614360826001614ca2565b93505b506141e7565b5050509550959350505050565b60028a900b600090815260208c90526040812080546001600160801b03168261439f828d612778565b9050846001600160801b0316816001600160801b031611156143e85760405162461bcd60e51b81526020600482015260026024820152614c4f60f01b6044820152606401610643565b6001600160801b038181161590831680159190911415945060000361449b578c60020b8e60020b1361448357600183018b9055600283018a905560038301805466ffffffffffffff8a166001600160f81b0319909116600160381b6001600160a01b038d16027fff00000000ffffffffffffffffffffffffffffffffffffffff00000000000000161717600160d81b63ffffffff8a16021790555b6003830180546001600160f81b0316600160f81b1790555b82546001600160801b0319166001600160801b038216178355856144e25782546144dd906144d890600160801b9004600f90810b908f900b6122df565b61300e565b614501565b8254614501906144d890600160801b9004600f90810b908f900b6122b9565b83546001600160801b03918216600160801b0291161790925550909c9b505050505050505050505050565b6145368183614e5f565b60020b1561454357600080fd5b600080614553611ba88486614e25565b600191820b60009081526020979097526040909620805460ff9097169190911b90951890945550505050565b600285810b60008181526020899052604080822088850b83529082209193849391929184918291908a900b126145c0575050600182015460028301546145e4565b60018401546145cf9089614d18565b91508360020154876145e19190614d18565b90505b6000808b60020b8b60020b12156146065750506001830154600284015461462a565b6001850154614615908b614d18565b91508460020154896146279190614d18565b90505b81614635858c614d18565b61463f9190614d18565b97508061464c848b614d18565b6146569190614d18565b9650505050505050965096945050505050565b6040805160a08101825285546001600160801b0390811682526001870154602083015260028701549282019290925260038601548083166060830152600160801b900490911660808201526000600f85900b81036147055781516001600160801b03166146fd5760405162461bcd60e51b815260206004820152600260248201526104e560f41b6044820152606401610643565b508051614714565b81516147119086612778565b90505b600061473e8360200151866147299190614d18565b84516001600160801b0316600160801b6122ff565b9050600061476a8460400151866147559190614d18565b85516001600160801b0316600160801b6122ff565b905086600f0b6000146147915787546001600160801b0319166001600160801b0384161788555b60018801869055600288018590556001600160801b0382161515806147bf57506000816001600160801b0316115b15614853576003880180548391906000906147e49084906001600160801b0316614d2b565b92506101000a8154816001600160801b0302191690836001600160801b03160217905550808860030160108282829054906101000a90046001600160801b031661482e9190614d2b565b92506101000a8154816001600160801b0302191690836001600160801b031602179055505b5050505050505050565b806001600160a01b038116811461301f57600080fd5b6001600160a01b038116811461488857600080fd5b50565b801515811461488857600080fd5b60008083601f8401126148ab57600080fd5b50813567ffffffffffffffff8111156148c357600080fd5b6020830191508360208285010111156117e557600080fd5b60008060008060008060a087890312156148f457600080fd5b86356148ff81614873565b9550602087013561490f8161488b565b945060408701359350606087013561492681614873565b9250608087013567ffffffffffffffff81111561494257600080fd5b61494e89828a01614899565b979a9699509497509295939492505050565b60006020828403121561497257600080fd5b5035919050565b60006020828403121561498b57600080fd5b813561ffff8116811461247057600080fd5b8035600281900b811461301f57600080fd5b80356001600160801b038116811461301f57600080fd5b60008060008060008060a087890312156149df57600080fd5b86356149ea81614873565b95506149f86020880161499d565b9450614a066040880161499d565b9350614926606088016149af565b600080600080600060a08688031215614a2c57600080fd5b8535614a3781614873565b9450614a456020870161499d565b9350614a536040870161499d565b9250614a61606087016149af565b9150614a6f608087016149af565b90509295509295909350565b600060208284031215614a8d57600080fd5b81358060010b811461247057600080fd5b60008060208385031215614ab157600080fd5b823567ffffffffffffffff80821115614ac957600080fd5b818501915085601f830112614add57600080fd5b813581811115614aec57600080fd5b8660208260051b8501011115614b0157600080fd5b60209290920196919550909350505050565b604080825283519082018190526000906020906060840190828701845b82811015614b4f57815160060b84529284019290840190600101614b30565b5050508381038285015284518082528583019183019060005b81811015614b8d5783516001600160a01b031683529284019291840191600101614b68565b5090979650505050505050565b600080600060608486031215614baf57600080fd5b614bb88461499d565b9250614bc66020850161499d565b9150614bd4604085016149af565b90509250925092565b600060208284031215614bef57600080fd5b6124708261499d565b600060208284031215614c0a57600080fd5b813561247081614873565b6020808252600390820152624c4f4b60e81b604082015260600190565b634e487b7160e01b600052601260045260246000fd5b600060ff831680614c5b57614c5b614c32565b8060ff84160691505092915050565b634e487b7160e01b600052601160045260246000fd5b60008160020b627fffff198103614c9957614c99614c6a565b60000392915050565b808201808211156122d9576122d9614c6a565b8181036000831280158383131683831282161715614cd557614cd5614c6a565b5092915050565b8082018281126000831280158216821582161715614cfc57614cfc614c6a565b505092915050565b600082614d1357614d13614c32565b500490565b818103818111156122d9576122d9614c6a565b6001600160801b03818116838216019080821115614cd557614cd5614c6a565b600081600f0b6f7fffffffffffffffffffffffffffffff198103614c9957614c99614c6a565b600282810b9082900b03627fffff198112627fffff821317156122d9576122d9614c6a565b6000600160ff1b8201614dab57614dab614c6a565b5060000390565b81835281816020850137506000828201602090810191909152601f909101601f19169091010190565b848152836020820152606060408201526000614dfb606083018486614db2565b9695505050505050565b6001600160801b03828116828216039080821115614cd557614cd5614c6a565b60008160020b8360020b80614e3c57614e3c614c32565b627fffff19821460001982141615614e5657614e56614c6a565b90059392505050565b60008260020b80614e7257614e72614c32565b808360020b0791505092915050565b60008160020b627fffff198103614e9a57614e9a614c6a565b6000190192915050565b60008260020b8260020b028060020b9150808214614cd557614cd5614c6a565b60ff82811682821603908111156122d9576122d9614c6a565b600281810b9083900b01627fffff8113627fffff19821217156122d9576122d9614c6a565b80820281158282048414176122d9576122d9614c6a565b600082614f2857614f28614c32565b500690565b62ffffff828116828216039080821115614cd557614cd5614c6a565b634e487b7160e01b600052603260045260246000fd5b63ffffffff828116828216039080821115614cd557614cd5614c6a565b600682810b9082900b03667fffffffffffff198112667fffffffffffff821317156122d9576122d9614c6a565b60008160060b8360060b80614fc057614fc0614c32565b667fffffffffffff19821460001982141615614e5657614e56614c6a565b60008260060b8260060b028060060b9150808214614cd557614cd5614c6a565b600681810b9083900b01667fffffffffffff8113667fffffffffffff19821217156122d9576122d9614c6a565b6001600160a01b03828116828216039080821115614cd557614cd5614c6a565b6001600160a01b03818116838216019080821115614cd557614cd5614c6a565b80820260008212600160ff1b8414161561508757615087614c6a565b81810583148215176122d9576122d9614c6a565b61ffff828116828216039080821115614cd557614cd5614c6a565b61ffff818116838216019080821115614cd557614cd5614c6a565b600061ffff808416806150e6576150e6614c32565b92169190910692915050565b6000825160005b8181101561511357602081860181015185830152016150f9565b506000920191825250919050565b60006020828403121561513357600080fd5b81516124708161488b565b60006020828403121561515057600080fd5b5051919050565b600061ffff80831681810361516e5761516e614c6a565b6001019392505050565b634e487b7160e01b600052604160045260246000fd5b6000600182016151a0576151a0614c6a565b5060010190565b60ff81811683821601908111156122d9576122d9614c6a565b60006001600160a01b03838116806151da576151da614c32565b92169190910492915050565b64ffffffffff818116838216019080821115614cd557614cd5614c6a56fea264697066735822122023d99aa3c066183fb4154bf6ae19603efc589307045e25a1fd83f423c3c53bd764736f6c63430008130033",
    "linkReferences": {}
  },
  "methodIdentifiers": {
    "burn(int24,int24,uint128)": "a34123a7",
    "collect(address,int24,int24,uint128,uint128)": "4f1eb3d8",
    "factory()": "c45a0155",
    "fee()": "ddca3f43",
    "feeGrowthGlobal0X128()": "f3058399",
    "feeGrowthGlobal1X128()": "46141319",
    "increaseObservationCardinalityNext(uint16)": "32148f67",
    "initialize(uint160)": "f637731d",
    "liquidity()": "1a686502",
    "maxLiquidityPerTick()": "70cf754a",
    "mint(address,int24,int24,uint128,bytes)": "3c8a7d8d",
    "observations(uint256)": "252c09d7",
    "observe(uint32[])": "883bdbfd",
    "positions(bytes32)": "514ea4bf",
    "protocolFees()": "1ad8b03b",
    "slot0()": "3850c7bd",
    "swap(address,bool,int256,uint160,bytes)": "128acb08",
    "tickBitmap(int16)": "5339c296",
    "tickSpacing()": "d0c93a7c",
    "ticks(int24)": "f30dba93",
    "token0()": "0dfe1681",
    "token1()": "d21220a7"
  },
  "id": 32
}