{
  "abi": [
    {
      "inputs": [],
      "stateMutability": "nonpayable",
      "type": "constructor"
    },
    {
      "anonymous": false,
      "inputs": [
        {
          "indexed": true,
          "internalType": "address",
          "name": "owner",
          "type": "address"
        },
        {
          "indexed": true,
          "internalType": "int24",
          "name": "tickLower",
          "type": "int24"
        },
        {
          "indexed": true,
          "internalType": "int24",
          "name": "tickUpper",
          "type": "int24"
        },
        {
          "indexed": false,
          "internalType": "uint128",
          "name": "amount",
          "type": "uint128"
        },
        {
          "indexed": false,
          "internalType": "uint256",
          "name": "amount0",
          "type": "uint256"
        },
        {
          "indexed": false,
          "internalType": "uint256",
          "name": "amount1",
          "type": "uint256"
        }
      ],
      "name": "Burn",
      "type": "event"
    },
    {
      "anonymous": false,
      "inputs": [
        {
          "indexed": true,
          "internalType": "address",
          "name": "owner",
          "type": "address"
        },
        {
          "indexed": false,
          "internalType": "address",
          "name": "recipient",
          "type": "address"
        },
        {
          "indexed": true,
          "internalType": "int24",
          "name": "tickLower",
          "type": "int24"
        },
        {
          "indexed": true,
          "internalType": "int24",
          "name": "tickUpper",
          "type": "int24"
        },
        {
          "indexed": false,
          "internalType": "uint128",
          "name": "amount0",
          "type": "uint128"
        },
        {
          "indexed": false,
          "internalType": "uint128",
          "name": "amount1",
          "type": "uint128"
        }
      ],
      "name": "Collect",
      "type": "event"
    },
    {
      "anonymous": false,
      "inputs": [
        {
          "indexed": true,
          "internalType": "address",
          "name": "sender",
          "type": "address"
        },
        {
          "indexed": true,
          "internalType": "address",
          "name": "recipient",
          "type": "address"
        },
        {
          "indexed": false,
          "internalType": "uint128",
          "name": "amount0",
          "type": "uint128"
        },
        {
          "indexed": false,
          "internalType": "uint128",
          "name": "amount1",
          "type": "uint128"
        }
      ],
      "name": "CollectProtocol",
      "type": "event"
    },
    {
      "anonymous": false,
      "inputs": [
        {
          "indexed": true,
          "internalType": "address",
          "name": "sender",
          "type": "address"
        },
        {
          "indexed": true,
          "internalType": "address",
          "name": "recipient",
          "type": "address"
        },
        {
          "indexed": false,
          "internalType": "uint256",
          "name": "amount0",
          "type": "uint256"
        },
        {
          "indexed": false,
          "internalType": "uint256",
          "name": "amount1",
          "type": "uint256"
        },
        {
          "indexed": false,
          "internalType": "uint256",
          "name": "paid0",
          "type": "uint256"
        },
        {
          "indexed": false,
          "internalType": "uint256",
          "name": "paid1",
          "type": "uint256"
        }
      ],
      "name": "Flash",
      "type": "event"
    },
    {
      "anonymous": false,
      "inputs": [
        {
          "indexed": false,
          "internalType": "uint16",
          "name": "observationCardinalityNextOld",
          "type": "uint16"
        },
        {
          "indexed": false,
          "internalType": "uint16",
          "name": "observationCardinalityNextNew",
          "type": "uint16"
        }
      ],
      "name": "IncreaseObservationCardinalityNext",
      "type": "event"
    },
    {
      "anonymous": false,
      "inputs": [
        {
          "indexed": false,
          "internalType": "uint160",
          "name": "sqrtPriceX96",
          "type": "uint160"
        },
        {
          "indexed": false,
          "internalType": "int24",
          "name": "tick",
          "type": "int24"
        }
      ],
      "name": "Initialize",
      "type": "event"
    },
    {
      "anonymous": false,
      "inputs": [
        {
          "indexed": false,
          "internalType": "address",
          "name": "sender",
          "type": "address"
        },
        {
          "indexed": true,
          "internalType": "address",
          "name": "owner",
          "type": "address"
        },
        {
          "indexed": true,
          "internalType": "int24",
          "name": "tickLower",
          "type": "int24"
        },
        {
          "indexed": true,
          "internalType": "int24",
          "name": "tickUpper",
          "type": "int24"
        },
        {
          "indexed": false,
          "internalType": "uint128",
          "name": "amount",
          "type": "uint128"
        },
        {
          "indexed": false,
          "internalType": "uint256",
          "name": "amount0",
          "type": "uint256"
        },
        {
          "indexed": false,
          "internalType": "uint256",
          "name": "amount1",
          "type": "uint256"
        }
      ],
      "name": "Mint",
      "type": "event"
    },
    {
      "anonymous": false,
      "inputs": [
        {
          "indexed": false,
          "internalType": "uint8",
          "name": "feeProtocol0Old",
          "type": "uint8"
        },
        {
          "indexed": false,
          "internalType": "uint8",
          "name": "feeProtocol1Old",
          "type": "uint8"
        },
        {
          "indexed": false,
          "internalType": "uint8",
          "name": "feeProtocol0New",
          "type": "uint8"
        },
        {
          "indexed": false,
          "internalType": "uint8",
          "name": "feeProtocol1New",
          "type": "uint8"
        }
      ],
      "name": "SetFeeProtocol",
      "type": "event"
    },
    {
      "anonymous": false,
      "inputs": [
        {
          "indexed": true,
          "internalType": "address",
          "name": "sender",
          "type": "address"
        },
        {
          "indexed": true,
          "internalType": "address",
          "name": "recipient",
          "type": "address"
        },
        {
          "indexed": false,
          "internalType": "int256",
          "name": "amount0",
          "type": "int256"
        },
        {
          "indexed": false,
          "internalType": "int256",
          "name": "amount1",
          "type": "int256"
        },
        {
          "indexed": false,
          "internalType": "uint160",
          "name": "sqrtPriceX96",
          "type": "uint160"
        },
        {
          "indexed": false,
          "internalType": "uint128",
          "name": "liquidity",
          "type": "uint128"
        },
        {
          "indexed": false,
          "internalType": "int24",
          "name": "tick",
          "type": "int24"
        }
      ],
      "name": "Swap",
      "type": "event"
    },
    {
      "inputs": [
        {
          "internalType": "int24",
          "name": "tickLower",
          "type": "int24"
        },
        {
          "internalType": "int24",
          "name": "tickUpper",
          "type": "int24"
        },
        {
          "internalType": "uint128",
          "name": "amount",
          "type": "uint128"
        }
      ],
      "name": "burn",
      "outputs": [
        {
          "internalType": "uint256",
          "name": "amount0",
          "type": "uint256"
        },
        {
          "internalType": "uint256",
          "name": "amount1",
          "type": "uint256"
        }
      ],
      "stateMutability": "nonpayable",
      "type": "function"
    },
    {
      "inputs": [
        {
          "internalType": "address",
          "name": "recipient",
          "type": "address"
        },
        {
          "internalType": "int24",
          "name": "tickLower",
          "type": "int24"
        },
        {
          "internalType": "int24",
          "name": "tickUpper",
          "type": "int24"
        },
        {
          "internalType": "uint128",
          "name": "amount0Requested",
          "type": "uint128"
        },
        {
          "internalType": "uint128",
          "name": "amount1Requested",
          "type": "uint128"
        }
      ],
      "name": "collect",
      "outputs": [
        {
          "internalType": "uint128",
          "name": "amount0",
          "type": "uint128"
        },
        {
          "internalType": "uint128",
          "name": "amount1",
          "type": "uint128"
        }
      ],
      "stateMutability": "nonpayable",
      "type": "function"
    },
    {
      "inputs": [
        {
          "internalType": "address",
          "name": "recipient",
          "type": "address"
        },
        {
          "internalType": "uint128",
          "name": "amount0Requested",
          "type": "uint128"
        },
        {
          "internalType": "uint128",
          "name": "amount1Requested",
          "type": "uint128"
        }
      ],
      "name": "collectProtocol",
      "outputs": [
        {
          "internalType": "uint128",
          "name": "amount0",
          "type": "uint128"
        },
        {
          "internalType": "uint128",
          "name": "amount1",
          "type": "uint128"
        }
      ],
      "stateMutability": "nonpayable",
      "type": "function"
    },
    {
      "inputs": [],
      "name": "factory",
      "outputs": [
        {
          "internalType": "address",
          "name": "",
          "type": "address"
        }
      ],
      "stateMutability": "view",
      "type": "function"
    },
    {
      "inputs": [],
      "name": "fee",
      "outputs": [
        {
          "internalType": "uint24",
          "name": "",
          "type": "uint24"
        }
      ],
      "stateMutability": "view",
      "type": "function"
    },
    {
      "inputs": [],
      "name": "feeGrowthGlobal0X128",
      "outputs": [
        {
          "internalType": "uint256",
          "name": "",
          "type": "uint256"
        }
      ],
      "stateMutability": "view",
      "type": "function"
    },
    {
      "inputs": [],
      "name": "feeGrowthGlobal1X128",
      "outputs": [
        {
          "internalType": "uint256",
          "name": "",
          "type": "uint256"
        }
      ],
      "stateMutability": "view",
      "type": "function"
    },
    {
      "inputs": [
        {
          "internalType": "address",
          "name": "recipient",
          "type": "address"
        },
        {
          "internalType": "uint256",
          "name": "amount0",
          "type": "uint256"
        },
        {
          "internalType": "uint256",
          "name": "amount1",
          "type": "uint256"
        },
        {
          "internalType": "bytes",
          "name": "data",
          "type": "bytes"
        }
      ],
      "name": "flash",
      "outputs": [],
      "stateMutability": "nonpayable",
      "type": "function"
    },
    {
      "inputs": [
        {
          "internalType": "uint16",
          "name": "observationCardinalityNext",
          "type": "uint16"
        }
      ],
      "name": "increaseObservationCardinalityNext",
      "outputs": [],
      "stateMutability": "nonpayable",
      "type": "function"
    },
    {
      "inputs": [
        {
          "internalType": "uint160",
          "name": "sqrtPriceX96",
          "type": "uint160"
        }
      ],
      "name": "initialize",
      "outputs": [],
      "stateMutability": "nonpayable",
      "type": "function"
    },
    {
      "inputs": [],
      "name": "liquidity",
      "outputs": [
        {
          "internalType": "uint128",
          "name": "",
          "type": "uint128"
        }
      ],
      "stateMutability": "view",
      "type": "function"
    },
    {
      "inputs": [],
      "name": "maxLiquidityPerTick",
      "outputs": [
        {
          "internalType": "uint128",
          "name": "",
          "type": "uint128"
        }
      ],
      "stateMutability": "view",
      "type": "function"
    },
    {
      "inputs": [
        {
          "internalType": "address",
          "name": "recipient",
          "type": "address"
        },
        {
          "internalType": "int24",
          "name": "tickLower",
          "type": "int24"
        },
        {
          "internalType": "int24",
          "name": "tickUpper",
          "type": "int24"
        },
        {
          "internalType": "uint128",
          "name": "amount",
          "type": "uint128"
        },
        {
          "internalType": "bytes",
          "name": "data",
          "type": "bytes"
        }
      ],
      "name": "mint",
      "outputs": [
        {
          "internalType": "uint256",
          "name": "amount0",
          "type": "uint256"
        },
        {
          "internalType": "uint256",
          "name": "amount1",
          "type": "uint256"
        }
      ],
      "stateMutability": "nonpayable",
      "type": "function"
    },
    {
      "inputs": [
        {
          "internalType": "uint256",
          "name": "",
          "type": "uint256"
        }
      ],
      "name": "observations",
      "outputs": [
        {
          "internalType": "uint32",
          "name": "blockTimestamp",
          "type": "uint32"
        },
        {
          "internalType": "int56",
          "name": "tickCumulative",
          "type": "int56"
        },
        {
          "internalType": "uint160",
          "name": "secondsPerLiquidityCumulativeX128",
          "type": "uint160"
        },
        {
          "internalType": "bool",
          "name": "initialized",
          "type": "bool"
        }
      ],
      "stateMutability": "view",
      "type": "function"
    },
    {
      "inputs": [
        {
          "internalType": "uint32[]",
          "name": "secondsAgos",
          "type": "uint32[]"
        }
      ],
      "name": "observe",
      "outputs": [
        {
          "internalType": "int56[]",
          "name": "tickCumulatives",
          "type": "int56[]"
        },
        {
          "internalType": "uint160[]",
          "name": "secondsPerLiquidityCumulativeX128s",
          "type": "uint160[]"
        }
      ],
      "stateMutability": "view",
      "type": "function"
    },
    {
      "inputs": [
        {
          "internalType": "bytes32",
          "name": "",
          "type": "bytes32"
        }
      ],
      "name": "positions",
      "outputs": [
        {
          "internalType": "uint128",
          "name": "liquidity",
          "type": "uint128"
        },
        {
          "internalType": "uint256",
          "name": "feeGrowthInside0LastX128",
          "type": "uint256"
        },
        {
          "internalType": "uint256",
          "name": "feeGrowthInside1LastX128",
          "type": "uint256"
        },
        {
          "internalType": "uint128",
          "name": "tokensOwed0",
          "type": "uint128"
        },
        {
          "internalType": "uint128",
          "name": "tokensOwed1",
          "type": "uint128"
        }
      ],
      "stateMutability": "view",
      "type": "function"
    },
    {
      "inputs": [],
      "name": "protocolFees",
      "outputs": [
        {
          "internalType": "uint128",
          "name": "token0",
          "type": "uint128"
        },
        {
          "internalType": "uint128",
          "name": "token1",
          "type": "uint128"
        }
      ],
      "stateMutability": "view",
      "type": "function"
    },
    {
      "inputs": [
        {
          "internalType": "uint8",
          "name": "feeProtocol0",
          "type": "uint8"
        },
        {
          "internalType": "uint8",
          "name": "feeProtocol1",
          "type": "uint8"
        }
      ],
      "name": "setFeeProtocol",
      "outputs": [],
      "stateMutability": "nonpayable",
      "type": "function"
    },
    {
      "inputs": [],
      "name": "slot0",
      "outputs": [
        {
          "internalType": "uint160",
          "name": "sqrtPriceX96",
          "type": "uint160"
        },
        {
          "internalType": "int24",
          "name": "tick",
          "type": "int24"
        },
        {
          "internalType": "uint16",
          "name": "observationIndex",
          "type": "uint16"
        },
        {
          "internalType": "uint16",
          "name": "observationCardinality",
          "type": "uint16"
        },
        {
          "internalType": "uint16",
          "name": "observationCardinalityNext",
          "type": "uint16"
        },
        {
          "internalType": "uint8",
          "name": "feeProtocol",
          "type": "uint8"
        },
        {
          "internalType": "bool",
          "name": "unlocked",
          "type": "bool"
        }
      ],
      "stateMutability": "view",
      "type": "function"
    },
    {
      "inputs": [
        {
          "internalType": "int24",
          "name": "tickLower",
          "type": "int24"
        },
        {
          "internalType": "int24",
          "name": "tickUpper",
          "type": "int24"
        }
      ],
      "name": "snapshotCumulativesInside",
      "outputs": [
        {
          "internalType": "int56",
          "name": "tickCumulativeInside",
          "type": "int56"
        },
        {
          "internalType": "uint160",
          "name": "secondsPerLiquidityInsideX128",
          "type": "uint160"
        },
        {
          "internalType": "uint32",
          "name": "secondsInside",
          "type": "uint32"
        }
      ],
      "stateMutability": "view",
      "type": "function"
    },
    {
      "inputs": [
        {
          "internalType": "address",
          "name": "recipient",
          "type": "address"
        },
        {
          "internalType": "bool",
          "name": "zeroForOne",
          "type": "bool"
        },
        {
          "internalType": "int256",
          "name": "amountSpecified",
          "type": "int256"
        },
        {
          "internalType": "uint160",
          "name": "sqrtPriceLimitX96",
          "type": "uint160"
        },
        {
          "internalType": "bytes",
          "name": "data",
          "type": "bytes"
        }
      ],
      "name": "swap",
      "outputs": [
        {
          "internalType": "int256",
          "name": "amount0",
          "type": "int256"
        },
        {
          "internalType": "int256",
          "name": "amount1",
          "type": "int256"
        }
      ],
      "stateMutability": "nonpayable",
      "type": "function"
    },
    {
      "inputs": [
        {
          "internalType": "int16",
          "name": "",
          "type": "int16"
        }
      ],
      "name": "tickBitmap",
      "outputs": [
        {
          "internalType": "uint256",
          "name": "",
          "type": "uint256"
        }
      ],
      "stateMutability": "view",
      "type": "function"
    },
    {
      "inputs": [],
      "name": "tickSpacing",
      "outputs": [
        {
          "internalType": "int24",
          "name": "",
          "type": "int24"
        }
      ],
      "stateMutability": "view",
      "type": "function"
    },
    {
      "inputs": [
        {
          "internalType": "int24",
          "name": "",
          "type": "int24"
        }
      ],
      "name": "ticks",
      "outputs": [
        {
          "internalType": "uint128",
          "name": "liquidityGross",
          "type": "uint128"
        },
        {
          "internalType": "int128",
          "name": "liquidityNet",
          "type": "int128"
        },
        {
          "internalType": "uint256",
          "name": "feeGrowthOutside0X128",
          "type": "uint256"
        },
        {
          "internalType": "uint256",
          "name": "feeGrowthOutside1X128",
          "type": "uint256"
        },
        {
          "internalType": "int56",
          "name": "tickCumulativeOutside",
          "type": "int56"
        },
        {
          "internalType": "uint160",
          "name": "secondsPerLiquidityOutsideX128",
          "type": "uint160"
        },
        {
          "internalType": "uint32",
          "name": "secondsOutside",
          "type": "uint32"
        },
        {
          "internalType": "bool",
          "name": "initialized",
          "type": "bool"
        }
      ],
      "stateMutability": "view",
      "type": "function"
    },
    {
      "inputs": [],
      "name": "token0",
      "outputs": [
        {
          "internalType": "address",
          "name": "",
          "type": "address"
        }
      ],
      "stateMutability": "view",
      "type": "function"
    },
    {
      "inputs": [],
      "name": "token1",
      "outputs": [
        {
          "internalType": "address",
          "name": "",
          "type": "address"
        }
      ],
      "stateMutability": "view",
      "type": "function"
    }
  ],
  "bytecode": {
    "object": "0x6101408060405234620002e557630890357360e41b815260a090600482828281335afa918215620002d95760009081908290839084966200021f575b5060e05260c0528452608052610100918083528060020b9081156200020a576200007d620000708284620d89e71905620002ff565b9183620d89e805620002ff565b60020b9060020b9003627fffff1990627fffff811382821217620001f55760020b908114600019831416620001e05762ffffff9190058116600101818111620001e05716908115620001cb57506001600160801b030461012090815260405161565693909290846200032e8539608051848181610447015281816108d80152610b70015251838181610a7201528181610f2c015281816112d8015281816129c901528181612bd201526130c5015260c0518381816103c4015281816109fe01528181610ee3015281816112a80152818161290c015261314b015260e05183818161038a01528181610fe001528181611b410152611fdc01525182818161040b0152818161194901528181611a66015281816123c9015281816125710152818161262e015281816126940152818161382c015261385b015251818181610cc5015281816136d401526137970152f35b601290634e487b7160e01b6000525260246000fd5b601183634e487b7160e01b6000525260246000fd5b601184634e487b7160e01b6000525260246000fd5b601283634e487b7160e01b6000525260246000fd5b939550505050833d8511620002d1575b601f8101601f191682016001600160401b03811183821017620002be578591839160405281010312620002ba576200026781620002ea565b6200027560208301620002ea565b916200028460408201620002ea565b9160608201519162ffffff83168303620002b65760800151958660020b8703620002b35750929190386200003b565b80fd5b8680fd5b8280fd5b634e487b7160e01b855260418452602485fd5b503d6200022f565b6040513d6000823e3d90fd5b600080fd5b51906001600160a01b0382168203620002e557565b9060020b9060020b02908160020b9182036200031757565b634e487b7160e01b600052601160045260246000fdfe608080604052600436101561001357600080fd5b600090813560e01c9081630dfe168114612bbe57508063128acb081461177e5780631a686502146117575780631ad8b03b14611725578063252c09d7146116c957806332148f67146116135780633850c7bd146115a65780633c8a7d8d14611348578063461413191461132a578063490e6cbc14610f675780634f1eb3d814610d81578063514ea4bf14610d1f5780635339c29614610ce957806370cf754a14610ca55780638206a4d114610b0757806385b6672914610862578063883bdbfd1461063d578063a34123a7146104ca578063a38807f214610476578063c45a015514610431578063d0c93a7c146103f3578063d21220a7146103ae578063ddca3f431461036e578063f305839914610350578063f30dba93146102b75763f637731d1461013f57600080fd5b346102b4576020806003193601126102b057610159612c01565b82546001600160a01b03929083166102875791817f98636036cb66a9c19a37435efc1e90142190214e8abeb821bdba3f2990dd4c959361019a604094615203565b9263ffffffff42166001606087516101b181612ce4565b8381528581018b90528881018b90520152605888901b600160581b600160f81b031688841b6affffffffffffff000000001690911717600160f81b176008558451926101fc84612ca0565b1692838352600160c08260020b94858582015289888201528260608201528260808201528960a08201520152630100000160d81b9063ffffffff60d81b1990600160c81b908664ffffffffff60d81b60005416179062ffffff60a01b9060a01b161761ffff60b81b8a60b81b1617171660ff60e81b8860e81b1617176000558351928352820152a180f35b6064906040519062461bcd60e51b825260048201526002602482015261414960f01b6044820152fd5b5080fd5b80fd5b50346102b45760203660031901126102b4576040610100916102d7612c64565b60020b81526005602052208054906001810154906003600282015491015491604051936001600160801b038116855260801d600f0b6020850152604084015260608301528060060b608083015260018060a01b038160381c1660a083015263ffffffff8160d81c1660c083015260f81c151560e0820152f35b50346102b457806003193601126102b4576020600154604051908152f35b50346102b457806003193601126102b457602060405162ffffff7f0000000000000000000000000000000000000000000000000000000000000000168152f35b50346102b457806003193601126102b4576040517f00000000000000000000000000000000000000000000000000000000000000006001600160a01b03168152602090f35b50346102b457806003193601126102b45760206040517f000000000000000000000000000000000000000000000000000000000000000060020b8152f35b50346102b457806003193601126102b4576040517f00000000000000000000000000000000000000000000000000000000000000006001600160a01b03168152602090f35b50346102b45760403660031901126102b457606063ffffffff6104a861049a612c64565b6104a2612c44565b90612df4565b906040939293519360060b845260018060a01b03166020840152166040820152f35b50346102b45760603660031901126102b4576105776105716040926104ed612c64565b6104f5612c44565b906104fe612c8a565b9183549261051160ff8560f01c16612ff2565b60ff60f01b1993841685556001600160801b0390811690610568610538600f84900b6139ef565b948a519061054582612ce4565b33825260020b9485602083015260020b95868c830152600f0b6060820152613175565b99919890613a10565b98613a10565b968815801590610634575b6105d6575b5050875190815286602082015285888201527f0c396cd989a39f4459b5fa1aed6a9a8dcdbc45908acfd67e028cd568da98982c60603392a4815416600160f01b17905582519182526020820152f35b60030190815461061d6105fd6105f0848d16858516613a21565b92848c169060801c613a21565b84546001600160801b031660809190911b6001600160801b031916178455565b166001600160801b03198254161790553880610587565b50871515610582565b50346102b457602090816003193601126102b4576001600160401b039160043583811161085e573660238201121561085e57806004013593841161085e5760248460051b82010136811161085a5763ffffffff90814216918554928360a01c60020b9161ffff93848660b81c16946001600160801b03600454169660c81c16966106c68b612fdb565b9a6106d46040519c8d612d1a565b8b52602401888b015b82821061083e575050506106f2861515614333565b8851986107176107018b612fdb565b9a61070f6040519c8d612d1a565b808c52612fdb565b888b01601f198092013682378251996107486107328c612fdb565b9b6107406040519d8e612d1a565b808d52612fdb565b8b820193013684378b5b8d85518210156107b657908c6107a6826107b1948f8f8f8f928f928f928f956107949561078c956107848b809a6148b7565b511690614448565b9290966148b7565b6001600160a01b0390911690526148b7565b9060060b9052613f3d565b610752565b939290508b94508c9160405195869560408701906040885251809152606087019390855b81811061082457505050858303868301525180835291810193925b82811061080457505050500390f35b83516001600160a01b0316855286955093810193928101926001016107f5565b825160060b865289985094840194918401916001016107da565b813584811681036108565781529089019089016106dd565b8b80fd5b8380fd5b8280fd5b50346102b45760603660031901126102b45761087c612c01565b602435916001600160801b0380841692838503610b025761089b612c8a565b938354926108ae60ff8560f01c16612ff2565b60ff60f01b199384168555604051638da5cb5b60e01b81526001600160a01b0392906020816004817f000000000000000000000000000000000000000000000000000000000000000088165afa908115610af7579084918891610ac9575b50163303610ac55760035497828916809211600014610abf575080975b88978160801c908185821611600014610ab75750915b829984811680610a46575b50505050818116806109c4575b5050604080516001600160801b03888116825289166020820152929093169233927f596b573906218d3411850b26a6b437d6c4522fdb43d2d2386263f86d50b8b1519250a3815416600160f01b179055604080516001600160801b03928316815292909116602083015290f35b600354918260801c809214610a2a575b509082610a2293926109ef8b6001600160801b0319926139d6565b60801b169116176003558716837f0000000000000000000000000000000000000000000000000000000000000000615558565b388080610957565b839291995092610a3c610a2294613b19565b99919293506109d4565b8214610a9f575b50610a598985926139d6565b16906001600160801b03191617600355610a96828816857f0000000000000000000000000000000000000000000000000000000000000000615558565b3880808061094a565b84919950610aaf610a5991613b19565b999150610a4d565b90509161093f565b97610929565b8580fd5b610aea915060203d8111610af0575b610ae28183612d1a565b810190613afa565b3861090c565b503d610ad8565b6040513d89823e3d90fd5b600080fd5b50346102b45760403660031901126102b45760043560ff8116809103610b025760243560ff811691828203610b0257835491610b4860ff8460f01c16612ff2565b60ff60f01b1983168555604051638da5cb5b60e01b81526001600160a01b03906020816004817f000000000000000000000000000000000000000000000000000000000000000086165afa908115610af7578791610c87575b50163303610c4d5781158015610c70575b80610c51575b15610c4d5760041b60f01681019260ff8411610c37577f973d8d92bb299f4af6ce49b52a8adb85ae46b9f214c4c4fc06ac77401237b1339160809160405191600f8660e81c168352600f8660ec1c16602084015260408301526060820152a161ffff60e81b191660e89190911b60ff60e81b1617600160f01b17815580f35b634e487b7160e01b600052601160045260246000fd5b8480fd5b50831580610bb8575060048410158015610bb85750600a841115610bb8565b5060048210158015610bb25750600a821115610bb2565b610c9f915060203d8111610af057610ae28183612d1a565b38610ba1565b50346102b457806003193601126102b45760206040516001600160801b037f0000000000000000000000000000000000000000000000000000000000000000168152f35b50346102b45760203660031901126102b4576004358060010b8091036102b0578160409160209352600683522054604051908152f35b50346102b45760203660031901126102b457604060a09160043581526007602052206001600160801b039081815416916001820154916003600282015491015492604051948552602085015260408401528116606083015260801c6080820152f35b50346102b45760a03660031901126102b457610d9b612c01565b610da3612c44565b91610dac612c54565b92610db5612c74565b90608435936001600160801b039586861696878703610b0257855494610de060ff8760f01c16612ff2565b60ff60f01b1995861687556003610df88487336148cb565b0191825499818b16928383821611600014610f61575082995b8b60801c809211600014610f595750995b81808b16938b85610f0d575b5050505089169182610eaa575b506040519360018060a01b031684526020840152604083015260020b9160020b907f70935338e69775456a85ddef226c395fb668b63fa0115f5f20610b388e6ca9c060603392a4815416600160f01b179055604080516001600160801b03928316815292909116602083015290f35b80610ebc8b610edc935460801c6139d6565b81546001600160801b031660809190911b6001600160801b031916179055565b610f0782857f0000000000000000000000000000000000000000000000000000000000000000615558565b38610e3b565b610f16916139d6565b16906001600160801b031916178355610f5082867f0000000000000000000000000000000000000000000000000000000000000000615558565b3881818b610e2e565b905099610e22565b99610e11565b50346102b45760803660031901126102b457610f81612c01565b602435604435916064356001600160401b038111610c4d57610fa7903690600401612c17565b855494610fb960ff8760f01c16612ff2565b60ff60f01b1995861687556004546001600160801b03939084169081156113015762ffffff7f0000000000000000000000000000000000000000000000000000000000000000169361101561100e868a613f4c565b9585613f4c565b8a61101e613096565b9361102761311c565b938b6112d1575b876112a1575b333b1561085e57604051630e9cbafb60e41b81529183918391829161105e91888e60048601613024565b038183335af180156112965761127e575b5050611079613096565b9061108c61108561311c565b9785613a58565b84811061127a578210611250576110a39083613a58565b828110610856578610611226576110c3926110bd91613a9e565b94613a9e565b93836111a8575b84611124575b505060405194855260208501526040840152606083015260018060a01b0316907fbdbdb71d7860376ba52b25a5028beea23581364a40522f6bcfb86bb1f2dca63360803392a3815416600160f01b17815580f35b6111639161115661115b92600f8c5460ec1c16801560001461119857508b905b808216908161116d575b505087613a9e565b613bc2565b600254613a58565b60025538806110d0565b600354916111876001600160801b0319918460801c613a21565b60801b16911617600355388061114e565b6111a29089613a7e565b90611144565b81600f8a5460e81c16801560001461120d57506111d76111df916111568c5b858116806111e7575b5088613a9e565b600154613a58565b6001556110ca565b866111f760035492828416613a21565b16906001600160801b03191617600355386111d0565b6111df916111566112216111d79389613a7e565b6111c7565b60405162461bcd60e51b8152602060048201526002602482015261463160f01b6044820152606490fd5b60405162461bcd60e51b8152602060048201526002602482015261046360f41b6044820152606490fd5b8c80fd5b61128790612cd1565b611292578a3861106f565b8a80fd5b6040513d84823e3d90fd5b6112cc888c7f0000000000000000000000000000000000000000000000000000000000000000615558565b611034565b6112fc8c8c7f0000000000000000000000000000000000000000000000000000000000000000615558565b61102e565b60405162461bcd60e51b81526020600482015260016024820152601360fa1b6044820152606490fd5b50346102b457806003193601126102b4576020600254604051908152f35b50346102b45760a03660031901126102b457611362612c01565b61136a612c44565b91611373612c54565b9061137c612c74565b6084356001600160401b03811161085e5761139b903690600401612c17565b9490936001600160801b038454936113b860ff8660f01c16612ff2565b60ff60f01b19948516865516968715610c4d57611409604051936113db85612ce4565b60018060a01b03169182855260020b9283602086015260020b9384604082015289600f0b6060820152613175565b979150978687928a15159081611596575b8a15159384611586575b333b15611292578b8d61144d8d93604051958694859463d348799760e01b865260048601613024565b038183335af1801561157b57908a91611563575b5050611511575b506114c3575b507f7a53080ba414158be7ec69b987b5fb7d07dee101fe85488f0853ae16239d0bde60806040998a51903382526020820152898b820152886060820152a4815416600160f01b17905582519182526020820152f35b6114cd8782613a58565b908110610ac5576114dc61311c565b106114e7573861146e565b60405162461bcd60e51b81526020600482015260026024820152614d3160f01b6044820152606490fd5b61151b8a82613a58565b90811061155f5761152a613096565b106115355738611468565b60405162461bcd60e51b815260206004820152600260248201526104d360f41b6044820152606490fd5b8780fd5b61156c90612cd1565b611577578838611461565b8880fd5b6040513d8c823e3d90fd5b945061159061311c565b94611424565b91506115a0613096565b9161141a565b50346102b457806003193601126102b45760e0905460ff6040519160018060a01b03811683528060a01c60020b602084015261ffff808260b81c166040850152808260c81c1660608501528160d81c166080840152818160e81c1660a084015260f01c16151560c0820152f35b50346102b45760203660031901126102b45761ffff600435818116810361085e5761165e82845461164960ff8260f01c16612ff2565b60ff60f01b198116865560d81c169182614363565b91821690835491808203611692575b505063ff00ffff60d81b191660d89190911b61ffff60d81b1617600160f01b17815580f35b7fac49e518f90a358f652e4400164f05a5d8f7e35e7747279bc3a93dbf584e125a9160409182519182526020820152a1388061166d565b50346102b45760203660031901126102b45760043561ffff8110156102b057608090600801546040519063ffffffff811682528060201c60060b602083015260018060a01b038160581c16604083015260f81c15156060820152f35b50346102b457806003193601126102b457600354604080516001600160801b038316815260809290921c602083015290f35b50346102b457806003193601126102b45760206001600160801b0360045416604051908152f35b50346102b45760a03660031901126102b457611798612c01565b906024351515602435036102b4576064356001600160a01b03811690036102b4576084356001600160401b0381116102b0576117d8903690600401612c17565b60443515612b94576117e8612d3b565b916117f860c08401511515612ff2565b60243515612b525782516001600160a01b039081166064359091161080612b39575b15612b0e57835460ff60f01b191684556004546001600160801b03169460243515612afd57600f60a085015116925b604051938460c08101106001600160401b0360c087011117612ae95760ff9060c0860160405216845286602085015263ffffffff421660408501528560608501528560808501528560a085015260018060a01b03855116966020860151602435600014612ae057600154905b604051996118c28b612ca0565b6044358b528960208c015260408b015260020b60608a015260808901528660a089015260c08801525b8651151580612ac3575b156126c45760405161190681612ca0565b8681528660208201528660408201528660608201528660808201528660a08201528660c082015260018060a01b036040890151168152606088015160020b61196e7f000000000000000000000000000000000000000000000000000000000000000082614c3a565b90888112908161268d575b5061265f575b6024351561240b576119a18160020b906101008260081d60010b920760ff1690565b90600160ff83161b6000198101116123f7576119de6119ca600160ff85161b6000198101613a58565b9160010b6000526006602052604060002090565b5416801580159391906123bc57808b91801561127a57600160801b8110156123ad575b5068010000000000000000811015612390575b640100000000811015612373575b62010000811015612357575b610100811015612327575b601081101561230a575b60048110156122d9575b600211156122ad575b611a99929160ff611a8b611a94937f000000000000000000000000000000000000000000000000000000000000000095614cd3565b168c0b90613aab565b614ce7565b905b1515604083015260020b60208201819052620d89e719908181121561228e575060208201525b60208101516001600160a01b0390611adb9060020b614cfe565b166060820181905260408901516001600160a01b0316906024351561227b576064356001600160a01b031681105b156122755750606435905b6001600160801b0360c08b015116908a518a808190828412156000146121805750611b6c62ffffff611b657f0000000000000000000000000000000000000000000000000000000000000000614b13565b1684613b53565b946001600160a01b038716851061216f57611b888186896149e7565b955b8681106120d5575086945b6001600160a01b0386811698168089149790969087831061207857888061206e575b1561205d575b97889581612053575b5015612044575050505b925b8c831280612033575b612022575b8c8312159081612017575b5015611fd557611bfa91613a9e565b60c085015260a0840152608083015260408901528660443513600014611f7e57611c2d608082015160c083015190613a58565b600160ff1b81101561155f57611c44908951613a65565b8852602088015160a082015190600160ff1b8210156115775790611c6791614065565b60208901525b60ff85511680611f38575b506001600160801b0360c08901511680611f12575b50604088015160608201516001600160a01b0391821691168103611ee357506040810151611d09575b60243515611cfd576020015160020b60001901627fffff198112627fffff821317611ce9575b60020b60608801526118eb565b634e487b7160e01b87526011600452602487fd5b6020015160020b611cdc565b60a085015115611e8d575b6001600160801b03611e5a602083015160020b602435600014611e8157611e4260808c0151915b8c60243515611e735750611e22600254915b63ffffffff8c60018060a01b0360808201511694611d848360406060850151940151169460020b6000526005602052604060002090565b97611d9560018a0191825490613a9e565b9055611da76002890191825490613a9e565b9055611ded611dc7600389019660018060a01b03885460381c1690612dc5565b8654600160381b600160d81b03191660389190911b600160381b600160d81b0316178655565b611e0085549160069083820b910b612da0565b66ffffffffffffff169066ffffffffffffff19161780855560d81c1690612dde565b815463ffffffff60d81b191660d89190911b63ffffffff60d81b16179055565b5460801d602435611e65575b8260c08c015116613f95565b1660c0890152611cb6565b611e6e906139ef565b611e4e565b6080611e2291015191611d4d565b611e4260015491611d3b565b611ec163ffffffff604087015116602088015160020b61ffff60408a015116906001600160801b0360208a015116926143ed565b6001600160a01b0316608087015260060b6060860152600160a0860152611d14565b90516001600160a01b03168103611efb575b506118eb565b611f0490615203565b60020b606088015238611ef5565b611f23611f2d9160c0840151613bc2565b60808a0151613a58565b608089015238611c8d565b611f726001600160801b03611f52819360c0860151613a7e565b611f608160c0870151613a9e565b60c0860152168260a08c015116613a21565b1660a089015238611c78565b60a0810151600160ff1b81101561155f57611f9a908951613a3c565b88526020880151611fb4608083015160c084015190613a58565b90600160ff1b8210156115775790611fcb91614048565b6020890152611c6d565b50506120127f000000000000000000000000000000000000000000000000000000000000000062ffffff8061200983614b13565b16911684613f79565b611bfa565b905085141538611beb565b925061202d82613a10565b92611be0565b5061203d83613a10565b8411611bdb565b61204e9350614a82565b611bd0565b8088129150611bc6565b506120698383836149e7565b611bbd565b5085871215611bb7565b90919088806120cb575b156120ba575b978895816120b0575b50156120a1575050505b92611bd2565b6120ab9350614993565b61209b565b8088129150612091565b506120c6838383614abc565b612088565b5085871215612082565b90919250841561215d57811561215d578d9291906001600160a01b038816861061210a57612104908287614b9e565b94611b95565b9192509061213390826001600160a01b0382116121615761212d9160601b613a7e565b85613a58565b84811061215d576001600160a01b03811681900361215d578d9291906001600160a01b0316612104565b8d80fd5b61216a91613e0b565b61212d565b61217a818887614abc565b95611b8a565b9490506001600160a01b03861684106122645761219e818588614a82565b905b816121aa85613a10565b106121b6578694611b95565b9091506121c283613a10565b841561215d57811561215d578d6001600160a01b038816861061225157506001600160a01b0381116122215760601b8180820615159104015b8085111561215d578d9291906001600160a01b039061221a9087613a9e565b1694611b95565b8161222c8183613e0b565b91600160601b9009156121fb5760001981101561215d5761224c90613f3d565b6121fb565b92919061225f908287614b29565b612104565b61226f818786614993565b906121a0565b90611b14565b6064356001600160a01b03168111611b09565b9050620d89e88091136122a2575b50611ac1565b60208201523861229c565b60ff600181831601116122c55760ff16600101611a56565b634e487b7160e01b8b52601160045260248bfd5b60021c9060ff600281831601116122f65760ff1660020190611a4d565b634e487b7160e01b8c52601160045260248cfd5b60041c9060ff600481831601116122f65760ff1660040190611a43565b600890811c9160ff8281831601116123435760ff160190611a39565b634e487b7160e01b8d52601160045260248dfd5b601090811c9160ff8281831601116123435760ff160190611a2e565b60201c9060ff602081831601116122f65760ff1660200190611a22565b60401c9060ff604081831601116122f65760ff1660400190611a14565b91505060801c60809038611a01565b5090611a946123f29260ff7f000000000000000000000000000000000000000000000000000000000000000093168c0b90613aab565b611a99565b634e487b7160e01b8a52601160045260248afd5b61242d61241782614c9a565b60020b906101008260081d60010b920760ff1690565b90600160ff83161b806000198101116122c55761245d9060001901199160010b6000526006602052604060002090565b5416801590811593846000146126095761247690614c9a565b9080926108565760ff906001600160801b038116156125ff575050607f5b6001600160401b038316156125f55760ff818116603f1901116122f65760ff16603f19015b63ffffffff8316156125eb5760ff818116601f1901116122f65760ff16601f19015b61ffff8316156125e15760ff818116600f1901116122f65760ff16600f19015b60ff8316156125d75760ff81811660071901116122f65760ff16600719015b600f8316156125cd5760ff81811660031901116122f65760ff16600319015b60038316156125c15760ff81811660011901116122f65760ff1660011901916001905b166125a5575b611a949060ff61259661259f957f000000000000000000000000000000000000000000000000000000000000000095614cd3565b168c0b90614cb5565b90611a9b565b9060ff80821660001901116122c55760ff166000190190612562565b9160019060021c61255c565b9160041c91612539565b9160081c9161251a565b9160101c916124fb565b9160201c916124db565b9160401c916124b9565b60801c9250612494565b90506126159150614c9a565b60ff8083168103116123f75790611a9461265a9260ff807f000000000000000000000000000000000000000000000000000000000000000094168103168c0b90614cb5565b61259f565b627fffff198160020b146126795760020b6000190161197f565b634e487b7160e01b88526011600452602488fd5b6126b991507f000000000000000000000000000000000000000000000000000000000000000090614c28565b60020b151538611979565b85876001600160801b0360208789606085015160020b8382015160020b80911415600014612a9c576127209161ffff806040830151169263ffffffff6040870151168888880151169260808160608701511695015116946140eb565b60018060a01b036040870151169160608701519188549061ffff60c81b9060c81b169064ffffffffff60d81b16179061ffff60b81b9060b81b16179062ffffff60a01b9060a01b16171785555b0151166001600160801b0360c083015116809103612a85575b5060243515612a385760808101516001556001600160801b0360a08201511680612a0b575b505b81604435136024351515146000146129f2576127cc8151604435613a65565b936020820151935b60243515612935578385126128fd575b6127ec613096565b96333b15610c4d5760405163fa461e3360e01b81529185918391829161281891908a8c60048601613024565b038183335af180156128f2579084916128de575b50506128388587613a58565b95861061085e5761285460409661284d613096565b1015613ac8565b60018060a01b0386830151169160606001600160801b0360c08301511691015160020b90875193878552866020860152888501526060840152608083015260018060a01b0316907fc42079f94a6350d7e6235f29174924f928cc2ac818eb64fed8004e115fbcca6760a03392a3805460ff60f01b1916600160f01b17905582519182526020820152f35b6128e790612cd1565b61085e57828761282c565b6040513d86823e3d90fd5b61293061290986613a10565b837f0000000000000000000000000000000000000000000000000000000000000000615558565b6127e4565b8386126129ba575b61294561311c565b96333b15610c4d5760405163fa461e3360e01b81529185918391829161297191908a8c60048601613024565b038183335af180156128f2576129a7575b5061298d8487613a58565b95861061085e576129a260409661284d61311c565b612854565b6129b390939193612cd1565b9186612982565b6129ed6129c687613a10565b837f0000000000000000000000000000000000000000000000000000000000000000615558565b61293d565b602081015193612a058251604435613a65565b936127d4565b6001600160801b03612a2260035492828416613a21565b16906001600160801b03191617600355856127ab565b60808101516002556001600160801b0360a08201511680612a5a575b506127ad565b6001600160801b0360035491612a758219918460801c613a21565b60801b1691161760035585612a54565b6001600160801b0319600454161760045585612786565b5050604084015185546001600160a01b0319166001600160a01b039190911617855561276d565b5060408701516064356001600160a01b03908116911614156118f5565b600254906118b5565b634e487b7160e01b87526041600452602487fd5b600f60a085015160041c1692611849565b60405162461bcd60e51b815260206004820152600360248201526214d41360ea1b6044820152606490fd5b506401000276a36064356001600160a01b03161161181a565b82516001600160a01b0390811660643590911611801561181a575073fffd8963efd1fc6a506488495d951d5263988d266064356001600160a01b03161061181a565b60405162461bcd60e51b8152602060048201526002602482015261415360f01b6044820152606490fd5b9050346102b057816003193601126102b0577f00000000000000000000000000000000000000000000000000000000000000006001600160a01b03168152602090f35b600435906001600160a01b0382168203610b0257565b9181601f84011215610b02578235916001600160401b038311610b025760208381860195010111610b0257565b602435908160020b8203610b0257565b604435908160020b8203610b0257565b600435908160020b8203610b0257565b606435906001600160801b0382168203610b0257565b604435906001600160801b0382168203610b0257565b60e081019081106001600160401b03821117612cbb57604052565b634e487b7160e01b600052604160045260246000fd5b6001600160401b038111612cbb57604052565b608081019081106001600160401b03821117612cbb57604052565b606081019081106001600160401b03821117612cbb57604052565b90601f801991011681019081106001600160401b03821117612cbb57604052565b60405190612d4882612ca0565b8160c060ff60005460018060a01b03811684528060a01c60020b602085015261ffff808260b81c166040860152808260c81c1660608601528160d81c166080850152818160e81c1660a085015260f01c161515910152565b600691820b910b0390667fffffffffffff198212667fffffffffffff831317610c3757565b6001600160a01b039182169082160391908211610c3757565b63ffffffff9182169082160391908211610c3757565b612dfe8282612f35565b60020b916000928084526005602052604084209260020b92838552600360408620910154948560060b60018060a01b0393848860381c169663ffffffff94858a60d81c169960f81c15610c4d5760030154948560060b968660381c1694818760d81c169660f81c156102b45750612e73612d3b565b916020830193845160020b908112600014612eb057505050505090612e9e612eaa94612ea493612da0565b95612dc5565b94612dde565b91929190565b969793961215612f1d574216945160020b906040015161ffff166004546001600160801b031690612ee192876143ed565b92612eeb91612da0565b90612ef591612da0565b95612eff91612dc5565b90612f0991612dc5565b94612f1391612dde565b90612eaa91612dde565b5050612eaa94979350612ea4929691612e9e91612da0565b9060020b9060020b81811215612fb057620d89e71913612f8557620d89e812612f5a57565b60405162461bcd60e51b815260206004820152600360248201526254554d60e81b6044820152606490fd5b60405162461bcd60e51b8152602060048201526003602482015262544c4d60e81b6044820152606490fd5b60405162461bcd60e51b8152602060048201526003602482015262544c5560e81b6044820152606490fd5b6001600160401b038111612cbb5760051b60200190565b15612ff957565b60405162461bcd60e51b81526020600482015260036024820152624c4f4b60e81b6044820152606490fd5b928492608095928552602085015260606040850152816060850152848401376000828201840152601f01601f1916010190565b3d15613091573d906001600160401b038211612cbb5760405191613085601f8201601f191660200184612d1a565b82523d6000602084013e565b606090565b60405160208101906370a0823160e01b8252306024820152602481526130bb81612cff565b60008092819251907f00000000000000000000000000000000000000000000000000000000000000005afa906130ef613057565b9180613110575b156102b4576020828051810103126102b457506020015190565b506020825110156130f6565b60405160208101906370a0823160e01b82523060248201526024815261314181612cff565b60008092819251907f00000000000000000000000000000000000000000000000000000000000000005afa906130ef613057565b906000906000906020840180516131986040870191825160020b9060020b612f35565b6131a0612d3b565b958660018060a01b0382511691845160020b926060855160020b9201936131d283826020885197015160020b946148cb565b93600154906002549060009260009582600f0b61366d575b9061325161325c9261325661320c8960020b6000526005602052604060002090565b6132516132268d60020b6000526005602052604060002090565b918b851261364a578d60026001830154920154955b1215613628576002600184015493015496613a9e565b613a9e565b95613a9e565b6040518060a08101106001600160401b0360a083011117612cbb5760a0810160405288546001600160801b038116825260018a0154602083015260028a0154604083015260038a0154926001600160801b03841660608401528360801c608084015284600f0b15600014613609576001600160801b03835116156135df576000956001600160801b03845116925b6001600160801b0361332b8161331161330760208a015187613a9e565b828a511690613d2a565b169682613322604083015188613a9e565b91511690613d2a565b169387600f0b6135c1575b505060018c015560028b015581158015906135b8575b61355c575b505050600f0b126134e9575b50505050968151600f0b613372575b50505050565b90919295602082969596015160020b875160020b908181126000146133ca57505050506133b46133aa6133bf9495965160020b614cfe565b925160020b614cfe565b9051600f0b9161492a565b915b3880808061336c565b90919293969550845160020b136000146134c25750506001600160801b03916134a06134ab9261348761347d86600454169461342f61ffff806040870151169088602088015160020b8260608a0151169260808a0151169363ffffffff4216906140eb565b906000549061ffff60b81b9060b81b169161ffff60c81b9060c81b169063ffffffff60b81b1916171760005561347260018060a01b03855116915160020b614cfe565b8a51600f0b9161492a565b985160020b614cfe565b90518751600f0b916001600160a01b0390911690614a3f565b9451600f0b90613f95565b166001600160801b031960045416176004556133c1565b6134d89196506134e3949592506133aa90614cfe565b9051600f0b91614a3f565b906133c1565b61352c575b506134fc575b80808061335d565b6135269060009060020b815260056020526003604082208281558260018201558260028201550155565b386134f4565b6135569060009060020b815260056020526003604082208281558260018201558260028201550155565b386134ee565b826001600160801b0361357761359294826135b09716613a21565b16906001600160801b031916178060038c015560801c613a21565b60038901906001600160801b0382549181199060801b169116179055565b388080613351565b5080151561334c565b6001600160801b0316906001600160801b031916178c553880613336565b60405162461bcd60e51b815260206004820152600260248201526104e560f41b6044820152606490fd5b60009561362286600f0b6001600160801b038516613f95565b926132ea565b613644600261363b60018601548a613a9e565b9401548b613a9e565b96613a9e565b8d613667600261365e60018501548b613a9e565b9301548c613a9e565b9561323b565b9550925061369f6000546001600160801b03600454169061ffff8160b81c169060a01c60020b63ffffffff42166143ed565b95909385600052600560205260406000206001600160801b03815416906136c985600f0b83613f95565b916001600160801b037f0000000000000000000000000000000000000000000000000000000000000000166001600160801b0384161161393557801561395f575b61373386600f0b6001600160801b0385166001600160801b03198554161760801d600f0b614048565b918280600f0b03610b02576001600160801b039283199060801b16838516179055159116151415968860005260056020526040600020926001600160801b03845416966001600160801b0361378b87600f0b8a613f95565b16926001600160801b037f0000000000000000000000000000000000000000000000000000000000000000168411613935578815613885575b50506137e685600f0b836001600160801b03198754161760801d600f0b614065565b918280600f0b03610b0257899761325c95613251946001600160801b03199060801b168317905515901514158099613856575b613827575b919250506131ea565b6138517f00000000000000000000000000000000000000000000000000000000000000008b614c5d565b61381e565b6138807f00000000000000000000000000000000000000000000000000000000000000008a614c5d565b613819565b828c13156138ae575b50506003840180546001600160f81b0316600160f81b17905538806137c4565b6001860185905560028601889055600386018054600160381b600160d81b03191660389290921b600160381b600160d81b031691909117815561392e9181547fff00000000ffffffffffffffffffffffffffffffffffffffff000000000000001666ffffffffffffff91909116174260d81b63ffffffff60d81b16179055565b388061388e565b60405162461bcd60e51b81526020600482015260026024820152614c4f60f01b6044820152606490fd5b84891315613984575b6003820180546001600160f81b0316600160f81b17905561370a565b600182018490556002820187905560038201805460388c901b600160381b600160d81b03166001600160f81b03199091161766ffffffffffffff8a16174260d81b63ffffffff60d81b16179055613968565b6001600160801b039182169082160391908211610c3757565b600f0b6f7fffffffffffffffffffffffffffffff198114610c375760000390565b600160ff1b8114610c375760000390565b9190916001600160801b0380809416911601918211610c3757565b91909160008382019384129112908015821691151617610c3757565b91908201809211610c3757565b81810392916000138015828513169184121617610c3757565b8115613a88570490565b634e487b7160e01b600052601260045260246000fd5b91908203918211610c3757565b600291820b910b0390627fffff198212627fffff831317610c3757565b15613acf57565b60405162461bcd60e51b815260206004820152600360248201526249494160e81b6044820152606490fd5b90816020910312610b0257516001600160a01b0381168103610b025790565b6001600160801b03168015610c37576000190190565b9081156001838004141715610c3757565b81810292918115918404141715610c3757565b906000198183099080830290818084109303948386039360009614613bb25750620f42409083821115610ac55791613ba0939160249695936001603f19880160061c019409119003613b40565b50634e487b7160e01b81526011600452fd5b9491925050620f42409250500490565b9190600160801b90600019828509938060801b92838087109603958087039614613d1b5785831115610b02578291099080613bfc81613a10565b1680910491613c1a600096600184808a030401908684119003613b40565b928060030296600388048203613cf3576002809818613c398184613b40565b890390898211613d075790613c4d91613b40565b613c578184613b40565b890390898211613d075790613c6b91613b40565b613c758184613b40565b890390898211613d075790613c8991613b40565b613c938184613b40565b890390898211613d075790613ca791613b40565b613cb18184613b40565b890390898211613d0757613ccf91613cc891613b40565b8093613b40565b8803978811613cf35750613cf09596613ce791613b40565b93030417613b40565b90565b634e487b7160e01b81526011600452602490fd5b634e487b7160e01b83526011600452602483fd5b50508092935015610b02570490565b90919060001983820983820291828083109203948286039260009614613d9057600160801b9183831115613d8c57613d8192613cf09697949260019209936001600160801b03190160801c01908484119003613b40565b910360801c17613b2f565b8680fd5b50505060801c9150565b90919060001983820983820291828083109203948286039260009614613e0157600160601b9183831115613d8c57613df692613cf09697949260019209936bffffffffffffffffffffffff190160601c01908484119003613b40565b910360601c17613b2f565b50505060601c9150565b9190600160601b90600019828509938060601b92838087109603958087039614613d1b5785831115610b02578291099080613bfc81613a10565b9091906000198382099280820292838086109503948086039514613e9f5750620f42409184831115610b025709118082038060fa1b04600160fa1b1491141715610c3757634e487b7160e01b600052601160045260246000fd5b93505050620f4240900490565b6000198282099082810292838084109303928084039314613f0157600160601b9183831115610b02570982811191828103928360a01b938404600160a01b1491141715610c3757613cf0920360601c17613b2f565b50505060601c90565b92916000198285099382810292838087109603958087039614613d1b5785831115610b02578291099080613bfc81613a10565b6000198114610c375760010190565b9190620f424090613f5d8185613e45565b9309613f6557565b90600019811015610b0257613cf090613f3d565b929190613f87828286613f0a565b938215613a885709613f6557565b9190600081600f0b12600014613ffb57613fb1613fc4916139ef565b6001600160801b039182918216856139d6565b93169083161015613fd157565b60405162461bcd60e51b81526020600482015260026024820152614c5360f01b6044820152606490fd5b614012906001600160801b03918291821685613a21565b93169083161061401e57565b60405162461bcd60e51b81526020600482015260026024820152614c4160f01b6044820152606490fd5b91909160006140578483613a3c565b9312159083121503610b0257565b91909160006140748483613a65565b9312159083131503610b0257565b9060405161408f81612ce4565b915463ffffffff81168352602081811c60060b90840152605881901c6001600160a01b0316604084015260f81c15156060830152565b90600161ffff80931601918211610c3757565b9061ffff809116918215613a8857160690565b95939192909261ffff93848810156141a95761410988600801614082565b9763ffffffff94858a5116868416146141f25786811680888b161190816141c9575b509161414c9961415192614157979695946000146141bf5750998a916140c5565b6140d8565b98614279565b918510156141a95781511690602081015160201b916affffffffffffff00000000600160581b600160f81b03604084015160581b1692606060ff60f81b910151151560f81b1693161717178360080155565b634e487b7160e01b600052603260045260246000fd5b9050998a916140c5565b90506000959493929195190190878211610c37579394929391929087168783161461414c61412b565b90985096505050505050565b6040519061420b82612ce4565b60006060838281528260208201528260408201520152565b9060060b9060060b02908160060b918203610c3757565b9060060b9060060b0190667fffffffffffff198212667fffffffffffff831317610c3757565b6001600160a01b039182169082160191908211610c3757565b6040929391936142876141fe565b5063ffffffff926142c061429e8585511688612dde565b926142b760208601519187861660030b9060020b614223565b9060060b61423a565b92909401516001600160a01b0394908516906001600160801b03908181161561432b575b168015613a88576143029260801b63ffffffff60801b160490614260565b916040519461431086612ce4565b16845260060b60208401521660408201526001606082015290565b5060016142e4565b1561433a57565b60405162461bcd60e51b81526020600482015260016024820152604960f81b6044820152606490fd5b61ffff9081811690614376821515614333565b828416918211156143e6575b81838216106143915750505090565b828110156143d15760088101805463ffffffff1916600117905582168083146143bc57600101614382565b60246000634e487b7160e01b81526011600452fd5b60246000634e487b7160e01b81526032600452fd5b9250505090565b93929161ffff8110156141a95761440690600801614082565b9363ffffffff8086511690821603614435575b505050602082015160060b91604060018060a01b039101511690565b61443f9394614279565b90388080614419565b929594919593909363ffffffff96878616156145865761446c859661447396612dde565b80966145cb565b919093808551168183168181146000146144a5575050505050602082015160060b91604060018060a01b039101511690565b8285979551168091146000146144d3575050505050602082015160060b91604060018060a01b039101511690565b6144eb916144e091612dde565b928285511690612dde565b602084015160060b90826145068360208a015160060b612da0565b60060b941690600382900b8015613a8857667fffffffffffff198614600019821416610c3757613cf09661457461455961457f9661455360409a8b9a61457a9816968760030b9105614223565b9061423a565b9a60018060a01b038080998195015116998a92015116612dc5565b16613b40565b613a7e565b1690614260565b93925090935061ffff8110156141a9576145a290600801614082565b94808651169082160361443557505050602082015160060b91604060018060a01b039101511690565b919590926145d76141fe565b506145e06141fe565b9661ffff97888310156141a9576008966145fb848901614082565b9063ffffffff9361461089868551168a61483e565b6147f657505050506146258761414c846140c5565b888110156141a957614638908701614082565b91606092868385830151156147af575b6146549251168761483e565b15614784578861467a8961414c839461466b6141fe565b506146746141fe565b506140c5565b169716956146888789613a58565b60001998818a01918211610c37575b6146a18282613a58565b91600192831c926146b28b856148ad565b8d8110156141a9576146c5908601614082565b90878201511561476e57840190818511610c37578d906146e58d846148ad565b918210156141a9576146f98b928801614082565b908c614709818b8451168661483e565b93849182614758575b5050614745575050614738575050898201918211610c37576146a191905b909150614697565b9091506146a19250614730565b9e509c50979a5050505050505050505050565b61476792508b8551169161483e565b8c8e614712565b919250508201809211610c37576146a191614730565b60405162461bcd60e51b815260206004820152600360248201526213d31160ea1b6044820152606490fd5b61465492506040516147c081612ce4565b8a548281168252602081811c60060b90830152605881901c6001600160a01b0316604083015260f81c1515878201529250614648565b9650969498509650975080915085511690821614600014614818575050509190565b83613cf0949650614279565b9064010000000064ffffffffff80931601918211610c3757565b63ffffffff8080921692168281118015806148a1575b614896571561488757925b1690811115614879575b64ffffffffff8091169116111590565b61488290614824565b614869565b61489090614824565b9261485f565b509290915016101590565b50838386161115614854565b8115613a88570690565b80518210156141a95760209160051b010190565b916040519160208301936bffffffffffffffffffffffff199060601b16845260e81b603483015260e81b6037820152601a8152604081018181106001600160401b03821117612cbb576040525190206000526007602052604060002090565b909160008082600f0b1260001461496d575091614949614958936139ef565b6001600160801b031691614993565b600160ff1b811015610b0257613cf090613a10565b9261498292916001600160801b0316916149e7565b90600160ff1b8210156102b4575090565b6001600160a01b0392909190838216848416116149df575b83806149b78585612dc5565b169316928315610b0257613cf09461457a93169160601b600160601b600160e01b0316613f0a565b9190916149ab565b6001600160a01b03929082841684821611614a39575b8380614a098386612dc5565b169116938415610b0257614a2d93169160601b600160601b600160e01b0316613f79565b90808206151591040190565b916149fd565b909160008082600f0b12600014614a6d575091614a5e614958936139ef565b6001600160801b031691614a82565b9261498292916001600160801b031691614abc565b613cf092916001600160801b03916001600160a01b0391614aae919083811684831611614ab657612dc5565b169116613d9a565b90612dc5565b6001600160a01b03916001600160801b0391614ae29180851685831611614ab657612dc5565b9216911690614af18282613eac565b91600160601b9109614b005790565b600019811015610b0257613cf090613f3d565b9062ffffff809216620f424003918211610c3757565b91908115614b99576001600160a01b039260609190911b600160601b600160e01b031690831680614b64614b5d8286613b40565b9485613a7e565b1480614b90575b15610b0257614b7d614b839383613a9e565b91613f79565b908116908103610b025790565b50828211614b6b565b505090565b91908115614b99576001600160a01b039260609190911b600160601b600160e01b031691908316614bcf8183613b40565b81614bda8483613a7e565b14614c08575b50614bee614bf59184613a7e565b9182613a58565b908110610b025780820615159104011690565b614c129084613a58565b838110614be0579150614c2492613f79565b1690565b9060020b908115613a885760020b0790565b60020b9060020b908115613a8857627fffff198114600019831416610c37570590565b614c678282614c28565b60020b610b0257614c7b9161241791614c3a565b9060010b6000526006602052600160ff604060002092161b8154189055565b60020b60010190627fffff8213627fffff19831217610c3757565b9060020b9060020b0190627fffff198212627fffff831317610c3757565b9060ff8091169116039060ff8211610c3757565b9060020b9060020b02908160020b918203610c3757565b60020b60008112156151fd57614d1381613a10565b620d89e88160020b136151d45760018116156151c2576001600160881b036ffffcb933bd6fad37aa2d162d1a5940015b169160028216615196575b60049182811661516a575b6008811661513e575b60108116615112575b602081166150e6575b604081166150ba575b60809081811661508f575b6101008116615064575b6102008116615039575b610400811661500e575b6108008116614fe3575b6110008116614fb8575b6120008116614f8d575b6140008116614f62575b6180008116614f37575b620100008116614f0c575b620200008116614ee2575b620400008116614ea4575b6208000016614e65575b50600012614e3f575b5063ffffffff8116614e3457614c246000915b6001600160a01b039260ff169060201c613a58565b614c24600191614e1f565b8115614e5057506000190438614e0c565b601290634e487b7160e01b6000525260246000fd5b6b048a170391f7dc42444e8fa293919391828102928184041490151715614e8f571c916000614e03565b601183634e487b7160e01b6000525260246000fd5b936d2216e584f5fa1ea926041bedfe9890818102918183041490151715614ecd57811c93614df9565b601184634e487b7160e01b6000525260246000fd5b936e5d6af8dedb81196699c329225ee60490818102918183041490151715614ecd57811c93614dee565b936f09aa508b5b7a84e1c677de54f3e99bc990818102918183041490151715614ecd57811c93614de3565b936f31be135f97d08fd981231505542fcfa690818102918183041490151715614ecd57811c93614dd8565b936f70d869a156d2a1b890bb3df62baf32f790818102918183041490151715614ecd57811c93614dce565b936fa9f746462d870fdf8a65dc1f90e061e590818102918183041490151715614ecd57811c93614dc4565b936fd097f3bdfd2022b8845ad8f792aa582590818102918183041490151715614ecd57811c93614dba565b936fe7159475a2c29b7443b29c7fa6e889d990818102918183041490151715614ecd57811c93614db0565b936ff3392b0822b70005940c7a398e4b70f390818102918183041490151715614ecd57811c93614da6565b936ff987a7253ac413176f2b074cf7815e5490818102918183041490151715614ecd57811c93614d9c565b936ffcbe86c7900a88aedcffc83b479aa3a490818102918183041490151715614ecd57811c93614d92565b936ffe5dee046a99a2a811c461f1969c305390818102918183041490151715614ecd57811c93614d88565b926fff2ea16466c96a3843ec78b326b5286190818102918183041490151715614e8f5760801c92614d7d565b926fff973b41fa98c081472e6896dfb254c090818102918183041490151715614e8f5760801c92614d74565b926fffcb9843d60f6159c9db58835c92664490818102918183041490151715614e8f5760801c92614d6b565b926fffe5caca7e10e4e61c3624eaa0941cd090818102918183041490151715614e8f5760801c92614d62565b926ffff2e50f5f656932ef12357cf3c7fdcc90818102918183041490151715614e8f5760801c92614d59565b916ffff97272373d413259a46990580e213a90818102918183041490151715610c375760801c91614d4e565b6001600160881b03600160801b614d43565b60405162461bcd60e51b81526020600482015260016024820152601560fa1b6044820152606490fd5b80614d13565b6001600160a01b03818116916401000276a38310158061553b575b1561551257640100000000600160c01b039060201b1690816001600160801b03831160071b9280841c916001600160401b03831160061b92831c9463ffffffff861160051b95861c9360049661ffff8611881b95861c60ff9687821160031b91821c92600f841160021b93841c94600160038711811b96871c1196171717171717179160808310156000146154fe5750607e1982018281116154e9571c5b607f1982019182136001166154d4578002607f928392828493841c81841c1c800280851c81851c1c800280861c81861c1c800280871c81871c1c80029081881c82881c1c80029283891c84891c1c800294858a1c868a1c1c800296878b1c888b1c1c800298898c1c8a8c1c1c80029a8b8d1c8c821c1c8002809d1c8d821c1c8002809e81901c90821c1c80029e8f80911c911c1c800260cd1c6604000000000000169d60cc1c6608000000000000169c60cb1c6610000000000000169b60ca1c6620000000000000169a60c91c6640000000000000169960c81c6680000000000000169860c71c670100000000000000169760c61c670200000000000000169660c51c670400000000000000169560c41c670800000000000000169460c31c671000000000000000169360c21c672000000000000000169260c11c674000000000000000169160c01c678000000000000000169060401b1717171717171717171717171717693627a301d71055774c8590818102918183051490151715614e8f576f028f6481ab7f045a5af012a19d003aa9198101600182821316614ecd5760801d60020b926fdb2df09e81959a81455e260799a0632f91600083820193841291129080158216911516176154bf575060801d60020b926000918385036154a557505050905090565b6154ae85614cfe565b161190506154ba575090565b905090565b601190634e487b7160e01b6000525260246000fd5b601185634e487b7160e01b6000525260246000fd5b601186634e487b7160e01b6000525260246000fd5b905081607f03607f81116154e9571b6152bc565b60405162461bcd60e51b81526020600482015260016024820152602960f91b6044820152606490fd5b5073fffd8963efd1fc6a506488495d951d5263988d26831061521e565b60405163a9059cbb60e01b602082019081526001600160a01b0390931660248201526044808201949094529283529161559081612ce4565b600092839283809351925af1906155a5613057565b90826155df575b5050156155b557565b60405162461bcd60e51b81526020600482015260026024820152612a2360f11b6044820152606490fd5b90809250519182159283156155f9575b50505038806155ac565b8192935090602091810103126102b057602001519081151582036102b457503880806155ef56fea26469706673582212207ae0e30fda8683036328302530ac8a59c27ba82ae804be84437162c555cf947c64736f6c63430008130033",
    "linkReferences": {}
  },
  "methodIdentifiers": {
    "burn(int24,int24,uint128)": "a34123a7",
    "collect(address,int24,int24,uint128,uint128)": "4f1eb3d8",
    "collectProtocol(address,uint128,uint128)": "85b66729",
    "factory()": "c45a0155",
    "fee()": "ddca3f43",
    "feeGrowthGlobal0X128()": "f3058399",
    "feeGrowthGlobal1X128()": "46141319",
    "flash(address,uint256,uint256,bytes)": "490e6cbc",
    "increaseObservationCardinalityNext(uint16)": "32148f67",
    "initialize(uint160)": "f637731d",
    "liquidity()": "1a686502",
    "maxLiquidityPerTick()": "70cf754a",
    "mint(address,int24,int24,uint128,bytes)": "3c8a7d8d",
    "observations(uint256)": "252c09d7",
    "observe(uint32[])": "883bdbfd",
    "positions(bytes32)": "514ea4bf",
    "protocolFees()": "1ad8b03b",
    "setFeeProtocol(uint8,uint8)": "8206a4d1",
    "slot0()": "3850c7bd",
    "snapshotCumulativesInside(int24,int24)": "a38807f2",
    "swap(address,bool,int256,uint160,bytes)": "128acb08",
    "tickBitmap(int16)": "5339c296",
    "tickSpacing()": "d0c93a7c",
    "ticks(int24)": "f30dba93",
    "token0()": "0dfe1681",
    "token1()": "d21220a7"
  },
  "id": 61
}