{
  "abi": [
    {
      "inputs": [
        {
          "internalType": "address",
          "name": "",
          "type": "address"
        },
        {
          "internalType": "address",
          "name": "",
          "type": "address"
        },
        {
          "internalType": "uint256",
          "name": "",
          "type": "uint256"
        },
        {
          "internalType": "uint256",
          "name": "",
          "type": "uint256"
        },
        {
          "internalType": "uint256",
          "name": "",
          "type": "uint256"
        }
      ],
      "name": "onLiquidityMining",
      "outputs": [
        {
          "internalType": "bool",
          "name": "",
          "type": "bool"
        }
      ],
      "stateMutability": "nonpayable",
      "type": "function"
    }
  ],
  "bytecode": {
    "object": "0x60808060405234601457609a908161001a8239f35b600080fdfe6080806040526004361015601257600080fd5b600090813560e01c6350385dc114602857600080fd5b34605c5760a0366003190112605c576001600160a01b036004358181160360605760243590811603605c5780600160209252f35b5080fd5b8280fdfea2646970667358221220fdeda2c768fe23f6fa9d27ab32dd390f94f7c2dbc2c4c50ea7a17dbe7a4b8ae064736f6c63430008130033",
    "linkReferences": {}
  },
  "methodIdentifiers": {
    "onLiquidityMining(address,address,uint256,uint256,uint256)": "50385dc1"
  },
  "id": 105
}