{
  "abi": [
    {
      "inputs": [
        {
          "internalType": "address",
          "name": "",
          "type": "address"
        },
        {
          "internalType": "address",
          "name": "",
          "type": "address"
        },
        {
          "internalType": "uint256",
          "name": "",
          "type": "uint256"
        },
        {
          "internalType": "uint256",
          "name": "",
          "type": "uint256"
        },
        {
          "internalType": "uint256",
          "name": "",
          "type": "uint256"
        }
      ],
      "name": "onLiquidityMining",
      "outputs": [
        {
          "internalType": "bool",
          "name": "",
          "type": "bool"
        }
      ],
      "stateMutability": "nonpayable",
      "type": "function"
    }
  ],
  "bytecode": {
    "object": "0x608060405234801561001057600080fd5b5060f08061001f6000396000f3fe6080604052348015600f57600080fd5b506004361060285760003560e01c806350385dc114602d575b600080fd5b604360383660046072565b600195945050505050565b604051901515815260200160405180910390f35b80356001600160a01b0381168114606d57600080fd5b919050565b600080600080600060a08688031215608957600080fd5b6090866057565b9450609c602087016057565b9497949650505050604083013592606081013592608090910135915056fea264697066735822122095ccf5793e1c0d3849d9d6b5c707a24b412a285099cd024950813207a8b44be164736f6c63430008130033",
    "linkReferences": {}
  },
  "methodIdentifiers": {
    "onLiquidityMining(address,address,uint256,uint256,uint256)": "50385dc1"
  },
  "id": 163
}