{
  "abi": [
    {
      "inputs": [],
      "name": "NotLiquidable",
      "type": "error"
    },
    {
      "inputs": [
        {
          "internalType": "contract IUniswapV3Pool",
          "name": "pool",
          "type": "address"
        },
        {
          "internalType": "address",
          "name": "owner",
          "type": "address"
        },
        {
          "internalType": "uint24",
          "name": "contractId",
          "type": "uint24"
        }
      ],
      "name": "liquidateFuture",
      "outputs": [],
      "stateMutability": "nonpayable",
      "type": "function"
    }
  ],
  "bytecode": {
    "object": "0x608060405234801561001057600080fd5b50600d80546001600160a01b031916301790556105ee806100326000396000f3fe608060405234801561001057600080fd5b506004361061002b5760003560e01c80631289c03714610030575b600080fd5b61004361003e36600461044a565b610045565b005b60405163d281198160e01b81526001600160a01b0380851660048301528316602482015262ffffff8216604482015260009081908190309063d281198190606401606060405180830381865afa1580156100a3573d6000803e3d6000fd5b505050506040513d601f19601f820116820180604052508101906100c791906104aa565b925092509250826100eb57604051634eb60de760e01b815260040160405180910390fd5b6001600160a01b038087166000908152600c60209081526040808320938916835292815282822062ffffff881683529052818120825161014081019093528054919291829060ff166001811115610144576101446104df565b6001811115610155576101556104df565b815281546001600160a01b03610100918290048116602084015260018401546040840152600284015460608401526003840154608084015260048085015460a0850152600585015490911660c0840152600684015460e084015260078401549183019190915260088301546101209092019160ff16908111156101da576101da6104df565b60048111156101eb576101eb6104df565b815250509050600061271062ffffff16886001600160a01b031663ddca3f436040518163ffffffff1660e01b8152600401602060405180830381865afa158015610239573d6000803e3d6000fd5b505050506040513d601f19601f8201168201806040525081019061025d91906104f5565b62ffffff1661026b8561052f565b610275919061054b565b61027f9190610568565b60c083015160405163a9059cbb60e01b8152336004820152602481018390529192506001600160a01b03169063a9059cbb906044016020604051808303816000875af11580156102d3573d6000803e3d6000fd5b505050506040513d601f19601f820116820180604052508101906102f7919061058a565b508160c001516001600160a01b031663a9059cbb8883856080015161031c91906105a5565b6040516001600160e01b031960e085901b1681526001600160a01b03909216600483015260248201526044016020604051808303816000875af1158015610367573d6000803e3d6000fd5b505050506040513d601f19601f8201168201806040525081019061038b919061058a565b5050506001600160a01b039586166000908152600c6020908152604080832097909816825295865286812062ffffff909516815293909452505091822080546001600160a81b0319168155600181018390556002810183905560038101839055600481018390556005810180546001600160a01b031916905560068101839055600781019290925550600801805460ff19169055565b6001600160a01b038116811461043657600080fd5b50565b62ffffff8116811461043657600080fd5b60008060006060848603121561045f57600080fd5b833561046a81610421565b9250602084013561047a81610421565b9150604084013561048a81610439565b809150509250925092565b805180151581146104a557600080fd5b919050565b6000806000606084860312156104bf57600080fd5b6104c884610495565b925060208401519150604084015190509250925092565b634e487b7160e01b600052602160045260246000fd5b60006020828403121561050757600080fd5b815161051281610439565b9392505050565b634e487b7160e01b600052601160045260246000fd5b6000600160ff1b820161054457610544610519565b5060000390565b808202811582820484141761056257610562610519565b92915050565b60008261058557634e487b7160e01b600052601260045260246000fd5b500490565b60006020828403121561059c57600080fd5b61051282610495565b818103818111156105625761056261051956fea26469706673582212204a80134e11bcdca2b8445130f99186448eebe1964d3fd9c2452876e11659d4eb64736f6c63430008130033",
    "linkReferences": {}
  },
  "methodIdentifiers": {
    "liquidateFuture(address,address,uint24)": "1289c037"
  },
  "id": 4
}