{
  "abi": [
    {
      "inputs": [
        {
          "internalType": "address",
          "name": "tokenA",
          "type": "address"
        },
        {
          "internalType": "address",
          "name": "tokenB",
          "type": "address"
        },
        {
          "internalType": "uint24",
          "name": "fee",
          "type": "uint24"
        }
      ],
      "name": "NotExistingPool",
      "type": "error"
    },
    {
      "inputs": [
        {
          "internalType": "address",
          "name": "tokenA",
          "type": "address"
        },
        {
          "internalType": "address",
          "name": "tokenB",
          "type": "address"
        },
        {
          "internalType": "uint24",
          "name": "poolFee",
          "type": "uint24"
        },
        {
          "internalType": "uint128",
          "name": "amountIn",
          "type": "uint128"
        },
        {
          "internalType": "uint32",
          "name": "secondsAgo",
          "type": "uint32"
        },
        {
          "internalType": "bool",
          "name": "isXSwapPool",
          "type": "bool"
        }
      ],
      "name": "estimatePriceSupportedPools",
      "outputs": [
        {
          "internalType": "uint256",
          "name": "amountOut",
          "type": "uint256"
        }
      ],
      "stateMutability": "view",
      "type": "function"
    },
    {
      "inputs": [
        {
          "internalType": "uint128",
          "name": "amountIn",
          "type": "uint128"
        },
        {
          "internalType": "uint32",
          "name": "secondsAgo",
          "type": "uint32"
        }
      ],
      "name": "estimateWXDConXUSDT",
      "outputs": [
        {
          "internalType": "uint256",
          "name": "amountOut",
          "type": "uint256"
        }
      ],
      "stateMutability": "view",
      "type": "function"
    }
  ],
  "bytecode": {
    "object": "0x608060405234801561001057600080fd5b50600d80546001600160a01b031916301790556110ae806100326000396000f3fe608060405234801561001057600080fd5b50600436106100365760003560e01c806372a03a071461003b578063e9d7643d14610060575b600080fd5b61004e610049366004610bf5565b610073565b60405190815260200160405180910390f35b61004e61006e366004610c40565b61023c565b6040805160028082526060820183526000928392919060208301908036833701905050905082816000815181106100ac576100ac610ce1565b602002602001019063ffffffff16908163ffffffff16815250506000816001815181106100db576100db610ce1565b63ffffffff9092166020928302919091019091015260405163883bdbfd60e01b815260009073789d5d3dd968a763d20f540d085df58223d139fc9063883bdbfd9061012a908590600401610cf7565b600060405180830381865afa158015610147573d6000803e3d6000fd5b505050506040513d6000823e601f3d908101601f1916820160405261016f9190810190610e0a565b50905060008160008151811061018757610187610ce1565b6020026020010151826001815181106101a2576101a2610ce1565b60200260200101516101b49190610eec565b905060006101c6600387900b83610f35565b905060008260060b1280156101ea57506101e4600387900b83610f73565b60060b15155b156101fd57806101f981610f95565b9150505b610231818873951857744785e80e2de051c32ee7b25f9c458c4273d4b5f10d61916bd6e0860144a91ac658de8a143761051d565b979650505050505050565b6000806000876001600160a01b0316896001600160a01b031610610261578789610264565b88885b915091506000846102a9576001600160a01b0380841660009081526008602090815260408083208685168452825280832062ffffff8d16845290915290205416610338565b604051630b4c774160e11b81526001600160a01b0380851660048301528316602482015262ffffff89166044820152731b02da8cb0d097eb8d57a175b88c7d8b4799750690631698ee8290606401602060405180830381865afa158015610314573d6000803e3d6000fd5b505050506040513d601f19601f820116820180604052508101906103389190610fb8565b90506001600160a01b0381166103845760405163e8e87b3360e01b81526001600160a01b0380851660048301528316602482015262ffffff891660448201526064015b60405180910390fd5b60408051600280825260608201835260009260208301908036833701905050905086816000815181106103b9576103b9610ce1565b602002602001019063ffffffff16908163ffffffff16815250506000816001815181106103e8576103e8610ce1565b63ffffffff9092166020928302919091019091015260405163883bdbfd60e01b81526000906001600160a01b0384169063883bdbfd9061042c908590600401610cf7565b600060405180830381865afa158015610449573d6000803e3d6000fd5b505050506040513d6000823e601f3d908101601f191682016040526104719190810190610e0a565b50905060008160008151811061048957610489610ce1565b6020026020010151826001815181106104a4576104a4610ce1565b60200260200101516104b69190610eec565b905060006104c860038b900b83610f35565b905060008260060b1280156104ec57506104e660038b900b83610f73565b60060b15155b156104ff57806104fb81610f95565b9150505b61050b818c898961051d565b9e9d5050505050505050505050505050565b6000806105298661062b565b90506001600160801b036001600160a01b038216116105af5760006105576001600160a01b03831680610fd5565b9050836001600160a01b0316856001600160a01b03161061058f5761058a600160c01b876001600160801b031683610a4d565b6105a7565b6105a781876001600160801b0316600160c01b610a4d565b925050610622565b60006105ce6001600160a01b0383168068010000000000000000610a4d565b9050836001600160a01b0316856001600160a01b03161061060657610601600160801b876001600160801b031683610a4d565b61061e565b61061e81876001600160801b0316600160801b610a4d565b9250505b50949350505050565b60008060008360020b12610642578260020b61064f565b8260020b61064f90610fec565b905061065e620d89e719611008565b62ffffff168111156106965760405162461bcd60e51b81526020600482015260016024820152601560fa1b604482015260640161037b565b6000816001166000036106ad57600160801b6106bf565b6ffffcb933bd6fad37aa2d162d1a5940015b70ffffffffffffffffffffffffffffffffff16905060028216156106fe5760806106f9826ffff97272373d413259a46990580e213a610fd5565b901c90505b6004821615610728576080610723826ffff2e50f5f656932ef12357cf3c7fdcc610fd5565b901c90505b600882161561075257608061074d826fffe5caca7e10e4e61c3624eaa0941cd0610fd5565b901c90505b601082161561077c576080610777826fffcb9843d60f6159c9db58835c926644610fd5565b901c90505b60208216156107a65760806107a1826fff973b41fa98c081472e6896dfb254c0610fd5565b901c90505b60408216156107d05760806107cb826fff2ea16466c96a3843ec78b326b52861610fd5565b901c90505b60808216156107fa5760806107f5826ffe5dee046a99a2a811c461f1969c3053610fd5565b901c90505b610100821615610825576080610820826ffcbe86c7900a88aedcffc83b479aa3a4610fd5565b901c90505b61020082161561085057608061084b826ff987a7253ac413176f2b074cf7815e54610fd5565b901c90505b61040082161561087b576080610876826ff3392b0822b70005940c7a398e4b70f3610fd5565b901c90505b6108008216156108a65760806108a1826fe7159475a2c29b7443b29c7fa6e889d9610fd5565b901c90505b6110008216156108d15760806108cc826fd097f3bdfd2022b8845ad8f792aa5825610fd5565b901c90505b6120008216156108fc5760806108f7826fa9f746462d870fdf8a65dc1f90e061e5610fd5565b901c90505b614000821615610927576080610922826f70d869a156d2a1b890bb3df62baf32f7610fd5565b901c90505b61800082161561095257608061094d826f31be135f97d08fd981231505542fcfa6610fd5565b901c90505b6201000082161561097e576080610979826f09aa508b5b7a84e1c677de54f3e99bc9610fd5565b901c90505b620200008216156109a95760806109a4826e5d6af8dedb81196699c329225ee604610fd5565b901c90505b620400008216156109d35760806109ce826d2216e584f5fa1ea926041bedfe98610fd5565b901c90505b620800008216156109fb5760806109f6826b048a170391f7dc42444e8fa2610fd5565b901c90505b60008460020b1315610a1657610a138160001961102a565b90505b610a256401000000008261103e565b15610a31576001610a34565b60005b610a459060ff16602083901c611052565b949350505050565b6000808060001985870985870292508281108382030391505080600003610a865760008411610a7b57600080fd5b508290049050610bbe565b808411610a9257600080fd5b600084868809808403938111909203919050600085610ab081610fec565b16958690049593849004936000819003046001019050610ad08184610fd5565b909317926000610ae1876003610fd5565b6002189050610af08188610fd5565b610afb906002611065565b610b059082610fd5565b9050610b118188610fd5565b610b1c906002611065565b610b269082610fd5565b9050610b328188610fd5565b610b3d906002611065565b610b479082610fd5565b9050610b538188610fd5565b610b5e906002611065565b610b689082610fd5565b9050610b748188610fd5565b610b7f906002611065565b610b899082610fd5565b9050610b958188610fd5565b610ba0906002611065565b610baa9082610fd5565b9050610bb68186610fd5565b955050505050505b9392505050565b80356001600160801b0381168114610bdc57600080fd5b919050565b803563ffffffff81168114610bdc57600080fd5b60008060408385031215610c0857600080fd5b610c1183610bc5565b9150610c1f60208401610be1565b90509250929050565b6001600160a01b0381168114610c3d57600080fd5b50565b60008060008060008060c08789031215610c5957600080fd5b8635610c6481610c28565b95506020870135610c7481610c28565b9450604087013562ffffff81168114610c8c57600080fd5b9350610c9a60608801610bc5565b9250610ca860808801610be1565b915060a08701358015158114610cbd57600080fd5b809150509295509295509295565b634e487b7160e01b600052604160045260246000fd5b634e487b7160e01b600052603260045260246000fd5b6020808252825182820181905260009190848201906040850190845b81811015610d3557835163ffffffff1683529284019291840191600101610d13565b50909695505050505050565b604051601f8201601f1916810167ffffffffffffffff81118282101715610d6a57610d6a610ccb565b604052919050565b600067ffffffffffffffff821115610d8c57610d8c610ccb565b5060051b60200190565b600082601f830112610da757600080fd5b81516020610dbc610db783610d72565b610d41565b82815260059290921b84018101918181019086841115610ddb57600080fd5b8286015b84811015610dff578051610df281610c28565b8352918301918301610ddf565b509695505050505050565b60008060408385031215610e1d57600080fd5b825167ffffffffffffffff80821115610e3557600080fd5b818501915085601f830112610e4957600080fd5b81516020610e59610db783610d72565b82815260059290921b84018101918181019089841115610e7857600080fd5b948201945b83861015610ea65785518060060b8114610e975760008081fd5b82529482019490820190610e7d565b91880151919650909350505080821115610ebf57600080fd5b50610ecc85828601610d96565b9150509250929050565b634e487b7160e01b600052601160045260246000fd5b600682810b9082900b03667fffffffffffff198112667fffffffffffff82131715610f1957610f19610ed6565b92915050565b634e487b7160e01b600052601260045260246000fd5b60008160060b8360060b80610f4c57610f4c610f1f565b667fffffffffffff19821460001982141615610f6a57610f6a610ed6565b90059392505050565b60008260060b80610f8657610f86610f1f565b808360060b0791505092915050565b60008160020b627fffff198103610fae57610fae610ed6565b6000190192915050565b600060208284031215610fca57600080fd5b8151610bbe81610c28565b8082028115828204841417610f1957610f19610ed6565b6000600160ff1b820161100157611001610ed6565b5060000390565b60008160020b627fffff19810361102157611021610ed6565b60000392915050565b60008261103957611039610f1f565b500490565b60008261104d5761104d610f1f565b500690565b80820180821115610f1957610f19610ed6565b81810381811115610f1957610f19610ed656fea2646970667358221220dbd5af3fb0ce571229943e5e108057a4a4a8c8aff389edf44a30b1fcffb2fde964736f6c63430008130033",
    "linkReferences": {}
  },
  "methodIdentifiers": {
    "estimatePriceSupportedPools(address,address,uint24,uint128,uint32,bool)": "e9d7643d",
    "estimateWXDConXUSDT(uint128,uint32)": "72a03a07"
  },
  "id": 8
}