{
  "abi": [
    {
      "inputs": [
        {
          "internalType": "address",
          "name": "tokenA",
          "type": "address"
        },
        {
          "internalType": "address",
          "name": "tokenB",
          "type": "address"
        },
        {
          "internalType": "uint24",
          "name": "fee",
          "type": "uint24"
        }
      ],
      "name": "NotExistingPool",
      "type": "error"
    },
    {
      "inputs": [
        {
          "internalType": "address",
          "name": "tokenA",
          "type": "address"
        },
        {
          "internalType": "address",
          "name": "tokenB",
          "type": "address"
        },
        {
          "internalType": "uint24",
          "name": "poolFee",
          "type": "uint24"
        },
        {
          "internalType": "uint128",
          "name": "amountIn",
          "type": "uint128"
        },
        {
          "internalType": "uint32",
          "name": "secondsAgo",
          "type": "uint32"
        },
        {
          "internalType": "bool",
          "name": "isXSwapPool",
          "type": "bool"
        }
      ],
      "name": "estimatePriceSupportedPools",
      "outputs": [
        {
          "internalType": "uint256",
          "name": "amountOut",
          "type": "uint256"
        }
      ],
      "stateMutability": "view",
      "type": "function"
    },
    {
      "inputs": [
        {
          "internalType": "uint128",
          "name": "amountIn",
          "type": "uint128"
        },
        {
          "internalType": "uint32",
          "name": "secondsAgo",
          "type": "uint32"
        }
      ],
      "name": "estimateWXDConXUSDT",
      "outputs": [
        {
          "internalType": "uint256",
          "name": "amountOut",
          "type": "uint256"
        }
      ],
      "stateMutability": "view",
      "type": "function"
    }
  ],
  "bytecode": {
    "object": "0x6080806040523461002857600d80546001600160a01b031916301790556114b2908161002e8239f35b600080fdfe608080604052600436101561001357600080fd5b60003560e01c90816372a03a0714610896575063e9d7643d1461003557600080fd5b346108475760c0366003190112610847576004356001600160a01b0381169081810361084757602435916001600160a01b038316918284036108475762ffffff604435166044350361084757606435926001600160801b0384168403610847576084359263ffffffff841684036108475760a435151560a435036108475710156108905792905b60a4351561085457604051630b4c774160e11b81526001600160a01b038581166004830152831660248201526044803562ffffff1690820152602081606481731b02da8cb0d097eb8d57a175b88c7d8b479975065afa9081156107cc5760009161080e575b505b6001600160a01b031680156107d8576000610188916040519061014582610efe565b60028252604036602084013763ffffffff851661016183610f6a565b528261016c83610f8d565b52604051808095819463883bdbfd60e01b83526004830161109c565b03915afa9081156107cc5763ffffffff916101c6916000916107a8575b506101b96101b282610f8d565b5191610f6a565b5160060b9060060b6110dd565b911660030b906101d68282611102565b60020b9160008260060b129182610792575b5050610784575b60020b92600084121561077e5761020584611174565b935b620d89e88511610755576001851615610743576001600160881b036ffffcb933bd6fad37aa2d162d1a5940015b169460028116610717575b600481166106eb575b600881166106bf575b60108116610693575b60208116610667575b6040811661063b575b608090818116610610575b61010081166105e5575b61020081166105ba575b610400811661058f575b6108008116610564575b6110008116610539575b612000811661050e575b61400081166104e3575b61800081166104b8575b62010000811661048d575b620200008116610463575b62040000811661043a575b6208000016610410575b506000126103e9575b63ffffffff8460201c9416156000146103e05760ff60005b1684018094116103ca576020936001600160a01b03166001600160801b038111610387578061034191611161565b916001600160a01b0390811691161015610370576001600160801b03610368921690611410565b604051908152f35b6001600160801b0361038292166113d7565b610368565b8061039191611185565b916001600160a01b03908116911610156103b8576001600160801b03610382921690611362565b6001600160801b0361038292166111fe565b634e487b7160e01b600052601160045260246000fd5b60ff6001610313565b9280156103fa5760001904926102fb565b634e487b7160e01b600052601260045260246000fd5b90946b048a170391f7dc42444e8fa2908181029181830414901517156103ca57901c9360006102f2565b956d2216e584f5fa1ea926041bedfe98908181029181830414901517156103ca57811c956102e8565b956e5d6af8dedb81196699c329225ee604908181029181830414901517156103ca57811c956102dd565b956f09aa508b5b7a84e1c677de54f3e99bc9908181029181830414901517156103ca57811c956102d2565b956f31be135f97d08fd981231505542fcfa6908181029181830414901517156103ca57811c956102c7565b956f70d869a156d2a1b890bb3df62baf32f7908181029181830414901517156103ca57811c956102bd565b956fa9f746462d870fdf8a65dc1f90e061e5908181029181830414901517156103ca57811c956102b3565b956fd097f3bdfd2022b8845ad8f792aa5825908181029181830414901517156103ca57811c956102a9565b956fe7159475a2c29b7443b29c7fa6e889d9908181029181830414901517156103ca57811c9561029f565b956ff3392b0822b70005940c7a398e4b70f3908181029181830414901517156103ca57811c95610295565b956ff987a7253ac413176f2b074cf7815e54908181029181830414901517156103ca57811c9561028b565b956ffcbe86c7900a88aedcffc83b479aa3a4908181029181830414901517156103ca57811c95610281565b956ffe5dee046a99a2a811c461f1969c3053908181029181830414901517156103ca57811c95610277565b946fff2ea16466c96a3843ec78b326b52861908181029181830414901517156103ca5760801c9461026c565b946fff973b41fa98c081472e6896dfb254c0908181029181830414901517156103ca5760801c94610263565b946fffcb9843d60f6159c9db58835c926644908181029181830414901517156103ca5760801c9461025a565b946fffe5caca7e10e4e61c3624eaa0941cd0908181029181830414901517156103ca5760801c94610251565b946ffff2e50f5f656932ef12357cf3c7fdcc908181029181830414901517156103ca5760801c94610248565b946ffff97272373d413259a46990580e213a908181029181830414901517156103ca5760801c9461023f565b6001600160881b03600160801b610234565b60405162461bcd60e51b81526020600482015260016024820152601560fa1b6044820152606490fd5b83610207565b61078d9061113b565b6101ef565b61079c9250611129565b60060b151538806101e8565b6107c591503d806000833e6107bd8183610f30565b810190610f9d565b50386101a5565b6040513d6000823e3d90fd5b60405163e8e87b3360e01b81526001600160a01b038681166004830152841660248201526044803562ffffff1690820152606490fd5b90506020813d821161084c575b8161082860209383610f30565b8101031261084757516001600160a01b03811681036108475738610121565b600080fd5b3d915061081b565b6001600160a01b0384811660009081526008602090815260408083208685168452825280832060443562ffffff16845290915290205416610123565b906100bc565b34610847576040366003190112610847576004356001600160801b039081811680910361084757602492833563ffffffff91828216809203610847576000816108e161091d93610efe565b600281526040366020830137836108f782610f6a565b528161090282610f8d565b526040518093819263883bdbfd60e01b83526004830161109c565b038173789d5d3dd968a763d20f540d085df58223d139fc5afa80156107cc5761095491600091610ee257506101b96101b282610f8d565b9060030b906109638282611102565b60020b9160008260060b129182610ecc575b5050610ebe575b60020b906000821215610eb85761099282611174565b915b620d89e88311610e90576001831615610e7e576001600160881b036ffffcb933bd6fad37aa2d162d1a5940015b169260028116610e52575b60048116610e26575b60088116610dfa575b60108116610dce575b60208116610da2575b60408116610d76575b608090818116610d4b575b6101008116610d20575b6102008116610cf5575b6104008116610cca575b6108008116610c9f575b6110008116610c74575b6120008116610c49575b6140008116610c1e575b6180008116610bf3575b620100008116610bc8575b620200008116610b9e575b620400008116610b60575b6208000016610b21575b50600012610afb575b8160201c911615600014610af25760ff60005b168101809111610add57602093506001600160a01b0316918211610acb57610ac68261036893611161565b611410565b610ad88261038293611185565b611362565b83634e487b7160e01b60005260116004526000fd5b60ff6001610a9b565b908015610b0c576000190490610a88565b84634e487b7160e01b60005260126004526000fd5b90926b048a170391f7dc42444e8fa290818102918183041490151715610b4b57901c916000610a7f565b86634e487b7160e01b60005260116004526000fd5b936d2216e584f5fa1ea926041bedfe9890818102918183041490151715610b8957811c93610a75565b87634e487b7160e01b60005260116004526000fd5b936e5d6af8dedb81196699c329225ee60490818102918183041490151715610b8957811c93610a6a565b936f09aa508b5b7a84e1c677de54f3e99bc990818102918183041490151715610b8957811c93610a5f565b936f31be135f97d08fd981231505542fcfa690818102918183041490151715610b8957811c93610a54565b936f70d869a156d2a1b890bb3df62baf32f790818102918183041490151715610b8957811c93610a4a565b936fa9f746462d870fdf8a65dc1f90e061e590818102918183041490151715610b8957811c93610a40565b936fd097f3bdfd2022b8845ad8f792aa582590818102918183041490151715610b8957811c93610a36565b936fe7159475a2c29b7443b29c7fa6e889d990818102918183041490151715610b8957811c93610a2c565b936ff3392b0822b70005940c7a398e4b70f390818102918183041490151715610b8957811c93610a22565b936ff987a7253ac413176f2b074cf7815e5490818102918183041490151715610b8957811c93610a18565b936ffcbe86c7900a88aedcffc83b479aa3a490818102918183041490151715610b8957811c93610a0e565b936ffe5dee046a99a2a811c461f1969c305390818102918183041490151715610b8957811c93610a04565b926fff2ea16466c96a3843ec78b326b5286190818102918183041490151715610b4b5760801c926109f9565b926fff973b41fa98c081472e6896dfb254c090818102918183041490151715610b4b5760801c926109f0565b926fffcb9843d60f6159c9db58835c92664490818102918183041490151715610b4b5760801c926109e7565b926fffe5caca7e10e4e61c3624eaa0941cd090818102918183041490151715610b4b5760801c926109de565b926ffff2e50f5f656932ef12357cf3c7fdcc90818102918183041490151715610b4b5760801c926109d5565b926ffff97272373d413259a46990580e213a90818102918183041490151715610b4b5760801c926109cc565b6001600160881b03600160801b6109c1565b60405162461bcd60e51b815260206004820152600181880152601560fa1b6044820152606490fd5b81610994565b610ec79061113b565b61097c565b610ed69250611129565b60060b15158680610975565b610ef791503d806000833e6107bd8183610f30565b50876101a5565b6060810190811067ffffffffffffffff821117610f1a57604052565b634e487b7160e01b600052604160045260246000fd5b90601f8019910116810190811067ffffffffffffffff821117610f1a57604052565b67ffffffffffffffff8111610f1a5760051b60200190565b805115610f775760200190565b634e487b7160e01b600052603260045260246000fd5b805160011015610f775760400190565b919060408382031261084757825167ffffffffffffffff908181116108475784019082601f8301121561084757815191610fd683610f52565b90610fe46040519283610f30565b838252602093848084019160051b83010191868311610847578501905b82821061108357505050948281015191821161084757019180601f8401121561084757825161102f81610f52565b9361103d6040519586610f30565b818552838086019260051b820101928311610847578301905b828210611064575050505090565b81516001600160a01b0381168103610847578152908301908301611056565b81518060060b8103610847578152908501908501611001565b6020908160408183019282815285518094520193019160005b8281106110c3575050505090565b835163ffffffff16855293810193928101926001016110b5565b600691820b910b0390667fffffffffffff198212667fffffffffffff8313176103ca57565b60060b9060060b9081156103fa57667fffffffffffff1981146000198314166103ca570590565b9060060b9081156103fa5760060b0790565b60020b627fffff1981146103ca576000190190565b90811560018380041417156103ca57565b818102929181159184041417156103ca57565b600160ff1b81146103ca5760000390565b909190600019838209838202918280831092039482860392600096146111f4576801000000000000000091838311156111f0576111e2926111ed96979492600192099367ffffffffffffffff190160401c01908484119003611161565b910360401c17611150565b90565b8680fd5b50505060401c9150565b600160801b9291600019828509938260801b92838087109603958087039614611353578583111561084757829109908061123781611174565b1680910491611255600096600184808a030401908684119003611161565b92806003029660038804820361132b5760028098186112748184611161565b89039089821161133f579061128891611161565b6112928184611161565b89039089821161133f57906112a691611161565b6112b08184611161565b89039089821161133f57906112c491611161565b6112ce8184611161565b89039089821161133f57906112e291611161565b6112ec8184611161565b89039089821161133f5761130a9161130391611161565b8093611161565b880397881161132b57506111ed959661132291611161565b93030417611161565b634e487b7160e01b81526011600452602490fd5b634e487b7160e01b83526011600452602483fd5b50508092935015610847570490565b909190600019838209838202918280831092039482860392600096146113cd57600160801b91838311156111f0576113c2926111ed9697949260019209936fffffffffffffffffffffffffffffffff190160801c01908484119003611161565b910360801c17611150565b50505060801c9150565b600160c01b9291600019828509938260c01b92838087109603958087039614611353578583111561084757829109908061123781611174565b9091906000198382098382029182808310920394828603926000961461147257600160c01b91838311156111f057611467926111ed9697949260019209936001600160c01b03190160c01c01908484119003611161565b910360c01c17611150565b50505060c01c915056fea264697066735822122015e0e683eeb6c3b4e549d431113cb5fc0adde4dde21ac47b9c6f7be5530d313864736f6c63430008130033",
    "linkReferences": {}
  },
  "methodIdentifiers": {
    "estimatePriceSupportedPools(address,address,uint24,uint128,uint32,bool)": "e9d7643d",
    "estimateWXDConXUSDT(uint128,uint32)": "72a03a07"
  },
  "id": 8
}