{
  "abi": [
    {
      "inputs": [],
      "name": "IncorrectLeverage",
      "type": "error"
    },
    {
      "inputs": [
        {
          "internalType": "address",
          "name": "pool",
          "type": "address"
        },
        {
          "internalType": "address",
          "name": "owner",
          "type": "address"
        },
        {
          "internalType": "uint256",
          "name": "contractId",
          "type": "uint256"
        }
      ],
      "name": "NotAvaibleFuture",
      "type": "error"
    },
    {
      "inputs": [
        {
          "internalType": "address",
          "name": "pool",
          "type": "address"
        },
        {
          "internalType": "address",
          "name": "owner",
          "type": "address"
        },
        {
          "internalType": "uint256",
          "name": "contractId",
          "type": "uint256"
        }
      ],
      "name": "NotAvailableOption",
      "type": "error"
    },
    {
      "inputs": [],
      "name": "PositionsIsLiquidable",
      "type": "error"
    },
    {
      "inputs": [],
      "name": "TransferFailed",
      "type": "error"
    },
    {
      "inputs": [
        {
          "internalType": "address",
          "name": "pool",
          "type": "address"
        },
        {
          "internalType": "uint24",
          "name": "contractId",
          "type": "uint24"
        },
        {
          "internalType": "uint256",
          "name": "amount",
          "type": "uint256"
        }
      ],
      "name": "decreaseCollateralFutures",
      "outputs": [],
      "stateMutability": "nonpayable",
      "type": "function"
    },
    {
      "inputs": [
        {
          "internalType": "address",
          "name": "pool",
          "type": "address"
        },
        {
          "internalType": "uint24",
          "name": "contractId",
          "type": "uint24"
        },
        {
          "internalType": "uint256",
          "name": "amount",
          "type": "uint256"
        }
      ],
      "name": "decreaseCollateralOptions",
      "outputs": [],
      "stateMutability": "nonpayable",
      "type": "function"
    },
    {
      "inputs": [
        {
          "internalType": "address",
          "name": "pool",
          "type": "address"
        },
        {
          "internalType": "uint24",
          "name": "contractId",
          "type": "uint24"
        },
        {
          "internalType": "uint256",
          "name": "amount",
          "type": "uint256"
        }
      ],
      "name": "increaseCollateralFutures",
      "outputs": [],
      "stateMutability": "nonpayable",
      "type": "function"
    },
    {
      "inputs": [
        {
          "internalType": "address",
          "name": "pool",
          "type": "address"
        },
        {
          "internalType": "uint24",
          "name": "contractId",
          "type": "uint24"
        },
        {
          "internalType": "uint256",
          "name": "amount",
          "type": "uint256"
        }
      ],
      "name": "increaseCollateralOptions",
      "outputs": [],
      "stateMutability": "nonpayable",
      "type": "function"
    }
  ],
  "bytecode": {
    "object": "0x608060405234801561001057600080fd5b50600d80546001600160a01b03191630179055610cf9806100326000396000f3fe608060405234801561001057600080fd5b506004361061004c5760003560e01c80632c2bc21714610051578063784fb649146100665780639c59f3a914610079578063bcd989831461008c575b600080fd5b61006461005f366004610b2b565b61009f565b005b610064610074366004610b2b565b6103da565b610064610087366004610b2b565b610658565b61006461009a366004610b2b565b6108bc565b6001600160a01b0383166000908152600c60209081526040808320338452825280832062ffffff86168452909152808220815161014081019092528054829060ff1660018111156100f2576100f2610b80565b600181111561010357610103610b80565b815281546001600160a01b03610100918290048116602084015260018401546040840152600284015460608401526003840154608084015260048085015460a0850152600585015490911660c0840152600684015460e084015260078401549183019190915260088301546101209092019160ff169081111561018857610188610b80565b600481111561019957610199610b80565b9052509050600181610120015160048111156101b7576101b7610b80565b141580156101dc5750600281610120015160048111156101d9576101d9610b80565b14155b15610209578333846040516365145d8760e11b815260040161020093929190610b96565b60405180910390fd5b60405163d281198160e01b815260009081908190309063d281198190610237908a9033908b90600401610b96565b606060405180830381865afa158015610254573d6000803e3d6000fd5b505050506040513d601f19601f820116820180604052508101906102789190610bd3565b9250925092508280610291575061028e81610c1e565b85105b156102af5760405163fde99bb160e01b815260040160405180910390fd5b60c08401516040516323b872dd60e01b81526000916001600160a01b0316906323b872dd906102e690309033908b90600401610c3a565b6020604051808303816000875af1158015610305573d6000803e3d6000fd5b505050506040513d601f19601f820116820180604052508101906103299190610c5e565b905080610349576040516312171d8360e31b815260040160405180910390fd5b6001600160a01b0388166000908152600c60209081526040808320338452825280832062ffffff8b1684529091528120600301805488929061038c908490610c80565b909155505060e085015160808601516103a6908890610c99565b6103b1906064610cac565b10156103d05760405163f137dba560e01b815260040160405180910390fd5b5050505050505050565b6001600160a01b0383166000908152600c60209081526040808320338452825280832062ffffff86168452909152808220815161014081019092528054829060ff16600181111561042d5761042d610b80565b600181111561043e5761043e610b80565b815281546001600160a01b03610100918290048116602084015260018401546040840152600284015460608401526003840154608084015260048085015460a0850152600585015490911660c0840152600684015460e084015260078401549183019190915260088301546101209092019160ff16908111156104c3576104c3610b80565b60048111156104d4576104d4610b80565b9052509050600181610120015160048111156104f2576104f2610b80565b1415801561051757506002816101200151600481111561051457610514610b80565b14155b1561053b578333846040516365145d8760e11b815260040161020093929190610b96565b60c08101516040516323b872dd60e01b81526000916001600160a01b0316906323b872dd9061057290339030908890600401610c3a565b6020604051808303816000875af1158015610591573d6000803e3d6000fd5b505050506040513d601f19601f820116820180604052508101906105b59190610c5e565b9050806105d5576040516312171d8360e31b815260040160405180910390fd5b6001600160a01b0385166000908152600c60209081526040808320338452825280832062ffffff8816845290915281206003018054859290610618908490610c99565b909155505060e08201516080830151610632908590610c99565b10156106515760405163f137dba560e01b815260040160405180910390fd5b5050505050565b6001600160a01b0383166000908152600b60209081526040808320338452825280832062ffffff86168452909152808220815161016081019092528054829060ff1660018111156106ab576106ab610b80565b60018111156106bc576106bc610b80565b815281546001600160a01b03610100918290048116602084015260018401546040840152600284015460608401526003840154608084015260048085015460a0850152600585015460c0850152600685015490911660e0840152600784015491830191909152600883015461012083015260098301546101409092019160ff169081111561074c5761074c610b80565b600481111561075d5761075d610b80565b90525090506001816101400151600481111561077b5761077b610b80565b141580156107a057506002816101400151600481111561079d5761079d610b80565b14155b156107c4578333846040516323024f6560e11b815260040161020093929190610b96565b60e08101516040516323b872dd60e01b81526000916001600160a01b0316906323b872dd906107fb90339030908890600401610c3a565b6020604051808303816000875af115801561081a573d6000803e3d6000fd5b505050506040513d601f19601f8201168201806040525081019061083e9190610c5e565b90508061085e576040516312171d8360e31b815260040160405180910390fd5b6001600160a01b0385166000908152600b60209081526040808320338452825280832062ffffff88168452909152812060040180548592906108a1908490610c99565b909155505061010082015160a0830151610632908590610c99565b6001600160a01b0383166000908152600b60209081526040808320338452825280832062ffffff86168452909152808220815161016081019092528054829060ff16600181111561090f5761090f610b80565b600181111561092057610920610b80565b815281546001600160a01b03610100918290048116602084015260018401546040840152600284015460608401526003840154608084015260048085015460a0850152600585015460c0850152600685015490911660e0840152600784015491830191909152600883015461012083015260098301546101409092019160ff16908111156109b0576109b0610b80565b60048111156109c1576109c1610b80565b9052509050600181610140015160048111156109df576109df610b80565b14158015610a04575060028161014001516004811115610a0157610a01610b80565b14155b15610a28578333846040516323024f6560e11b815260040161020093929190610b96565b60e08101516040516323b872dd60e01b81526000916001600160a01b0316906323b872dd90610a5f90309033908890600401610c3a565b6020604051808303816000875af1158015610a7e573d6000803e3d6000fd5b505050506040513d601f19601f82011682018060405250810190610aa29190610c5e565b905080610ac2576040516312171d8360e31b815260040160405180910390fd5b6001600160a01b0385166000908152600b60209081526040808320338452825280832062ffffff8816845290915281206004018054859290610b05908490610c80565b909155505061010082015160a0830151610b20908590610c99565b610632906064610cac565b600080600060608486031215610b4057600080fd5b83356001600160a01b0381168114610b5757600080fd5b9250602084013562ffffff81168114610b6f57600080fd5b929592945050506040919091013590565b634e487b7160e01b600052602160045260246000fd5b6001600160a01b03938416815291909216602082015262ffffff909116604082015260600190565b80518015158114610bce57600080fd5b919050565b600080600060608486031215610be857600080fd5b610bf184610bbe565b925060208401519150604084015190509250925092565b634e487b7160e01b600052601160045260246000fd5b6000600160ff1b8201610c3357610c33610c08565b5060000390565b6001600160a01b039384168152919092166020820152604081019190915260600190565b600060208284031215610c7057600080fd5b610c7982610bbe565b9392505050565b81810381811115610c9357610c93610c08565b92915050565b80820180821115610c9357610c93610c08565b8082028115828204841417610c9357610c93610c0856fea26469706673582212209d85b39befddee13fead2f99725dd10308de58c42d38a9481cbc857ca2a4e64c64736f6c63430008130033",
    "linkReferences": {}
  },
  "methodIdentifiers": {
    "decreaseCollateralFutures(address,uint24,uint256)": "2c2bc217",
    "decreaseCollateralOptions(address,uint24,uint256)": "bcd98983",
    "increaseCollateralFutures(address,uint24,uint256)": "784fb649",
    "increaseCollateralOptions(address,uint24,uint256)": "9c59f3a9"
  },
  "id": 3
}