{
  "abi": [
    {
      "inputs": [],
      "name": "IncorrectLeverage",
      "type": "error"
    },
    {
      "inputs": [
        {
          "internalType": "address",
          "name": "pool",
          "type": "address"
        },
        {
          "internalType": "address",
          "name": "owner",
          "type": "address"
        },
        {
          "internalType": "uint256",
          "name": "contractId",
          "type": "uint256"
        }
      ],
      "name": "NotAvaibleFuture",
      "type": "error"
    },
    {
      "inputs": [
        {
          "internalType": "address",
          "name": "pool",
          "type": "address"
        },
        {
          "internalType": "address",
          "name": "owner",
          "type": "address"
        },
        {
          "internalType": "uint256",
          "name": "contractId",
          "type": "uint256"
        }
      ],
      "name": "NotAvailableOption",
      "type": "error"
    },
    {
      "inputs": [],
      "name": "PositionsIsLiquidable",
      "type": "error"
    },
    {
      "inputs": [],
      "name": "TransferFailed",
      "type": "error"
    },
    {
      "inputs": [
        {
          "internalType": "address",
          "name": "pool",
          "type": "address"
        },
        {
          "internalType": "uint24",
          "name": "contractId",
          "type": "uint24"
        },
        {
          "internalType": "uint256",
          "name": "amount",
          "type": "uint256"
        }
      ],
      "name": "decreaseCollateralFutures",
      "outputs": [],
      "stateMutability": "nonpayable",
      "type": "function"
    },
    {
      "inputs": [
        {
          "internalType": "address",
          "name": "pool",
          "type": "address"
        },
        {
          "internalType": "uint24",
          "name": "contractId",
          "type": "uint24"
        },
        {
          "internalType": "uint256",
          "name": "amount",
          "type": "uint256"
        }
      ],
      "name": "decreaseCollateralOptions",
      "outputs": [],
      "stateMutability": "nonpayable",
      "type": "function"
    },
    {
      "inputs": [
        {
          "internalType": "address",
          "name": "pool",
          "type": "address"
        },
        {
          "internalType": "uint24",
          "name": "contractId",
          "type": "uint24"
        },
        {
          "internalType": "uint256",
          "name": "amount",
          "type": "uint256"
        }
      ],
      "name": "increaseCollateralFutures",
      "outputs": [],
      "stateMutability": "nonpayable",
      "type": "function"
    },
    {
      "inputs": [
        {
          "internalType": "address",
          "name": "pool",
          "type": "address"
        },
        {
          "internalType": "uint24",
          "name": "contractId",
          "type": "uint24"
        },
        {
          "internalType": "uint256",
          "name": "amount",
          "type": "uint256"
        }
      ],
      "name": "increaseCollateralOptions",
      "outputs": [],
      "stateMutability": "nonpayable",
      "type": "function"
    }
  ],
  "bytecode": {
    "object": "0x6080806040523461002857600d80546001600160a01b03191630179055610a3c908161002e8239f35b600080fdfe608060408181526004908136101561001657600080fd5b600092833560e01c9081632c2bc2171461067757508063784fb649146104915780639c59f3a9146102ce5763bcd989831461005057600080fd5b346102ca5761005e366108f0565b90600160a01b60019003808416808852602090600b8252868920338a5282528689209262ffffff851693848b528352878a209688519061009d8261098a565b82895460ff81166100ad8161092b565b845260081c168583015260018901548a83015260028901546060830152600389015460808301528a8901549660a0830197885260058a015460c08401528360068b0154169260e0810193845260078b01549a61010082019b8c5260088101546101208301526009015460ff16906101400190610129908261094b565b805160058110156102b65760011415908161028d575b506102555750505188516323b872dd60e01b8152308b8201908152336020820152604081018990529092859284928390036060019183918f91165af190811561024b578a91610212575b501561020257906101c4949392918952600b8152868920338a5281528689209189525285858820016101bc8382546109f9565b9055516109d6565b906064820291808304606414901517156101ef5751116101e2578280f35b5163f137dba560e01b8152fd5b634e487b7160e01b855260118452602485fd5b86516312171d8360e31b81528890fd5b90508281813d8311610244575b61022981836109a7565b810103126102405761023a906109c9565b38610189565b8980fd5b503d61021f565b88513d8c823e3d90fd5b8a516323024f6560e11b81526001600160a01b03909216828d0190815233602082015262ffffff909116604082015281906060010390fd5b90505160058110156102a357600214153861013f565b634e487b7160e01b8e5260218d5260248efd5b50634e487b7160e01b8e5260218d5260248efd5b8280fd5b50346102ca576102dd366108f0565b90600160a01b60019003808416808852602090600b8252868920338a5282528689209262ffffff851693848b528352878a209688519061031c8261098a565b82895460ff811661032c8161092b565b845260081c168583015260018901548a83015260028901546060830152600389015460808301528a8901549660a0830197885260058a015460c08401528360068b0154169260e0810193845260078b01549a61010082019b8c5260088101546101208301526009015460ff169061014001906103a8908261094b565b805160058110156102b65760011415908161047b575b506102555750505188516323b872dd60e01b8152338b8201908152306020820152604081018990529092859284928390036060019183918f91165af190811561024b578a91610446575b5015610202579061043b949392918952600b8152868920338a5281528689209189525285858820016101bc8382546109d6565b9051116101e2578280f35b90508281813d8311610474575b61045d81836109a7565b810103126102405761046e906109c9565b38610408565b503d610453565b90505160058110156102a35760021415386103be565b50346102ca576104a0366108f0565b90600160a01b60019003808416808852602090600c8252868920338a5282528689209262ffffff851693848b528352878a20968851906104df82610957565b82895460ff81166104ef8161092b565b845260081c168583015260018901548a83015260028901546060830152600389015496608083019788528b8a015460a08401528360058b0154169260c0810193845260068b01549a60e082019b8c5260078101546101008301526008015460ff16906101200190610560908261094b565b805160058110156102b657600114159081610661575b506106295750505188516323b872dd60e01b8152338b8201908152306020820152604081018990529092859284928390036060019183918f91165af190811561024b578a916105f4575b5015610202579061043b949392918952600c8152868920338a528152868920918952526003858820016101bc8382546109d6565b90508281813d8311610622575b61060b81836109a7565b810103126102405761061c906109c9565b386105c0565b503d610601565b8a516365145d8760e11b81526001600160a01b03909216828d0190815233602082015262ffffff909116604082015281906060010390fd5b90505160058110156102a3576002141538610576565b9050346108ec57610687366108f0565b9192600160a01b60019003808516808952602091600c8352878a20338b528352878a209362ffffff861694858c528452888b20976106c482610957565b82895460ff81166106d48161092b565b845260081c168583015260018901548a83015260028901546060830152600389015496608083019788528b8a015460a08401528360058b0154169260c0810193845260068b01549a60e082019b8c5260078101546101008301526008015460ff16906101200190610745908261094b565b805160058110156102b6576001141590816108d6575b50610629575050885163d281198160e01b8152838b820152336024820152856044820152606081606481305afa80156108cc578c918d9161088a575b508115610860575b50610850575188516323b872dd60e01b8152308b8201908152336020820152604081018990529092859284928390036060019183918f91165af190811561024b578a9161081b575b501561020257906101c4949392918952600c8152868920338a528152868920918952526003858820016101bc8382546109f9565b90508281813d8311610849575b61083281836109a7565b8101031261024057610843906109c9565b386107e7565b503d610828565b885163fde99bb160e01b81528a90fd5b9050600160ff1b8114610877578b0387103861079f565b634e487b7160e01b8c5260118b5260248cfd5b9150506060813d82116108c4575b816108a5606093836109a7565b810103126108c057896108b7826109c9565b91015138610797565b8b80fd5b3d9150610898565b8a513d8e823e3d90fd5b90505160058110156102a357600214153861075b565b8380fd5b6060906003190112610926576004356001600160a01b0381168103610926579060243562ffffff81168103610926579060443590565b600080fd5b6002111561093557565b634e487b7160e01b600052602160045260246000fd5b60058210156109355752565b610140810190811067ffffffffffffffff82111761097457604052565b634e487b7160e01b600052604160045260246000fd5b610160810190811067ffffffffffffffff82111761097457604052565b90601f8019910116810190811067ffffffffffffffff82111761097457604052565b5190811515820361092657565b919082018092116109e357565b634e487b7160e01b600052601160045260246000fd5b919082039182116109e35756fea26469706673582212208507988a05e670a11c989d93c42dfd3cd94f7334a264f5ee57f4c370d2783a8c64736f6c63430008130033",
    "linkReferences": {}
  },
  "methodIdentifiers": {
    "decreaseCollateralFutures(address,uint24,uint256)": "2c2bc217",
    "decreaseCollateralOptions(address,uint24,uint256)": "bcd98983",
    "increaseCollateralFutures(address,uint24,uint256)": "784fb649",
    "increaseCollateralOptions(address,uint24,uint256)": "9c59f3a9"
  },
  "id": 3
}