{
  "abi": [
    {
      "inputs": [
        {
          "internalType": "address",
          "name": "caller",
          "type": "address"
        },
        {
          "internalType": "address",
          "name": "diamond",
          "type": "address"
        }
      ],
      "name": "CallerCanOnlyBeDiamond",
      "type": "error"
    },
    {
      "inputs": [
        {
          "internalType": "address",
          "name": "owner",
          "type": "address"
        }
      ],
      "name": "CannotBuyFromYourself",
      "type": "error"
    },
    {
      "inputs": [],
      "name": "IncorrectLeverage",
      "type": "error"
    },
    {
      "inputs": [
        {
          "internalType": "uint256",
          "name": "spotPrice",
          "type": "uint256"
        },
        {
          "internalType": "uint256",
          "name": "strike",
          "type": "uint256"
        }
      ],
      "name": "IncorrectStrike",
      "type": "error"
    },
    {
      "inputs": [
        {
          "internalType": "address",
          "name": "pool",
          "type": "address"
        },
        {
          "internalType": "address",
          "name": "owner",
          "type": "address"
        },
        {
          "internalType": "uint256",
          "name": "contractId",
          "type": "uint256"
        }
      ],
      "name": "NotAvailableOption",
      "type": "error"
    },
    {
      "inputs": [],
      "name": "NotSupportedPool",
      "type": "error"
    },
    {
      "inputs": [
        {
          "internalType": "address",
          "name": "pool",
          "type": "address"
        },
        {
          "internalType": "address",
          "name": "owner",
          "type": "address"
        },
        {
          "internalType": "uint24",
          "name": "contractId",
          "type": "uint24"
        }
      ],
      "name": "buyOptionContract",
      "outputs": [],
      "stateMutability": "nonpayable",
      "type": "function"
    },
    {
      "inputs": [
        {
          "internalType": "contract IUniswapV3Pool",
          "name": "pool",
          "type": "address"
        },
        {
          "internalType": "address",
          "name": "owner",
          "type": "address"
        },
        {
          "internalType": "uint24",
          "name": "contractId",
          "type": "uint24"
        }
      ],
      "name": "exerciseOptionContract",
      "outputs": [],
      "stateMutability": "nonpayable",
      "type": "function"
    },
    {
      "inputs": [
        {
          "components": [
            {
              "internalType": "uint256",
              "name": "amount",
              "type": "uint256"
            },
            {
              "internalType": "uint256",
              "name": "strike",
              "type": "uint256"
            },
            {
              "internalType": "address",
              "name": "token",
              "type": "address"
            },
            {
              "internalType": "address",
              "name": "pool",
              "type": "address"
            },
            {
              "internalType": "uint24",
              "name": "poolFee",
              "type": "uint24"
            },
            {
              "internalType": "uint24",
              "name": "leverage",
              "type": "uint24"
            },
            {
              "internalType": "address",
              "name": "token0",
              "type": "address"
            },
            {
              "internalType": "address",
              "name": "token1",
              "type": "address"
            },
            {
              "internalType": "enum Types.OptionType",
              "name": "optionType",
              "type": "uint8"
            }
          ],
          "internalType": "struct Types.OptionParams",
          "name": "param",
          "type": "tuple"
        }
      ],
      "name": "sellOptionContract",
      "outputs": [
        {
          "internalType": "uint24",
          "name": "recordId",
          "type": "uint24"
        }
      ],
      "stateMutability": "nonpayable",
      "type": "function"
    }
  ],
  "bytecode": {
    "object": "0x608060405234801561001057600080fd5b50600d80546001600160a01b03191630179055611c3d806100326000396000f3fe608060405234801561001057600080fd5b50600436106100415760003560e01c806390c2cc0e14610046578063ba2b07d31461005b578063ba71702814610086575b600080fd5b6100596100543660046117d3565b610099565b005b61006e610069366004611865565b6100d4565b60405162ffffff909116815260200160405180910390f35b6100596100943660046117d3565b61015c565b60006100a68484846105cd565b905060008060006100b7848861074f565b9250925092506100cb87858484878a6109af565b50505050505050565b6000333014610103576040516301bfce9d60e01b81523360048201523060248201526044015b60405180910390fd5b60008060008061011286610df5565b6001600160a01b0380831660c08c0152811660e08b01529296509094509250905060008061013f88610e53565b915091506101508887848489610fc7565b98975050505050505050565b6001600160a01b038216330361019057604051637a7803a960e01b81526001600160a01b03831660048201526024016100fa565b6001600160a01b038084166000908152600b60209081526040808320938616835292815282822062ffffff851683529052818120825161016081019093528054919291829060ff1660018111156101e9576101e961190d565b60018111156101fa576101fa61190d565b815281546001600160a01b03610100918290048116602084015260018401546040840152600284015460608401526003840154608084015260048085015460a0850152600585015460c0850152600685015490911660e0840152600784015491830191909152600883015461012083015260098301546101409092019160ff169081111561028a5761028a61190d565b600481111561029b5761029b61190d565b9052509050600181610140015160048111156102b9576102b961190d565b146102dd578383836040516323024f6560e11b81526004016100fa93929190611923565b60e08101516101208201516040516323b872dd60e01b815233600482015230602482015260448101919091526001600160a01b03909116906323b872dd906064016020604051808303816000875af115801561033d573d6000803e3d6000fd5b505050506040513d601f19601f82011682018060405250810190610361919061195b565b508060e001516001600160a01b03166323b872dd33858460c001518560a0015161038b919061198c565b6040516001600160e01b031960e086901b1681526001600160a01b03938416600482015292909116602483015260448201526064016020604051808303816000875af11580156103df573d6000803e3d6000fd5b505050506040513d601f19601f82011682018060405250810190610403919061195b565b5060026101408201526001600160a01b0384166000908152600b60209081526040808320338452825280832062ffffff8616845290915290208151815483929190829060ff19166001838181111561045d5761045d61190d565b021790555060208201518160000160016101000a8154816001600160a01b0302191690836001600160a01b0316021790555060408201518160010155606082015181600201556080820151816003015560a0820151816004015560c0820151816005015560e08201518160060160006101000a8154816001600160a01b0302191690836001600160a01b03160217905550610100820151816007015561012082015181600801556101408201518160090160006101000a81548160ff0219169083600481111561052f5761052f61190d565b02179055505050506001600160a01b039283166000908152600b6020908152604080832094909516825292835283812062ffffff929092168152915290812080546001600160a81b031916815560018101829055600281018290556003810182905560048101829055600581018290556006810180546001600160a01b0319169055600781018290556008810191909155600901805460ff19169055565b6105d5611715565b6001600160a01b038085166000908152600b60209081526040808320938716835292815282822062ffffff861683529052818120825161016081019093528054919291829060ff16600181111561062e5761062e61190d565b600181111561063f5761063f61190d565b815281546001600160a01b03610100918290048116602084015260018401546040840152600284015460608401526003840154608084015260048085015460a0850152600585015460c0850152600685015490911660e0840152600784015491830191909152600883015461012083015260098301546101409092019160ff16908111156106cf576106cf61190d565b60048111156106e0576106e061190d565b9052509050600181610140015160048111156106fe576106fe61190d565b141580156107235750600281610140015160048111156107205761072061190d565b14155b15610747578484846040516323024f6560e11b81526004016100fa93929190611923565b949350505050565b600080600080856040015186604001518760a00151610899886001600160a01b0316630dfe16816040518163ffffffff1660e01b8152600401602060405180830381865afa1580156107a5573d6000803e3d6000fd5b505050506040513d601f19601f820116820180604052508101906107c991906119b4565b896001600160a01b031663d21220a76040518163ffffffff1660e01b8152600401602060405180830381865afa158015610807573d6000803e3d6000fd5b505050506040513d601f19601f8201168201806040525081019061082b91906119b4565b8a6001600160a01b031663ddca3f436040518163ffffffff1660e01b8152600401602060405180830381865afa158015610869573d6000803e3d6000fd5b505050506040513d601f19601f8201168201806040525081019061088d91906119d1565b8c60a00151600161110d565b6108a39190611a04565b6108ad9190611a18565b6108b79190611a04565b9050600080875160018111156108cf576108cf61190d565b146108e2576108dd82611a2f565b6108e4565b815b9050600061271060020b8860600151836108fe9190611a4b565b6109089190611a7b565b9050612710610918606483611a7b565b8960a001516109279190611a4b565b6109319190611a7b565b9450866001600160a01b0316633850c7bd6040518163ffffffff1660e01b815260040160e060405180830381865afa158015610971573d6000803e3d6000fd5b505050506040513d601f19601f820116820180604052508101906109959190611abb565b50939d999c505060008c139a509798505050505050505050565b8215610cde57306001600160a01b03166387f77130876001600160a01b0316630dfe16816040518163ffffffff1660e01b8152600401602060405180830381865afa158015610a02573d6000803e3d6000fd5b505050506040513d601f19601f82011682018060405250810190610a2691906119b4565b6001600160a01b03168760e001516001600160a01b031614610a49576000610a4b565b855b886001600160a01b031663d21220a76040518163ffffffff1660e01b8152600401602060405180830381865afa158015610a89573d6000803e3d6000fd5b505050506040513d601f19601f82011682018060405250810190610aad91906119b4565b6001600160a01b03168860e001516001600160a01b031614610ad0576000610ad2565b865b858a6001600160a01b031663ddca3f436040518163ffffffff1660e01b8152600401602060405180830381865afa158015610b11573d6000803e3d6000fd5b505050506040513d601f19601f82011682018060405250810190610b3591906119d1565b8b6001600160a01b0316630dfe16816040518163ffffffff1660e01b8152600401602060405180830381865afa158015610b73573d6000803e3d6000fd5b505050506040513d601f19601f82011682018060405250810190610b9791906119b4565b8c6001600160a01b031663d21220a76040518163ffffffff1660e01b8152600401602060405180830381865afa158015610bd5573d6000803e3d6000fd5b505050506040513d601f19601f82011682018060405250810190610bf991906119b4565b6040518763ffffffff1660e01b8152600401610c1a96959493929190611b55565b6080604051808303816000875af1158015610c39573d6000803e3d6000fd5b505050506040513d601f19601f82011682018060405250810190610c5d9190611b91565b50505060e086015160405163a9059cbb60e01b8152336004820152602481018790526001600160a01b03909116915063a9059cbb906044016020604051808303816000875af1158015610cb4573d6000803e3d6000fd5b505050506040513d601f19601f82011682018060405250810190610cd8919061195b565b50610d5d565b60e085015160a086015160405163a9059cbb60e01b815233600482015260248101919091526001600160a01b039091169063a9059cbb906044016020604051808303816000875af1158015610d37573d6000803e3d6000fd5b505050506040513d601f19601f82011682018060405250810190610d5b919061195b565b505b6001600160a01b039095166000908152600b60209081526040808320338452825280832062ffffff909816835296905294852080546001600160a81b031916815560018101869055600281018690556003810186905560048101869055600581018690556006810180546001600160a01b03191690556007810186905560088101959095555050506009909101805460ff1916905550565b600080600080610e04856112d7565b610e0d856113d1565b6000610e188661143c565b9050610e248682611473565b610e2d866114ff565b6000610e388761154b565b60c088015160e0909801519298909796509194509092505050565b6000806000610e6184611592565b90506000610e6e856116b3565b9050600085606001516001600160a01b0316633850c7bd6040518163ffffffff1660e01b815260040160e060405180830381865afa158015610eb4573d6000803e3d6000fd5b505050506040513d601f19601f82011682018060405250810190610ed89190611abb565b5050505050915050306001600160a01b03166387f771308760c001516001600160a01b031688604001516001600160a01b031614610f17576000610f19565b835b8860e001516001600160a01b031689604001516001600160a01b031614610f41576000610f43565b845b848a608001518b60c001518c60e001516040518763ffffffff1660e01b8152600401610f7496959493929190611b55565b6080604051808303816000875af1158015610f93573d6000803e3d6000fd5b505050506040513d601f19601f82011682018060405250810190610fb79190611b91565b5094989397509295505050505050565b6060850180516001600160a01b039081166000908152600a6020908152604080832033808552908352818420805462ffffff198116600162ffffff9283169081019092161790915595519094168352600b8252808320938352928152828220848352905290812090600982015460ff1660048111156110485761104861190d565b1461107057866060015133836040516323024f6560e11b81526004016100fa93929190611923565b6101008701518154829060ff1916600183818111156110915761109161190d565b0217905550606087015181546001600160a01b0390911661010002610100600160a81b031990911617815560018082019690965560a087015162ffffff16600282015560208701516003820155955160048701556005860193909355600785019190915560088401556009909201805460ff1916909117905590565b6000806000866001600160a01b0316886001600160a01b031610611132578688611135565b87875b6040516372a03a0760e01b81526001600160801b0388166004820152618ca0602482015291935091506001600160a01b03821673951857744785e80e2de051c32ee7b25f9c458c4281149173d4b5f10d61916bd6e0860144a91ac658de8a14379091149060009030906372a03a0790604401602060405180830381865afa1580156111c4573d6000803e3d6000fd5b505050506040513d601f19601f820116820180604052508101906111e89190611bdb565b9050821561121557611209816ec097ce7bc90715b34b9f1000000000611a04565b955050505050506112ce565b81156112b55760405163e9d7643d60e01b81526001600160a01b0380871660048301528516602482015262ffffff8a1660448201526001600160801b0389166064820152618ca0608482015287151560a4820152309063e9d7643d9060c401602060405180830381865afa158015611291573d6000803e3d6000fd5b505050506040513d601f19601f820116820180604052508101906112099190611bdb565b604051633548de8d60e21b815260040160405180910390fd5b95945050505050565b80606001516001600160a01b0316630dfe16816040518163ffffffff1660e01b8152600401602060405180830381865afa158015611319573d6000803e3d6000fd5b505050506040513d601f19601f8201168201806040525081019061133d91906119b4565b8160c001906001600160a01b031690816001600160a01b03168152505080606001516001600160a01b031663d21220a76040518163ffffffff1660e01b8152600401602060405180830381865afa15801561139c573d6000803e3d6000fd5b505050506040513d601f19601f820116820180604052508101906113c091906119b4565b6001600160a01b031660e090910152565b606081015160c08201516001600160a01b03908116600090815260086020908152604080832060e0870151851684528252808320608087015162ffffff168452909152902054811691161461143957604051633548de8d60e21b815260040160405180910390fd5b50565b60008061145d8360c001518460e0015185608001518660000151600161110d565b835190915061146c9082611a04565b9392505050565b6001826101000151600181111561148c5761148c61190d565b036114ca5780826020015111156114c65760208201516040516318a7b5bb60e21b81526100fa918391600401918252602082015260400190565b5050565b80826020015110156114c65760208201516040516318a7b5bb60e21b81526100fa918391600401918252602082015260400190565b62061a8062ffffff168160a0015162ffffff16118061152d575061271062ffffff168160a0015162ffffff16105b156114395760405163f137dba560e01b815260040160405180910390fd5b600061271062ffffff16826080015162ffffff168360a0015162ffffff1684600001516115789190611a18565b6115829190611a04565b61158c9190611a04565b92915050565b6000806115b18360c001518460e00151856080015186600001516116e1565b83519091506000906127106115c68285611a18565b6115d09190611a04565b6115da9190611bf4565b905060008085610100015160018111156115f6576115f661190d565b146116095761160482611a2f565b61160b565b815b905084604001516001600160a01b03166323b872dd3330848960000151611632919061198c565b6040516001600160e01b031960e086901b1681526001600160a01b03938416600482015292909116602483015260448201526064016020604051808303816000875af1158015611686573d6000803e3d6000fd5b505050506040513d601f19601f820116820180604052508101906116aa919061195b565b50949350505050565b60008061271062ffffff168360a0015162ffffff1684600001516116d79190611a18565b61146c9190611a04565b60006127106116f3868686868661110d565b61170187878787600161110d565b61170b9190611a04565b6112ce9190611a18565b604080516101608101909152806000815260200160006001600160a01b03168152602001600081526020016000815260200160008152602001600081526020016000815260200160006001600160a01b0316815260200160008152602001600081526020016000600481111561178d5761178d61190d565b905290565b6001600160a01b038116811461143957600080fd5b80356117b281611792565b919050565b62ffffff8116811461143957600080fd5b80356117b2816117b7565b6000806000606084860312156117e857600080fd5b83356117f381611792565b9250602084013561180381611792565b91506040840135611813816117b7565b809150509250925092565b604051610120810167ffffffffffffffff8111828210171561185057634e487b7160e01b600052604160045260246000fd5b60405290565b8035600281106117b257600080fd5b6000610120828403121561187857600080fd5b61188061181e565b823581526020830135602082015261189a604084016117a7565b60408201526118ab606084016117a7565b60608201526118bc608084016117c8565b60808201526118cd60a084016117c8565b60a08201526118de60c084016117a7565b60c08201526118ef60e084016117a7565b60e0820152610100611902818501611856565b908201529392505050565b634e487b7160e01b600052602160045260246000fd5b6001600160a01b03938416815291909216602082015262ffffff909116604082015260600190565b805180151581146117b257600080fd5b60006020828403121561196d57600080fd5b61146c8261194b565b634e487b7160e01b600052601160045260246000fd5b80820182811260008312801582168215821617156119ac576119ac611976565b505092915050565b6000602082840312156119c657600080fd5b815161146c81611792565b6000602082840312156119e357600080fd5b815161146c816117b7565b634e487b7160e01b600052601260045260246000fd5b600082611a1357611a136119ee565b500490565b808202811582820484141761158c5761158c611976565b6000600160ff1b8201611a4457611a44611976565b5060000390565b80820260008212600160ff1b84141615611a6757611a67611976565b818105831482151761158c5761158c611976565b600082611a8a57611a8a6119ee565b600160ff1b821460001984141615611aa457611aa4611976565b500590565b805161ffff811681146117b257600080fd5b600080600080600080600060e0888a031215611ad657600080fd5b8751611ae181611792565b8097505060208801518060020b8114611af957600080fd5b9550611b0760408901611aa9565b9450611b1560608901611aa9565b9350611b2360808901611aa9565b925060a088015160ff81168114611b3957600080fd5b9150611b4760c0890161194b565b905092959891949750929550565b958652602086019490945260029290920b604085015262ffffff1660608401526001600160a01b0390811660808401521660a082015260c00190565b60008060008060808587031215611ba757600080fd5b8451935060208501516001600160801b0381168114611bc557600080fd5b6040860151606090960151949790965092505050565b600060208284031215611bed57600080fd5b5051919050565b8181038181111561158c5761158c61197656fea26469706673582212206c879009fe8deedc3ebf78efe7456e9b08dd982d7f147ece20411bb4db91384864736f6c63430008130033",
    "linkReferences": {}
  },
  "methodIdentifiers": {
    "buyOptionContract(address,address,uint24)": "ba717028",
    "exerciseOptionContract(address,address,uint24)": "90c2cc0e",
    "sellOptionContract((uint256,uint256,address,address,uint24,uint24,address,address,uint8))": "ba2b07d3"
  },
  "id": 6
}