{
  "abi": [
    {
      "inputs": [
        {
          "internalType": "address",
          "name": "caller",
          "type": "address"
        },
        {
          "internalType": "address",
          "name": "diamond",
          "type": "address"
        }
      ],
      "name": "CallerCanOnlyBeDiamond",
      "type": "error"
    },
    {
      "inputs": [
        {
          "internalType": "address",
          "name": "owner",
          "type": "address"
        }
      ],
      "name": "CannotBuyFromYourself",
      "type": "error"
    },
    {
      "inputs": [],
      "name": "IncorrectLeverage",
      "type": "error"
    },
    {
      "inputs": [
        {
          "internalType": "uint256",
          "name": "spotPrice",
          "type": "uint256"
        },
        {
          "internalType": "uint256",
          "name": "strike",
          "type": "uint256"
        }
      ],
      "name": "IncorrectStrike",
      "type": "error"
    },
    {
      "inputs": [
        {
          "internalType": "address",
          "name": "pool",
          "type": "address"
        },
        {
          "internalType": "address",
          "name": "owner",
          "type": "address"
        },
        {
          "internalType": "uint256",
          "name": "contractId",
          "type": "uint256"
        }
      ],
      "name": "NotAvailableOption",
      "type": "error"
    },
    {
      "inputs": [],
      "name": "NotSupportedPool",
      "type": "error"
    },
    {
      "inputs": [
        {
          "internalType": "address",
          "name": "pool",
          "type": "address"
        },
        {
          "internalType": "address",
          "name": "owner",
          "type": "address"
        },
        {
          "internalType": "uint24",
          "name": "contractId",
          "type": "uint24"
        }
      ],
      "name": "buyOptionContract",
      "outputs": [],
      "stateMutability": "nonpayable",
      "type": "function"
    },
    {
      "inputs": [
        {
          "internalType": "contract IUniswapV3Pool",
          "name": "pool",
          "type": "address"
        },
        {
          "internalType": "address",
          "name": "owner",
          "type": "address"
        },
        {
          "internalType": "uint24",
          "name": "contractId",
          "type": "uint24"
        }
      ],
      "name": "exerciseOptionContract",
      "outputs": [],
      "stateMutability": "nonpayable",
      "type": "function"
    },
    {
      "inputs": [
        {
          "components": [
            {
              "internalType": "uint256",
              "name": "amount",
              "type": "uint256"
            },
            {
              "internalType": "uint256",
              "name": "strike",
              "type": "uint256"
            },
            {
              "internalType": "address",
              "name": "token",
              "type": "address"
            },
            {
              "internalType": "address",
              "name": "pool",
              "type": "address"
            },
            {
              "internalType": "uint24",
              "name": "poolFee",
              "type": "uint24"
            },
            {
              "internalType": "uint24",
              "name": "leverage",
              "type": "uint24"
            },
            {
              "internalType": "address",
              "name": "token0",
              "type": "address"
            },
            {
              "internalType": "address",
              "name": "token1",
              "type": "address"
            },
            {
              "internalType": "enum Types.OptionType",
              "name": "optionType",
              "type": "uint8"
            }
          ],
          "internalType": "struct Types.OptionParams",
          "name": "param",
          "type": "tuple"
        }
      ],
      "name": "sellOptionContract",
      "outputs": [
        {
          "internalType": "uint24",
          "name": "recordId",
          "type": "uint24"
        }
      ],
      "stateMutability": "nonpayable",
      "type": "function"
    }
  ],
  "bytecode": {
    "object": "0x608060405234801561001057600080fd5b50600d80546001600160a01b03191630179055611853806100326000396000f3fe608060405234801561001057600080fd5b50600436106100415760003560e01c806390c2cc0e14610046578063ba2b07d31461005b578063ba71702814610086575b600080fd5b610059610054366004611425565b610099565b005b61006e6100693660046114b7565b610599565b60405162ffffff909116815260200160405180910390f35b610059610094366004611425565b61061c565b6001600160a01b038084166000908152600b60209081526040808320938616835292815282822062ffffff851683529052818120825161016081019093528054919291829060ff1660018111156100f2576100f261155f565b60018111156101035761010361155f565b815281546001600160a01b03610100918290048116602084015260018401546040840152600284015460608401526003840154608084015260048085015460a0850152600585015460c0850152600685015490911660e0840152600784015491830191909152600883015461012083015260098301546101409092019160ff16908111156101935761019361155f565b60048111156101a4576101a461155f565b9052509050600181610140015160048111156101c2576101c261155f565b141580156101e75750600281610140015160048111156101e4576101e461155f565b14155b15610214578383836040516323024f6560e11b815260040161020b93929190611575565b60405180910390fd5b6000816040015182604001518360a0015161035a886001600160a01b0316630dfe16816040518163ffffffff1660e01b8152600401602060405180830381865afa158015610266573d6000803e3d6000fd5b505050506040513d601f19601f8201168201806040525081019061028a919061159d565b896001600160a01b031663d21220a76040518163ffffffff1660e01b8152600401602060405180830381865afa1580156102c8573d6000803e3d6000fd5b505050506040513d601f19601f820116820180604052508101906102ec919061159d565b8a6001600160a01b031663ddca3f436040518163ffffffff1660e01b8152600401602060405180830381865afa15801561032a573d6000803e3d6000fd5b505050506040513d601f19601f8201168201806040525081019061034e91906115ba565b8860a001516001610a8d565b6103649190611603565b61036e9190611617565b6103789190611603565b9050600080835160018111156103905761039061155f565b146103a35761039e8261162e565b6103a5565b815b9050600061271060020b8460600151836103bf919061164a565b6103c9919061167a565b905060006127106103db60648461167a565b8660a001516103ea919061164a565b6103f4919061167a565b905060008113801561047d5760e086015160405163a9059cbb60e01b8152336004820152602481018490526001600160a01b039091169063a9059cbb906044016020604051808303816000875af1158015610453573d6000803e3d6000fd5b505050506040513d601f19601f8201168201806040525081019061047791906116b8565b506104fc565b60e086015160a087015160405163a9059cbb60e01b815233600482015260248101919091526001600160a01b039091169063a9059cbb906044016020604051808303816000875af11580156104d6573d6000803e3d6000fd5b505050506040513d601f19601f820116820180604052508101906104fa91906116b8565b505b5050506001600160a01b039586166000908152600b6020908152604080832097909816825295865286812062ffffff909516815293909452505091822080546001600160a81b031916815560018101839055600281018390556003810183905560048101839055600581018390556006810180546001600160a01b031916905560078101839055600881019290925550600901805460ff19169055565b60003330146105c3576040516301bfce9d60e01b815233600482015230602482015260440161020b565b6000806000806105d286610c57565b6001600160a01b0380831660c08c0152811660e08b0152929650909450925090506000806105ff88610cb5565b915091506106108887848489610e60565b98975050505050505050565b6001600160a01b038216330361065057604051637a7803a960e01b81526001600160a01b038316600482015260240161020b565b6001600160a01b038084166000908152600b60209081526040808320938616835292815282822062ffffff851683529052818120825161016081019093528054919291829060ff1660018111156106a9576106a961155f565b60018111156106ba576106ba61155f565b815281546001600160a01b03610100918290048116602084015260018401546040840152600284015460608401526003840154608084015260048085015460a0850152600585015460c0850152600685015490911660e0840152600784015491830191909152600883015461012083015260098301546101409092019160ff169081111561074a5761074a61155f565b600481111561075b5761075b61155f565b9052509050600181610140015160048111156107795761077961155f565b1461079d578383836040516323024f6560e11b815260040161020b93929190611575565b60e08101516101208201516040516323b872dd60e01b815233600482015230602482015260448101919091526001600160a01b03909116906323b872dd906064016020604051808303816000875af11580156107fd573d6000803e3d6000fd5b505050506040513d601f19601f8201168201806040525081019061082191906116b8565b508060e001516001600160a01b03166323b872dd33858460c001518560a0015161084b91906116d3565b6040516001600160e01b031960e086901b1681526001600160a01b03938416600482015292909116602483015260448201526064016020604051808303816000875af115801561089f573d6000803e3d6000fd5b505050506040513d601f19601f820116820180604052508101906108c391906116b8565b5060026101408201526001600160a01b0384166000908152600b60209081526040808320338452825280832062ffffff8616845290915290208151815483929190829060ff19166001838181111561091d5761091d61155f565b021790555060208201518160000160016101000a8154816001600160a01b0302191690836001600160a01b0316021790555060408201518160010155606082015181600201556080820151816003015560a0820151816004015560c0820151816005015560e08201518160060160006101000a8154816001600160a01b0302191690836001600160a01b03160217905550610100820151816007015561012082015181600801556101408201518160090160006101000a81548160ff021916908360048111156109ef576109ef61155f565b02179055505050506001600160a01b039283166000908152600b6020908152604080832094909516825292835283812062ffffff929092168152915290812080546001600160a81b031916815560018101829055600281018290556003810182905560048101829055600581018290556006810180546001600160a01b0319169055600781018290556008810191909155600901805460ff19169055565b6000806000866001600160a01b0316886001600160a01b031610610ab2578688610ab5565b87875b6040516372a03a0760e01b81526001600160801b0388166004820152618ca0602482015291935091506001600160a01b03821673951857744785e80e2de051c32ee7b25f9c458c4281149173d4b5f10d61916bd6e0860144a91ac658de8a14379091149060009030906372a03a0790604401602060405180830381865afa158015610b44573d6000803e3d6000fd5b505050506040513d601f19601f82011682018060405250810190610b6891906116fb565b90508215610b9557610b89816ec097ce7bc90715b34b9f1000000000611603565b95505050505050610c4e565b8115610c355760405163e9d7643d60e01b81526001600160a01b0380871660048301528516602482015262ffffff8a1660448201526001600160801b0389166064820152618ca0608482015287151560a4820152309063e9d7643d9060c401602060405180830381865afa158015610c11573d6000803e3d6000fd5b505050506040513d601f19601f82011682018060405250810190610b8991906116fb565b604051633548de8d60e21b815260040160405180910390fd5b95945050505050565b600080600080610c6685610fa6565b610c6f856110a0565b6000610c7a8661110b565b9050610c868682611142565b610c8f866111ce565b6000610c9a8761121a565b60c088015160e0909801519298909796509194509092505050565b6000806000610cc384611261565b90506000610cd085611382565b9050600085606001516001600160a01b0316633850c7bd6040518163ffffffff1660e01b815260040160e060405180830381865afa158015610d16573d6000803e3d6000fd5b505050506040513d601f19601f82011682018060405250810190610d3a9190611726565b5050505050915050306001600160a01b03166387f771308760c001516001600160a01b031688604001516001600160a01b031614610d79576000610d7b565b835b8860e001516001600160a01b031689604001516001600160a01b031614610da3576000610da5565b845b848a608001518b60c001518c60e001516040518763ffffffff1660e01b8152600401610e0d96959493929190958652602086019490945260029290920b604085015262ffffff1660608401526001600160a01b0390811660808401521660a082015260c00190565b6080604051808303816000875af1158015610e2c573d6000803e3d6000fd5b505050506040513d601f19601f82011682018060405250810190610e5091906117c0565b5094989397509295505050505050565b6060850180516001600160a01b039081166000908152600a6020908152604080832033808552908352818420805462ffffff198116600162ffffff9283169081019092161790915595519094168352600b8252808320938352928152828220848352905290812090600982015460ff166004811115610ee157610ee161155f565b14610f0957866060015133836040516323024f6560e11b815260040161020b93929190611575565b6101008701518154829060ff191660018381811115610f2a57610f2a61155f565b0217905550606087015181546001600160a01b0390911661010002610100600160a81b031990911617815560018082019690965560a087015162ffffff16600282015560208701516003820155955160048701556005860193909355600785019190915560088401556009909201805460ff1916909117905590565b80606001516001600160a01b0316630dfe16816040518163ffffffff1660e01b8152600401602060405180830381865afa158015610fe8573d6000803e3d6000fd5b505050506040513d601f19601f8201168201806040525081019061100c919061159d565b8160c001906001600160a01b031690816001600160a01b03168152505080606001516001600160a01b031663d21220a76040518163ffffffff1660e01b8152600401602060405180830381865afa15801561106b573d6000803e3d6000fd5b505050506040513d601f19601f8201168201806040525081019061108f919061159d565b6001600160a01b031660e090910152565b606081015160c08201516001600160a01b03908116600090815260086020908152604080832060e0870151851684528252808320608087015162ffffff168452909152902054811691161461110857604051633548de8d60e21b815260040160405180910390fd5b50565b60008061112c8360c001518460e00151856080015186600001516001610a8d565b835190915061113b9082611603565b9392505050565b6001826101000151600181111561115b5761115b61155f565b036111995780826020015111156111955760208201516040516318a7b5bb60e21b815261020b918391600401918252602082015260400190565b5050565b80826020015110156111955760208201516040516318a7b5bb60e21b815261020b918391600401918252602082015260400190565b62061a8062ffffff168160a0015162ffffff1611806111fc575061271062ffffff168160a0015162ffffff16105b156111085760405163f137dba560e01b815260040160405180910390fd5b600061271062ffffff16826080015162ffffff168360a0015162ffffff1684600001516112479190611617565b6112519190611603565b61125b9190611603565b92915050565b6000806112808360c001518460e00151856080015186600001516113b0565b83519091506000906127106112958285611617565b61129f9190611603565b6112a9919061180a565b905060008085610100015160018111156112c5576112c561155f565b146112d8576112d38261162e565b6112da565b815b905084604001516001600160a01b03166323b872dd333084896000015161130191906116d3565b6040516001600160e01b031960e086901b1681526001600160a01b03938416600482015292909116602483015260448201526064016020604051808303816000875af1158015611355573d6000803e3d6000fd5b505050506040513d601f19601f8201168201806040525081019061137991906116b8565b50949350505050565b60008061271062ffffff168360a0015162ffffff1684600001516113a69190611617565b61113b9190611603565b60006127106113c28686868686610a8d565b6113d0878787876001610a8d565b6113da9190611603565b610c4e9190611617565b6001600160a01b038116811461110857600080fd5b8035611404816113e4565b919050565b62ffffff8116811461110857600080fd5b803561140481611409565b60008060006060848603121561143a57600080fd5b8335611445816113e4565b92506020840135611455816113e4565b9150604084013561146581611409565b809150509250925092565b604051610120810167ffffffffffffffff811182821017156114a257634e487b7160e01b600052604160045260246000fd5b60405290565b80356002811061140457600080fd5b600061012082840312156114ca57600080fd5b6114d2611470565b82358152602083013560208201526114ec604084016113f9565b60408201526114fd606084016113f9565b606082015261150e6080840161141a565b608082015261151f60a0840161141a565b60a082015261153060c084016113f9565b60c082015261154160e084016113f9565b60e08201526101006115548185016114a8565b908201529392505050565b634e487b7160e01b600052602160045260246000fd5b6001600160a01b03938416815291909216602082015262ffffff909116604082015260600190565b6000602082840312156115af57600080fd5b815161113b816113e4565b6000602082840312156115cc57600080fd5b815161113b81611409565b634e487b7160e01b600052601260045260246000fd5b634e487b7160e01b600052601160045260246000fd5b600082611612576116126115d7565b500490565b808202811582820484141761125b5761125b6115ed565b6000600160ff1b8201611643576116436115ed565b5060000390565b80820260008212600160ff1b84141615611666576116666115ed565b818105831482151761125b5761125b6115ed565b600082611689576116896115d7565b600160ff1b8214600019841416156116a3576116a36115ed565b500590565b8051801515811461140457600080fd5b6000602082840312156116ca57600080fd5b61113b826116a8565b80820182811260008312801582168215821617156116f3576116f36115ed565b505092915050565b60006020828403121561170d57600080fd5b5051919050565b805161ffff8116811461140457600080fd5b600080600080600080600060e0888a03121561174157600080fd5b875161174c816113e4565b8097505060208801518060020b811461176457600080fd5b955061177260408901611714565b945061178060608901611714565b935061178e60808901611714565b925060a088015160ff811681146117a457600080fd5b91506117b260c089016116a8565b905092959891949750929550565b600080600080608085870312156117d657600080fd5b8451935060208501516001600160801b03811681146117f457600080fd5b6040860151606090960151949790965092505050565b8181038181111561125b5761125b6115ed56fea264697066735822122037ffdd0ba8c68ec40096fdcbfab05f899c5c046fe24a80bf561622ca44c4acd364736f6c63430008130033",
    "linkReferences": {}
  },
  "methodIdentifiers": {
    "buyOptionContract(address,address,uint24)": "ba717028",
    "exerciseOptionContract(address,address,uint24)": "90c2cc0e",
    "sellOptionContract((uint256,uint256,address,address,uint24,uint24,address,address,uint8))": "ba2b07d3"
  },
  "id": 6
}