{
  "abi": [
    {
      "inputs": [
        {
          "internalType": "address",
          "name": "caller",
          "type": "address"
        },
        {
          "internalType": "address",
          "name": "diamond",
          "type": "address"
        }
      ],
      "name": "CallerCanOnlyBeDiamond",
      "type": "error"
    },
    {
      "inputs": [
        {
          "internalType": "address",
          "name": "owner",
          "type": "address"
        }
      ],
      "name": "CannotBuyFromYourself",
      "type": "error"
    },
    {
      "inputs": [],
      "name": "IncorrectLeverage",
      "type": "error"
    },
    {
      "inputs": [
        {
          "internalType": "uint256",
          "name": "spotPrice",
          "type": "uint256"
        },
        {
          "internalType": "uint256",
          "name": "strike",
          "type": "uint256"
        }
      ],
      "name": "IncorrectStrike",
      "type": "error"
    },
    {
      "inputs": [
        {
          "internalType": "address",
          "name": "pool",
          "type": "address"
        },
        {
          "internalType": "address",
          "name": "owner",
          "type": "address"
        },
        {
          "internalType": "uint256",
          "name": "contractId",
          "type": "uint256"
        }
      ],
      "name": "NotAvailableOption",
      "type": "error"
    },
    {
      "inputs": [
        {
          "internalType": "address",
          "name": "token",
          "type": "address"
        },
        {
          "internalType": "address",
          "name": "token0",
          "type": "address"
        },
        {
          "internalType": "address",
          "name": "token1",
          "type": "address"
        }
      ],
      "name": "NotIncludedInPool",
      "type": "error"
    },
    {
      "inputs": [],
      "name": "NotSupportedPool",
      "type": "error"
    },
    {
      "inputs": [
        {
          "internalType": "address",
          "name": "pool",
          "type": "address"
        },
        {
          "internalType": "address",
          "name": "owner",
          "type": "address"
        },
        {
          "internalType": "uint24",
          "name": "contractId",
          "type": "uint24"
        }
      ],
      "name": "buyOptionContract",
      "outputs": [],
      "stateMutability": "nonpayable",
      "type": "function"
    },
    {
      "inputs": [
        {
          "internalType": "contract IUniswapV3Pool",
          "name": "pool",
          "type": "address"
        },
        {
          "internalType": "address",
          "name": "owner",
          "type": "address"
        },
        {
          "internalType": "uint24",
          "name": "contractId",
          "type": "uint24"
        }
      ],
      "name": "exerciseOptionContract",
      "outputs": [],
      "stateMutability": "nonpayable",
      "type": "function"
    },
    {
      "inputs": [
        {
          "internalType": "uint256",
          "name": "amount",
          "type": "uint256"
        },
        {
          "internalType": "uint256",
          "name": "strike",
          "type": "uint256"
        },
        {
          "internalType": "address",
          "name": "token",
          "type": "address"
        },
        {
          "internalType": "address",
          "name": "pool",
          "type": "address"
        },
        {
          "internalType": "uint24",
          "name": "poolFee",
          "type": "uint24"
        },
        {
          "internalType": "uint24",
          "name": "leverage",
          "type": "uint24"
        },
        {
          "internalType": "enum Types.OptionType",
          "name": "optionType",
          "type": "uint8"
        }
      ],
      "name": "sellOptionContract",
      "outputs": [
        {
          "internalType": "uint24",
          "name": "recordId",
          "type": "uint24"
        }
      ],
      "stateMutability": "nonpayable",
      "type": "function"
    }
  ],
  "bytecode": {
    "object": "0x6080806040523461002857600d80546001600160a01b0319163017905561142b908161002e8239f35b600080fdfe608080604052600436101561001357600080fd5b60003560e01c90816378e25630146108cb5750806390c2cc0e146104945763ba7170281461004057600080fd5b346103ec5760603660031901126103ec576004356001600160a01b03811681036103ec5761006c610fa0565b610074610fb6565b91336001600160a01b03831614610473576001600160a01b038181166000908152600b60209081526040808320938616835292815282822062ffffff8716835290528190209051906100c582610fd4565b805460ff811660028110156103a55783526001600160a01b03600891821c81166020850152600183015460408501526002830154606085015260038301546080850152600483015460a0850152600583015460c085015260068301541660e08401526007820154610100840152810154610120830152600901546101509060ff166101408301610fc8565b61014081015160058110156103a55760010361043e5760e08101516101208201516040516323b872dd60e01b8152336004820152306024820152604481019190915290602090829060649082906000906001600160a01b03165af180156103f957610405575b506000602061021760018060a01b0360e0850151166101de60a086015160c087015190611036565b6040516323b872dd60e01b81523360048201526001600160a01b0389166024820152604481019190915293849283919082906064820190565b03925af180156103f9576103bb575b50600261014082015260018060a01b038216600052600b602052604060002033600052602052604060002062ffffff85166000526020526040600020815160028110156103a5578161027d60099261014094611052565b60208401518154610100600160a81b03191660089190911b610100600160a81b031617815560408401516001820155606084015160028201556080840151600382015560a0840151600482015560c084015160058201556006810160018060a01b0360e0860151166bffffffffffffffffffffffff60a01b825416179055610100840151600782015561012084015160088201550191015160058110156103a55760ff8019835416911617905560018060a01b0316600052600b60205260406000209060018060a01b031660005260205262ffffff604060002091166000526020526103a3604060002060096000918281558260018201558260028201558260038201558260048201558260058201558260068201558260078201558260088201550155565b005b634e487b7160e01b600052602160045260246000fd5b6020813d6020116103f1575b816103d460209383611007565b810103126103ec576103e590611029565b5038610226565b600080fd5b3d91506103c7565b6040513d6000823e3d90fd5b6020813d602011610436575b8161041e60209383611007565b810103126103ec5761042f90611029565b50386101b6565b3d9150610411565b506040516323024f6560e11b81526001600160a01b0391821660048201529116602482015262ffffff82166044820152606490fd5b604051637a7803a960e01b81526001600160a01b0383166004820152602490fd5b346103ec5760603660031901126103ec576004356001600160a01b03818116918290036103ec576104c3610fa0565b906104cc610fb6565b9280600052602092600b84526040600020928082169384600052855260406000209562ffffff8116968760005286526040600020906040519261050e84610fd4565b825460ff81169060028210156103a5578291865260081c1688850152600183015460408501908152600284015495606086019687526003850154608087015260048501549360a08701948552600586015460c088015260ff6009856006890154169760e08a0198895260078101546101008b015260088101546101208b015201541661059f61014089019182610fc8565b805160058110156103a5576001141590816108b5575b50610880575050604051630dfe168160e01b81529089826004818b5afa9182156103f957600092610861575b5060405163d21220a760e01b8152918a836004818c5afa9283156103f957600093610832575b5060405163ddca3f4360e01b81528b816004818d5afa9081156103f9576000916107f5575b5061064d61065d9261065592610665966001600160801b038a5116926110ff565b865190611089565b8251906110a9565b905190611089565b93519460028610156103a55761069f89956000971588146107e657915b61069261271093849251906110dc565b05606485519105906110dc565b059185831386146107765750915160405163a9059cbb60e01b8152336004820152602481019290925290938492604492849291165af180156103f957610742575b505b600052600b82526040600020906000528152604060002091600052526103a3604060002060096000918281558260018201558260028201558260038201558260048201558260058201558260068201558260078201558260088201550155565b8381813d831161076f575b6107578183611007565b810103126103ec5761076890611029565b50846106e0565b503d61074d565b9251925160405163a9059cbb60e01b81523360048201526024810191909152948593604493508492165af180156103f9576107b2575b506106e2565b8381813d83116107df575b6107c78183611007565b810103126103ec576107d890611029565b50846107ac565b503d6107bd565b6107ef906110bc565b91610682565b90508b81813d831161082b575b61080c8183611007565b810103126103ec57519262ffffff841684036103ec579261064d61062c565b503d610802565b6108539193508b3d8d1161085a575b61084b8183611007565b81019061106a565b918c610607565b503d610841565b6108799192508a3d8c1161085a5761084b8183611007565b908b6105e1565b6040516323024f6560e11b81526001600160a01b038a8116600483015292909216602483015262ffffff166044820152606490fd5b90505160058110156103a557600214158d6105b5565b346103ec5760e03660031901126103ec57604435906001600160a01b03821682036103ec576064356001600160a01b03811690036103ec5762ffffff60843516608435036103ec5760a4359062ffffff821682036103ec57600260c43510156103ec57303303610f855750604051630dfe168160e01b8152916020836004816064356001600160a01b03165afa9283156103f957600093610f64575b5060405163d21220a760e01b81526020816004816064356001600160a01b03165afa9081156103f957600091610f45575b506001600160a01b0384811660009081526008602090815260408083208585168452825280832060843562ffffff1684529091529020546064358216911603610f33576109fd6004356109f86001600160801b03821660843585896110ff565b611089565b9160c435600103610f2357602435838111610f0557505b62061a8062ffffff8516118015610ef5575b610ee3576001600160a01b0381811690861614801590610ecd575b610e9c57612710610a6462ffffff608435166109f862ffffff88166004356110a9565b0491610aa1610a826001600160801b0360043516608435848a6110ff565b610a9b6001600160801b0360043516608435858b6112ad565b90611089565b806127108102046127101481151715610e8657610ac6612710918260043591026110a9565b0480600435810311610e865760c435610e72576004359003955b610b276020610afa89610af588600435611036565b611036565b6040516323b872dd60e01b8152336004820152306024820152604481019190915291829081906064820190565b038160006001600160a01b0389165af180156103f957610e39575b50612710610b5762ffffff88166004356110a9565b604051633850c7bd60e01b815291900460e0826004816064356001600160a01b03165afa9182156103f957600092610da3575b506001600160a01b0385811690841603610d9b5780945b6001600160a01b0390811690851603610d93575b604051632f90591f60e11b81526004810195909552602485015260020b60448401526084803562ffffff1660648501526001600160a01b03918216908401521660a482015260808160c4816000305af180156103f957610d52575b5060018060a01b0360643516600052600a60205260406000203360005260205260406000209283549362ffffff85169462ffffff60018701169062ffffff191617905560018060a01b0360643516600052600b602052604060002033600052602052604060002084600052602052604060002094600986019360ff85541660058110156103a557610d1f57610d0462ffffff6008946020999461271094610cb960c43588611052565b8654610100600160a81b03191660643560081b610100600160a81b031617875560018701558282166002870155602435600387015560043560048701556005860155166004356110a9565b0460078201550155805460ff19166001179055604051908152f35b6040516323024f6560e11b8152606480356001600160a01b0316600483015233602483015262ffffff8816604483015290fd5b6080813d8211610d8b575b81610d6a60809383611007565b810103126103ec57602001516001600160801b038116036103ec5784610c10565b3d9150610d5d565b506000610bb5565b600094610ba1565b90915060e0813d60e011610e31575b81610dbf60e09383611007565b810103126103ec5780516001600160a01b038116036103ec576020810151908160020b82036103ec57610df4604082016110cd565b50610e01606082016110cd565b50610e0e608082016110cd565b5060a081015160ff8116036103ec5760c0610e299101611029565b509089610b8a565b3d9150610db2565b6020813d602011610e6a575b81610e5260209383611007565b810103126103ec57610e6390611029565b5087610b42565b3d9150610e45565b610e809060043590036110bc565b95610ae0565b634e487b7160e01b600052601160045260246000fd5b60405163eb97fb7b60e01b81526001600160a01b039182166004820152818616602482015291166044820152606490fd5b506001600160a01b038181169083161415610a41565b60405163f137dba560e01b8152600490fd5b5061271062ffffff851610610a26565b83604491604051916318a7b5bb60e21b835260048301526024820152fd5b602435838110610f055750610a14565b604051633548de8d60e21b8152600490fd5b610f5e915060203d60201161085a5761084b8183611007565b84610998565b610f7e91935060203d60201161085a5761084b8183611007565b9183610967565b6301bfce9d60e01b8152336004820152306024820152604490fd5b602435906001600160a01b03821682036103ec57565b6044359062ffffff821682036103ec57565b60058210156103a55752565b610160810190811067ffffffffffffffff821117610ff157604052565b634e487b7160e01b600052604160045260246000fd5b90601f8019910116810190811067ffffffffffffffff821117610ff157604052565b519081151582036103ec57565b91909160008382019384129112908015821691151617610e8657565b9060028110156103a55760ff80198354169116179055565b908160209103126103ec57516001600160a01b03811681036103ec5790565b8115611093570490565b634e487b7160e01b600052601260045260246000fd5b81810292918115918404141715610e8657565b600160ff1b8114610e865760000390565b519061ffff821682036103ec57565b818102929160008212600160ff1b821416610e86578184051490151715610e8657565b6000926001600160a01b039291839081841682821610156112a857925b16926001600160801b03604051966372a03a0760e01b88521690816004880152618ca0928360248901526020958689604481305afa98891561129d57889961126a575b5073951857744785e80e2de051c32ee7b25f9c458c4281036111b15750505050505050811561119d57506ec097ce7bc90715b34b9f10000000000490565b634e487b7160e01b81526012600452602490fd5b90919293949695975073d4b5f10d61916bd6e0860144a91ac658de8a14378114600014610f335762ffffff926040519763e9d7643d60e01b8952166004880152602487015216604485015260648401526084830152600160a4830152828260c481305afa92831561125d578193611229575b50505090565b9091809350813d8311611256575b6112418183611007565b81010312611253575051388080611223565b80fd5b503d611237565b50604051903d90823e3d90fd5b9098508681813d8311611296575b6112828183611007565b810103126112925751973861115f565b8780fd5b503d611278565b6040513d8a823e3d90fd5b61111c565b6000926001600160a01b039291839081841682821610156113f057925b16926001600160801b03604051966372a03a0760e01b88521690816004880152618ca0928360248901526020958689604481305afa98891561129d5788996113c1575b5073951857744785e80e2de051c32ee7b25f9c458c42810361134b5750505050505050811561119d57506ec097ce7bc90715b34b9f10000000000490565b90919293949695975073d4b5f10d61916bd6e0860144a91ac658de8a14378114600014610f335762ffffff926040519763e9d7643d60e01b89521660048801526024870152166044850152606484015260848301528060a4830152828260c481305afa92831561125d5781936112295750505090565b9098508681813d83116113e9575b6113d98183611007565b810103126112925751973861130d565b503d6113cf565b6112ca56fea2646970667358221220d7631fbf8671933968695da9150a0f0c746947538607fb488bd1c70ad479ccce64736f6c63430008130033",
    "linkReferences": {}
  },
  "methodIdentifiers": {
    "buyOptionContract(address,address,uint24)": "ba717028",
    "exerciseOptionContract(address,address,uint24)": "90c2cc0e",
    "sellOptionContract(uint256,uint256,address,address,uint24,uint24,uint8)": "78e25630"
  },
  "id": 6
}