{
  "abi": [
    {
      "inputs": [
        {
          "internalType": "address",
          "name": "caller",
          "type": "address"
        },
        {
          "internalType": "address",
          "name": "diamond",
          "type": "address"
        }
      ],
      "name": "CallerCanOnlyBeDiamond",
      "type": "error"
    },
    {
      "inputs": [
        {
          "internalType": "address",
          "name": "owner",
          "type": "address"
        }
      ],
      "name": "CannotBuyFromYourself",
      "type": "error"
    },
    {
      "inputs": [
        {
          "internalType": "uint256",
          "name": "collateral",
          "type": "uint256"
        },
        {
          "internalType": "uint256",
          "name": "maintenanceMargin",
          "type": "uint256"
        }
      ],
      "name": "CollateralBelowMaintenanceMargin",
      "type": "error"
    },
    {
      "inputs": [],
      "name": "IncorrectLeverage",
      "type": "error"
    },
    {
      "inputs": [
        {
          "internalType": "address",
          "name": "pool",
          "type": "address"
        },
        {
          "internalType": "address",
          "name": "owner",
          "type": "address"
        },
        {
          "internalType": "uint256",
          "name": "contractId",
          "type": "uint256"
        }
      ],
      "name": "NotAvaibleFuture",
      "type": "error"
    },
    {
      "inputs": [
        {
          "internalType": "address",
          "name": "pool",
          "type": "address"
        },
        {
          "internalType": "address",
          "name": "owner",
          "type": "address"
        },
        {
          "internalType": "uint256",
          "name": "contractId",
          "type": "uint256"
        }
      ],
      "name": "NotAvailableOption",
      "type": "error"
    },
    {
      "inputs": [
        {
          "internalType": "address",
          "name": "token",
          "type": "address"
        },
        {
          "internalType": "address",
          "name": "token0",
          "type": "address"
        },
        {
          "internalType": "address",
          "name": "token1",
          "type": "address"
        }
      ],
      "name": "NotIncludedInPool",
      "type": "error"
    },
    {
      "inputs": [],
      "name": "NotSupportedPool",
      "type": "error"
    },
    {
      "inputs": [],
      "name": "TransferFailed",
      "type": "error"
    },
    {
      "inputs": [
        {
          "internalType": "address",
          "name": "pool",
          "type": "address"
        },
        {
          "internalType": "address",
          "name": "owner",
          "type": "address"
        },
        {
          "internalType": "uint24",
          "name": "contractId",
          "type": "uint24"
        },
        {
          "internalType": "enum Types.FutureType",
          "name": "futureType",
          "type": "uint8"
        }
      ],
      "name": "buyFutureContract",
      "outputs": [],
      "stateMutability": "nonpayable",
      "type": "function"
    },
    {
      "inputs": [
        {
          "internalType": "uint256",
          "name": "amount",
          "type": "uint256"
        },
        {
          "internalType": "address",
          "name": "token",
          "type": "address"
        },
        {
          "internalType": "address",
          "name": "pool",
          "type": "address"
        },
        {
          "internalType": "uint24",
          "name": "poolFee",
          "type": "uint24"
        },
        {
          "internalType": "uint24",
          "name": "leverage",
          "type": "uint24"
        },
        {
          "internalType": "enum Types.FutureType",
          "name": "futureType",
          "type": "uint8"
        }
      ],
      "name": "sellFutureContract",
      "outputs": [
        {
          "internalType": "uint24",
          "name": "recordId",
          "type": "uint24"
        }
      ],
      "stateMutability": "nonpayable",
      "type": "function"
    },
    {
      "inputs": [
        {
          "internalType": "contract IUniswapV3Pool",
          "name": "pool",
          "type": "address"
        },
        {
          "internalType": "address",
          "name": "owner",
          "type": "address"
        },
        {
          "internalType": "uint24",
          "name": "contractId",
          "type": "uint24"
        }
      ],
      "name": "settleFutureContract",
      "outputs": [],
      "stateMutability": "nonpayable",
      "type": "function"
    }
  ],
  "bytecode": {
    "object": "0x6080806040523461002857600d80546001600160a01b03191630179055611496908161002e8239f35b600080fdfe608080604052600436101561001357600080fd5b60003560e01c9081630547b96014610977575080633cf4aef9146105b657639f1923191461004057600080fd5b34610493576080366003190112610493576004356001600160a01b03811690036104935761006c611006565b61007461101c565b906002606435101561049357336001600160a01b038216146105945760018060a01b0360043516600052600c602052604060002060018060a01b038216600052602052604060002062ffffff83166000526020526040600020604051906100da8261103a565b805490600260ff8316101561044c5760ff82811684526001600160a01b03600893841c81166020860152600183015460408601526002830154606086015260038301546080860152600483015460a086015260058301541660c0850152600682015460e0850152600782015461010085015291015461015e9116610120830161102e565b610120810151600581101561044c5760010361055757604051630dfe168160e01b815260208160048181356001600160a01b03165afa9081156104a057600091610538575b5060405163d21220a760e01b815260208160048181356001600160a01b03165afa9081156104a057600091610509575b5060405163ddca3f4360e01b81529060208260048181356001600160a01b03165afa9182156104a05761024a9361023f9361023493610229936000926104d8575b506001600160801b036080890151169261116a565b6080850151906110c9565b6040840151906110d3565b6040830151906110c9565b8151600281101561044c576104ca57805b6101008301518091126104ac575050600060206102ca60018060a01b0360c085015116610291608086015160a0870151906110f7565b6040516323b872dd60e01b81523360048201526001600160a01b0388166024820152604481019190915293849283919082906064820190565b03925af180156104a057610462575b50600261012082015260018060a01b0360043516600052600c602052604060002033600052602052604060002062ffffff841660005260205260406000208151600281101561044c578161033260089261012094611120565b60208401518154610100600160a81b03191660089190911b610100600160a81b031617815560408401516001820155606084015160028201556080840151600382015560a084015160048201556005810160018060a01b0360c0860151166bffffffffffffffffffffffff60a01b82541617905560e08401516006820155610100840151600782015501910151600581101561044c5760ff8019835416911617905560018060a01b0360043516600052600c60205260406000209060018060a01b031660005260205262ffffff6040600020911660005260205261044a604060002060086000918281558260018201558260028201558260038201558260048201558260058201558260068201558260078201550155565b005b634e487b7160e01b600052602160045260246000fd5b6020813d602011610498575b8161047b6020938361106d565b810103126104935761048c90611113565b50386102d9565b600080fd5b3d915061046e565b6040513d6000823e3d90fd5b6044925060405191635a9d122160e01b835260048301526024820152fd5b6104d3816110e6565b61025b565b6104fb91925060203d602011610502575b6104f3818361106d565b8101906110ae565b9038610214565b503d6104e9565b61052b915060203d602011610531575b610523818361106d565b81019061108f565b386101d3565b503d610519565b610551915060203d60201161053157610523818361106d565b386101a3565b506040516365145d8760e11b81526001600160a01b0360048035821690830152909116602482015262ffffff909116604482015280606481010390fd5b604051637a7803a960e01b81526001600160a01b039091166004820152602490fd5b34610493576060366003190112610493576004356001600160a01b0381168103610493576105e2611006565b6105ea61101c565b9160018060a01b038116600052600c602052604060002060018060a01b038316600052602052604060002062ffffff84166000526020526040600020604051906106338261103a565b80549060ff821690600282101561044c579083526001600160a01b03600892831c81166020850152600182015460408501526002820154606085015260038201546080850152600482015460a085015260058201541660c0840152600681015460e0840152600781015461010084015201546101208201906106b89060ff168261102e565b8051600581101561044c57600114159081610961575b5061092c57604051630dfe168160e01b81526020816004816001600160a01b0387165afa9081156104a05760009161090d575b5060405163d21220a760e01b81526020816004816001600160a01b0388165afa9081156104a0576000916108ee575b5060405163ddca3f4360e01b8152906020826004816001600160a01b0389165afa9182156104a0576107849361023f9361023493610229936000926108cd57506001600160801b036080890151169261116a565b8151600281101561044c576108be57805b6101008301518083126104ac57505060009160446107c36107d3602094612710928391606087015190611147565b0560646080860151910590611147565b60c09093015160405163a9059cbb60e01b81523360048201529190930560248201529384928391906001600160a01b03165af180156104a057610885575b5060018060a01b0316600052600c60205260406000209060018060a01b031660005260205262ffffff6040600020911660005260205261044a604060002060086000918281558260018201558260028201558260038201558260048201558260058201558260068201558260078201550155565b6020813d6020116108b6575b8161089e6020938361106d565b81010312610493576108af90611113565b5083610811565b3d9150610891565b6108c7816110e6565b90610795565b6108e791925060203d602011610502576104f3818361106d565b908b610214565b610907915060203d60201161053157610523818361106d565b86610730565b610926915060203d60201161053157610523818361106d565b85610701565b506040516323024f6560e11b81526001600160a01b0391821660048201529116602482015262ffffff82166044820152606490fd5b905051600581101561044c5760021415856106ce565b346104935760c036600319011261049357610990611006565b6044356001600160a01b03811690036104935762ffffff908160643516606435036104935760843592828416840361049357600260a435101561049357303303610feb5750604051630dfe168160e01b81526020816004816044356001600160a01b03165afa9081156104a057600091610fcc575b5060405163d21220a760e01b8152926020846004816044356001600160a01b03165afa9384156104a057600094610fab575b506001600160a01b03828116600090815260086020908152604080832088851684528252808320606435861684529091529020546044358216911603610f9957610a99600435610a946001600160801b038216606435888761116a565b6110c9565b9262061a80828716118015610f8c575b610f7a576001600160a01b0381811690841614801590610f64575b610f3257612710610ad98388166004356110d3565b604051633850c7bd60e01b815291900495909360e0856004816044356001600160a01b03165afa9485156104a057600095610e9c575b50610b4b610b2c6001600160801b0360043516606435858561116a565b610b456001600160801b03600435166064358686611318565b906110c9565b6127108102908082046127101490151715610e8657610b7061271091600435906110d3565b04600060043512816004358103128116908260043581031390151617610e865760a435610e72576004359003945b610bdc6020610baf886004356110f7565b6040516323b872dd60e01b8152336004820152306024820152604481019190915291829081906064820190565b038160006001600160a01b038a165af19081156104a057600091610e38575b5015610e26576001600160a01b0384811690831603610e1e5787935b6001600160a01b0390811690841603610e1757875b604051632f90591f60e11b81526004810195909552602485015260020b6044840152606480358516908401526001600160a01b0390811660848401521660a482015260808160c4816000305af180156104a057610dd6575b5060018060a01b03604435166000526009602052604060002033600052602052604060002093845494828616958360018801169062ffffff191617905560018060a01b0360443516600052600c602052604060002033600052602052604060002085600052602052604060002092600884019460ff865416600581101561044c57610da257610d1560a43586611120565b8454610100600160a81b03191660443560081b610100600160a81b03161785556001850155828716600285015560043560038501556004840155600683015580851615610d8c57655af3107a40006007916020961668056bc75e2d631000000404910155600160ff19825416179055604051908152f35b634e487b7160e01b600052601260045260246000fd5b6040516365145d8760e11b8152604480356001600160a01b0316600483015233602483015262ffffff891690820152606490fd5b6080813d8211610e0f575b81610dee6080938361106d565b8101031261049357602001516001600160801b038116036104935785610c84565b3d9150610de1565b6000610c2c565b600093610c17565b6040516312171d8360e31b8152600490fd5b90506020813d602011610e6a575b81610e536020938361106d565b8101031261049357610e6490611113565b8a610bfb565b3d9150610e46565b610e809060043590036110e6565b94610b9e565b634e487b7160e01b600052601160045260246000fd5b90945060e0813d60e011610f2a575b81610eb860e0938361106d565b810103126104935780516001600160a01b03811603610493576020810151908160020b820361049357610eed60408201611138565b50610efa60608201611138565b50610f0760808201611138565b5060a081015160ff8116036104935760c0610f229101611113565b509388610b0f565b3d9150610eab565b60405163eb97fb7b60e01b81526001600160a01b03918216600482015281841660248201529085166044820152606490fd5b506001600160a01b038181169086161415610ac4565b60405163f137dba560e01b8152600490fd5b5061271082871610610aa9565b604051633548de8d60e21b8152600490fd5b610fc591945060203d60201161053157610523818361106d565b9285610a37565b610fe5915060203d60201161053157610523818361106d565b84610a05565b6301bfce9d60e01b8152336004820152306024820152604490fd5b602435906001600160a01b038216820361049357565b6044359062ffffff8216820361049357565b600582101561044c5752565b610140810190811067ffffffffffffffff82111761105757604052565b634e487b7160e01b600052604160045260246000fd5b90601f8019910116810190811067ffffffffffffffff82111761105757604052565b9081602091031261049357516001600160a01b03811681036104935790565b90816020910312610493575162ffffff811681036104935790565b8115610d8c570490565b81810292918115918404141715610e8657565b600160ff1b8114610e865760000390565b91909160008382019384129112908015821691151617610e8657565b5190811515820361049357565b90600281101561044c5760ff80198354169116179055565b519061ffff8216820361049357565b818102929160008212600160ff1b821416610e86578184051490151715610e8657565b6000926001600160a01b0392918390818416828216101561131357925b16926001600160801b03604051966372a03a0760e01b88521690816004880152618ca0928360248901526020958689604481305afa9889156113085788996112d5575b5073951857744785e80e2de051c32ee7b25f9c458c42810361121c5750505050505050811561120857506ec097ce7bc90715b34b9f10000000000490565b634e487b7160e01b81526012600452602490fd5b90919293949695975073d4b5f10d61916bd6e0860144a91ac658de8a14378114600014610f995762ffffff926040519763e9d7643d60e01b8952166004880152602487015216604485015260648401526084830152600160a4830152828260c481305afa9283156112c8578193611294575b50505090565b9091809350813d83116112c1575b6112ac818361106d565b810103126112be57505138808061128e565b80fd5b503d6112a2565b50604051903d90823e3d90fd5b9098508681813d8311611301575b6112ed818361106d565b810103126112fd575197386111ca565b8780fd5b503d6112e3565b6040513d8a823e3d90fd5b611187565b6000926001600160a01b0392918390818416828216101561145b57925b16926001600160801b03604051966372a03a0760e01b88521690816004880152618ca0928360248901526020958689604481305afa98891561130857889961142c575b5073951857744785e80e2de051c32ee7b25f9c458c4281036113b65750505050505050811561120857506ec097ce7bc90715b34b9f10000000000490565b90919293949695975073d4b5f10d61916bd6e0860144a91ac658de8a14378114600014610f995762ffffff926040519763e9d7643d60e01b89521660048801526024870152166044850152606484015260848301528060a4830152828260c481305afa9283156112c85781936112945750505090565b9098508681813d8311611454575b611444818361106d565b810103126112fd57519738611378565b503d61143a565b61133556fea2646970667358221220ec662ea563887dfe4d916b93f8514b6faea71e4e3c41468134a0e08c3bdce64364736f6c63430008130033",
    "linkReferences": {}
  },
  "methodIdentifiers": {
    "buyFutureContract(address,address,uint24,uint8)": "9f192319",
    "sellFutureContract(uint256,address,address,uint24,uint24,uint8)": "0547b960",
    "settleFutureContract(address,address,uint24)": "3cf4aef9"
  },
  "id": 0
}