{
  "abi": [
    {
      "inputs": [
        {
          "internalType": "address",
          "name": "caller",
          "type": "address"
        },
        {
          "internalType": "address",
          "name": "diamond",
          "type": "address"
        }
      ],
      "name": "CallerCanOnlyBeDiamond",
      "type": "error"
    },
    {
      "inputs": [
        {
          "internalType": "address",
          "name": "owner",
          "type": "address"
        }
      ],
      "name": "CannotBuyFromYourself",
      "type": "error"
    },
    {
      "inputs": [
        {
          "internalType": "uint256",
          "name": "collateral",
          "type": "uint256"
        },
        {
          "internalType": "uint256",
          "name": "maintenanceMargin",
          "type": "uint256"
        }
      ],
      "name": "CollateralBelowMaintenanceMargin",
      "type": "error"
    },
    {
      "inputs": [],
      "name": "IncorrectLeverage",
      "type": "error"
    },
    {
      "inputs": [
        {
          "internalType": "address",
          "name": "pool",
          "type": "address"
        },
        {
          "internalType": "address",
          "name": "owner",
          "type": "address"
        },
        {
          "internalType": "uint256",
          "name": "contractId",
          "type": "uint256"
        }
      ],
      "name": "NotAvaibleFuture",
      "type": "error"
    },
    {
      "inputs": [
        {
          "internalType": "address",
          "name": "pool",
          "type": "address"
        },
        {
          "internalType": "address",
          "name": "owner",
          "type": "address"
        },
        {
          "internalType": "uint256",
          "name": "contractId",
          "type": "uint256"
        }
      ],
      "name": "NotAvailableOption",
      "type": "error"
    },
    {
      "inputs": [
        {
          "internalType": "address",
          "name": "token",
          "type": "address"
        },
        {
          "internalType": "address",
          "name": "token0",
          "type": "address"
        },
        {
          "internalType": "address",
          "name": "token1",
          "type": "address"
        }
      ],
      "name": "NotIncludedInPool",
      "type": "error"
    },
    {
      "inputs": [],
      "name": "NotSupportedPool",
      "type": "error"
    },
    {
      "inputs": [],
      "name": "TransferFailed",
      "type": "error"
    },
    {
      "inputs": [
        {
          "internalType": "address",
          "name": "pool",
          "type": "address"
        },
        {
          "internalType": "address",
          "name": "owner",
          "type": "address"
        },
        {
          "internalType": "uint24",
          "name": "contractId",
          "type": "uint24"
        },
        {
          "internalType": "enum Types.FutureType",
          "name": "futureType",
          "type": "uint8"
        }
      ],
      "name": "buyFutureContract",
      "outputs": [],
      "stateMutability": "nonpayable",
      "type": "function"
    },
    {
      "inputs": [
        {
          "components": [
            {
              "internalType": "uint256",
              "name": "amount",
              "type": "uint256"
            },
            {
              "internalType": "address",
              "name": "token",
              "type": "address"
            },
            {
              "internalType": "address",
              "name": "pool",
              "type": "address"
            },
            {
              "internalType": "uint24",
              "name": "poolFee",
              "type": "uint24"
            },
            {
              "internalType": "uint24",
              "name": "leverage",
              "type": "uint24"
            },
            {
              "internalType": "enum Types.FutureType",
              "name": "futureType",
              "type": "uint8"
            }
          ],
          "internalType": "struct Types.FutureParams",
          "name": "param",
          "type": "tuple"
        }
      ],
      "name": "sellFutureContract",
      "outputs": [
        {
          "internalType": "uint24",
          "name": "recordId",
          "type": "uint24"
        }
      ],
      "stateMutability": "nonpayable",
      "type": "function"
    },
    {
      "inputs": [
        {
          "internalType": "contract IUniswapV3Pool",
          "name": "pool",
          "type": "address"
        },
        {
          "internalType": "address",
          "name": "owner",
          "type": "address"
        },
        {
          "internalType": "uint24",
          "name": "contractId",
          "type": "uint24"
        }
      ],
      "name": "settleFutureContract",
      "outputs": [],
      "stateMutability": "nonpayable",
      "type": "function"
    }
  ],
  "bytecode": {
    "object": "0x608060405234801561001057600080fd5b50600d80546001600160a01b03191630179055611843806100326000396000f3fe608060405234801561001057600080fd5b50600436106100415760003560e01c80633cf4aef9146100465780636e49070e1461005b5780639f19231914610086575b600080fd5b6100596100543660046113d4565b610099565b005b61006e61006936600461142e565b61052c565b60405162ffffff909116815260200160405180910390f35b6100596100943660046114d4565b6105ad565b6001600160a01b038084166000908152600c60209081526040808320938616835292815282822062ffffff851683529052818120825161014081019093528054919291829060ff1660018111156100f2576100f261152e565b60018111156101035761010361152e565b815281546001600160a01b03610100918290048116602084015260018401546040840152600284015460608401526003840154608084015260048085015460a0850152600585015490911660c0840152600684015460e084015260078401549183019190915260088301546101209092019160ff16908111156101885761018861152e565b60048111156101995761019961152e565b9052509050600181610120015160048111156101b7576101b761152e565b141580156101dc5750600281610120015160048111156101d9576101d961152e565b14155b15610209578383836040516323024f6560e11b815260040161020093929190611544565b60405180910390fd5b600081604001518260400151836080015161034f886001600160a01b0316630dfe16816040518163ffffffff1660e01b8152600401602060405180830381865afa15801561025b573d6000803e3d6000fd5b505050506040513d601f19601f8201168201806040525081019061027f919061156c565b896001600160a01b031663d21220a76040518163ffffffff1660e01b8152600401602060405180830381865afa1580156102bd573d6000803e3d6000fd5b505050506040513d601f19601f820116820180604052508101906102e1919061156c565b8a6001600160a01b031663ddca3f436040518163ffffffff1660e01b8152600401602060405180830381865afa15801561031f573d6000803e3d6000fd5b505050506040513d601f19601f820116820180604052508101906103439190611590565b88608001516001610b1a565b61035991906115d9565b61036391906115ed565b61036d91906115d9565b9050600080835160018111156103855761038561152e565b14610398576103938261160a565b61039a565b815b90508261010001518112156103d357610100830151604051635a9d122160e01b8152610200918491600401918252602082015260400190565b6060830151600090612710906103e99084611626565b6103f39190611656565b90506000612710610405606484611656565b86608001516104149190611626565b61041e9190611656565b60c086015160405163a9059cbb60e01b8152336004820152602481018390529192506001600160a01b03169063a9059cbb906044016020604051808303816000875af1158015610472573d6000803e3d6000fd5b505050506040513d601f19601f820116820180604052508101906104969190611694565b5050506001600160a01b039586166000908152600c6020908152604080832097909816825295865286812062ffffff909516815293909452505091822080546001600160a81b0319168155600181018390556002810183905560038101839055600481018390556005810180546001600160a01b031916905560068101839055600781019290925550600801805460ff19169055565b6000333014610556576040516301bfce9d60e01b8152336004820152306024820152604401610200565b600080600080600061056787610ce4565b9450945094509450945060006105808884888886610fc1565b90506105a18860000151858a6080015184878d604001518e60a001516111f9565b98975050505050505050565b6001600160a01b03831633036105e157604051637a7803a960e01b81526001600160a01b0384166004820152602401610200565b6001600160a01b038085166000908152600c60209081526040808320938716835292815282822062ffffff861683529052818120825161014081019093528054919291829060ff16600181111561063a5761063a61152e565b600181111561064b5761064b61152e565b815281546001600160a01b03610100918290048116602084015260018401546040840152600284015460608401526003840154608084015260048085015460a0850152600585015490911660c0840152600684015460e084015260078401549183019190915260088301546101209092019160ff16908111156106d0576106d061152e565b60048111156106e1576106e161152e565b9052509050600181610120015160048111156106ff576106ff61152e565b14610723578484846040516365145d8760e11b815260040161020093929190611544565b6000816040015182604001518360800151610839896001600160a01b0316630dfe16816040518163ffffffff1660e01b8152600401602060405180830381865afa158015610775573d6000803e3d6000fd5b505050506040513d601f19601f82011682018060405250810190610799919061156c565b8a6001600160a01b031663d21220a76040518163ffffffff1660e01b8152600401602060405180830381865afa1580156107d7573d6000803e3d6000fd5b505050506040513d601f19601f820116820180604052508101906107fb919061156c565b8b6001600160a01b031663ddca3f436040518163ffffffff1660e01b8152600401602060405180830381865afa15801561031f573d6000803e3d6000fd5b61084391906115d9565b61084d91906115ed565b61085791906115d9565b90506000808351600181111561086f5761086f61152e565b146108825761087d8261160a565b610884565b815b90508261010001518112156108bd57610100830151604051635a9d122160e01b8152610200918491600401918252602082015260400190565b8260c001516001600160a01b03166323b872dd33888660a0015187608001516108e691906116af565b6040516001600160e01b031960e086901b1681526001600160a01b03938416600482015292909116602483015260448201526064016020604051808303816000875af115801561093a573d6000803e3d6000fd5b505050506040513d601f19601f8201168201806040525081019061095e9190611694565b5060026101208401526001600160a01b0387166000908152600c60209081526040808320338452825280832062ffffff8916845290915290208351815485929190829060ff1916600183818111156109b8576109b861152e565b021790555060208201518160000160016101000a8154816001600160a01b0302191690836001600160a01b0316021790555060408201518160010155606082015181600201556080820151816003015560a0820151816004015560c08201518160050160006101000a8154816001600160a01b0302191690836001600160a01b0316021790555060e0820151816006015561010082015181600701556101208201518160080160006101000a81548160ff02191690836004811115610a7f57610a7f61152e565b021790555050506001600160a01b039687166000908152600c6020908152604080832098909916825296875287812062ffffff90961681529490955250505091822080546001600160a81b0319168155600181018390556002810183905560038101839055600481018390556005810180546001600160a01b031916905560068101839055600781019290925550600801805460ff19169055565b6000806000866001600160a01b0316886001600160a01b031610610b3f578688610b42565b87875b6040516372a03a0760e01b81526001600160801b0388166004820152618ca0602482015291935091506001600160a01b03821673951857744785e80e2de051c32ee7b25f9c458c4281149173d4b5f10d61916bd6e0860144a91ac658de8a14379091149060009030906372a03a0790604401602060405180830381865afa158015610bd1573d6000803e3d6000fd5b505050506040513d601f19601f82011682018060405250810190610bf591906116d7565b90508215610c2257610c16816ec097ce7bc90715b34b9f10000000006115d9565b95505050505050610cdb565b8115610cc25760405163e9d7643d60e01b81526001600160a01b0380871660048301528516602482015262ffffff8a1660448201526001600160801b0389166064820152618ca0608482015287151560a4820152309063e9d7643d9060c401602060405180830381865afa158015610c9e573d6000803e3d6000fd5b505050506040513d601f19601f82011682018060405250810190610c1691906116d7565b604051633548de8d60e21b815260040160405180910390fd5b95945050505050565b60008060008060008086604001516001600160a01b0316630dfe16816040518163ffffffff1660e01b8152600401602060405180830381865afa158015610d2f573d6000803e3d6000fd5b505050506040513d601f19601f82011682018060405250810190610d53919061156c565b9050600087604001516001600160a01b031663d21220a76040518163ffffffff1660e01b8152600401602060405180830381865afa158015610d99573d6000803e3d6000fd5b505050506040513d601f19601f82011682018060405250810190610dbd919061156c565b6040898101516001600160a01b038581166000908152600860209081528482208684168352815284822060608f015162ffffff168352905292909220549293508116911614610e1f57604051633548de8d60e21b815260040160405180910390fd5b6000610e3783838b606001518c600001516001610b1a565b8951909150600090610e4990836115d9565b905062061a8062ffffff168a6080015162ffffff161180610e79575061271062ffffff168a6080015162ffffff16105b15610e975760405163f137dba560e01b815260040160405180910390fd5b836001600160a01b03168a602001516001600160a01b0316141580610ed25750826001600160a01b03168a602001516001600160a01b031614155b15610f115760208a015160405163eb97fb7b60e01b81526001600160a01b03918216600482015281861660248201529084166044820152606401610200565b60808a01518a5160009161271091610f2e9162ffffff16906115ed565b610f3891906115d9565b905060008b604001516001600160a01b0316633850c7bd6040518163ffffffff1660e01b815260040160e060405180830381865afa158015610f7e573d6000803e3d6000fd5b505050506040513d601f19601f82011682018060405250810190610fa29190611702565b509a9f50989d50959b5093995097505050505050505091939590929450565b600080610fd8858589606001518a6000015161135c565b8751909150600090612710610fed82856115ed565b610ff791906115d9565b611001919061179c565b90506000808960a00151600181111561101c5761101c61152e565b1461102f5761102a8261160a565b611031565b815b9050600089602001516001600160a01b03166323b872dd3330858e6000015161105a91906116af565b6040516001600160e01b031960e086901b1681526001600160a01b03938416600482015292909116602483015260448201526064016020604051808303816000875af11580156110ae573d6000803e3d6000fd5b505050506040513d601f19601f820116820180604052508101906110d29190611694565b9050806110f2576040516312171d8360e31b815260040160405180910390fd5b306001600160a01b0316635f20b23e896001600160a01b03168c602001516001600160a01b031614611125576000611127565b8a5b896001600160a01b03168d602001516001600160a01b03161461114b57600061114d565b8b5b60608e01516040516001600160e01b031960e086901b1681526004810193909352602483019190915260028a900b604483015262ffffff1660648201526001600160a01b03808c1660848301528a1660a482015260c4016080604051808303816000875af11580156111c3573d6000803e3d6000fd5b505050506040513d601f19601f820116820180604052508101906111e791906117c3565b50939c9b505050505050505050505050565b6001600160a01b038216600081815260096020908152604080832033808552908352818420805462ffffff198116600162ffffff92831690810190921617909155948452600c83528184209084528252808320848452909152812090919082600882015460ff1660048111156112715761127161152e565b14611295578433836040516365145d8760e11b815260040161020093929190611544565b80548490829060ff1916600183818111156112b2576112b261152e565b02179055508054610100600160a81b0319166101006001600160a01b038716021781556001810189905562ffffff88166002820155600381018a90556004810187905560068101869055611310612710670de0b6b3a76400006115d9565b62ffffff8916611329670de0b6b3a764000060646115ed565b61133391906115d9565b61133d91906115d9565b6007820155600801805460ff1916600117905598975050505050505050565b600061271061136e8686868686610b1a565b61137c878787876001610b1a565b61138691906115d9565b610cdb91906115ed565b6001600160a01b03811681146113a557600080fd5b50565b80356113b381611390565b919050565b62ffffff811681146113a557600080fd5b80356113b3816113b8565b6000806000606084860312156113e957600080fd5b83356113f481611390565b9250602084013561140481611390565b91506040840135611414816113b8565b809150509250925092565b8035600281106113b357600080fd5b600060c0828403121561144057600080fd5b60405160c0810181811067ffffffffffffffff8211171561147157634e487b7160e01b600052604160045260246000fd5b60405282358152611484602084016113a8565b6020820152611495604084016113a8565b60408201526114a6606084016113c9565b60608201526114b7608084016113c9565b60808201526114c860a0840161141f565b60a08201529392505050565b600080600080608085870312156114ea57600080fd5b84356114f581611390565b9350602085013561150581611390565b92506040850135611515816113b8565b91506115236060860161141f565b905092959194509250565b634e487b7160e01b600052602160045260246000fd5b6001600160a01b03938416815291909216602082015262ffffff909116604082015260600190565b60006020828403121561157e57600080fd5b815161158981611390565b9392505050565b6000602082840312156115a257600080fd5b8151611589816113b8565b634e487b7160e01b600052601260045260246000fd5b634e487b7160e01b600052601160045260246000fd5b6000826115e8576115e86115ad565b500490565b8082028115828204841417611604576116046115c3565b92915050565b6000600160ff1b820161161f5761161f6115c3565b5060000390565b80820260008212600160ff1b84141615611642576116426115c3565b8181058314821517611604576116046115c3565b600082611665576116656115ad565b600160ff1b82146000198414161561167f5761167f6115c3565b500590565b805180151581146113b357600080fd5b6000602082840312156116a657600080fd5b61158982611684565b80820182811260008312801582168215821617156116cf576116cf6115c3565b505092915050565b6000602082840312156116e957600080fd5b5051919050565b805161ffff811681146113b357600080fd5b600080600080600080600060e0888a03121561171d57600080fd5b875161172881611390565b8097505060208801518060020b811461174057600080fd5b955061174e604089016116f0565b945061175c606089016116f0565b935061176a608089016116f0565b925060a088015160ff8116811461178057600080fd5b915061178e60c08901611684565b905092959891949750929550565b81810360008312801583831316838312821617156117bc576117bc6115c3565b5092915050565b600080600080608085870312156117d957600080fd5b8451935060208501516001600160801b03811681146117f757600080fd5b604086015160609096015194979096509250505056fea26469706673582212207349477013ef974723fe570f436776374c25cc1ec82d724be07b7bd7a9568a3764736f6c63430008130033",
    "linkReferences": {}
  },
  "methodIdentifiers": {
    "buyFutureContract(address,address,uint24,uint8)": "9f192319",
    "sellFutureContract((uint256,address,address,uint24,uint24,uint8))": "6e49070e",
    "settleFutureContract(address,address,uint24)": "3cf4aef9"
  },
  "id": 5
}